{
	"contracts/AirlineBookingSystem.sol": {
		"Airline": {
			"abi": [
				{
					"inputs": [],
					"stateMutability": "nonpayable",
					"type": "constructor"
				},
				{
					"anonymous": false,
					"inputs": [
						{
							"indexed": false,
							"internalType": "uint256",
							"name": "flightId",
							"type": "uint256"
						},
						{
							"indexed": false,
							"internalType": "string",
							"name": "destination",
							"type": "string"
						},
						{
							"indexed": false,
							"internalType": "uint256",
							"name": "price",
							"type": "uint256"
						},
						{
							"indexed": false,
							"internalType": "uint256",
							"name": "totalSeats",
							"type": "uint256"
						}
					],
					"name": "FlightAdded",
					"type": "event"
				},
				{
					"anonymous": false,
					"inputs": [
						{
							"indexed": false,
							"internalType": "address",
							"name": "customer",
							"type": "address"
						},
						{
							"indexed": false,
							"internalType": "uint256",
							"name": "flightId",
							"type": "uint256"
						},
						{
							"indexed": false,
							"internalType": "uint256",
							"name": "numberOfSeats",
							"type": "uint256"
						},
						{
							"indexed": false,
							"internalType": "uint256",
							"name": "totalCost",
							"type": "uint256"
						}
					],
					"name": "FlightBooked",
					"type": "event"
				},
				{
					"anonymous": false,
					"inputs": [
						{
							"indexed": false,
							"internalType": "address",
							"name": "customer",
							"type": "address"
						},
						{
							"indexed": false,
							"internalType": "uint256",
							"name": "flightId",
							"type": "uint256"
						},
						{
							"indexed": false,
							"internalType": "uint256",
							"name": "refundedAmount",
							"type": "uint256"
						}
					],
					"name": "FlightCancelled",
					"type": "event"
				},
				{
					"anonymous": false,
					"inputs": [
						{
							"indexed": false,
							"internalType": "address",
							"name": "customer",
							"type": "address"
						},
						{
							"indexed": false,
							"internalType": "uint256",
							"name": "amount",
							"type": "uint256"
						}
					],
					"name": "PaymentReceived",
					"type": "event"
				},
				{
					"inputs": [
						{
							"internalType": "string",
							"name": "_destination",
							"type": "string"
						},
						{
							"internalType": "uint256",
							"name": "_price",
							"type": "uint256"
						},
						{
							"internalType": "uint256",
							"name": "_totalSeats",
							"type": "uint256"
						}
					],
					"name": "addFlight",
					"outputs": [],
					"stateMutability": "nonpayable",
					"type": "function"
				},
				{
					"inputs": [
						{
							"internalType": "uint256",
							"name": "_flightId",
							"type": "uint256"
						},
						{
							"internalType": "uint256",
							"name": "_numberOfSeats",
							"type": "uint256"
						}
					],
					"name": "bookFlight",
					"outputs": [],
					"stateMutability": "payable",
					"type": "function"
				},
				{
					"inputs": [
						{
							"internalType": "uint256",
							"name": "_flightId",
							"type": "uint256"
						},
						{
							"internalType": "uint256",
							"name": "_numberOfSeats",
							"type": "uint256"
						}
					],
					"name": "cancelBooking",
					"outputs": [],
					"stateMutability": "payable",
					"type": "function"
				},
				{
					"inputs": [],
					"name": "flightCount",
					"outputs": [
						{
							"internalType": "uint256",
							"name": "",
							"type": "uint256"
						}
					],
					"stateMutability": "view",
					"type": "function"
				},
				{
					"inputs": [
						{
							"internalType": "uint256",
							"name": "",
							"type": "uint256"
						}
					],
					"name": "flights",
					"outputs": [
						{
							"internalType": "string",
							"name": "destination",
							"type": "string"
						},
						{
							"internalType": "uint256",
							"name": "price",
							"type": "uint256"
						},
						{
							"internalType": "uint256",
							"name": "totalSeats",
							"type": "uint256"
						},
						{
							"internalType": "uint256",
							"name": "bookedSeats",
							"type": "uint256"
						}
					],
					"stateMutability": "view",
					"type": "function"
				},
				{
					"inputs": [
						{
							"internalType": "uint256",
							"name": "_flightId",
							"type": "uint256"
						}
					],
					"name": "getFlightDetails",
					"outputs": [
						{
							"internalType": "string",
							"name": "destination",
							"type": "string"
						},
						{
							"internalType": "uint256",
							"name": "price",
							"type": "uint256"
						},
						{
							"internalType": "uint256",
							"name": "bookedSeatsAvailable",
							"type": "uint256"
						}
					],
					"stateMutability": "view",
					"type": "function"
				},
				{
					"inputs": [],
					"name": "owner",
					"outputs": [
						{
							"internalType": "address",
							"name": "",
							"type": "address"
						}
					],
					"stateMutability": "view",
					"type": "function"
				},
				{
					"inputs": [],
					"name": "ownerBalance",
					"outputs": [
						{
							"internalType": "uint256",
							"name": "",
							"type": "uint256"
						}
					],
					"stateMutability": "view",
					"type": "function"
				},
				{
					"inputs": [],
					"name": "withdrawBalance",
					"outputs": [],
					"stateMutability": "nonpayable",
					"type": "function"
				}
			],
			"devdoc": {
				"kind": "dev",
				"methods": {},
				"version": 1
			},
			"evm": {
				"assembly": "    /* \"contracts/AirlineBookingSystem.sol\":88:3827  contract Airline{... */\n  mstore(0x40, 0x80)\n    /* \"contracts/AirlineBookingSystem.sol\":830:879  constructor(){... */\n  callvalue\n  dup1\n  iszero\n  tag_1\n  jumpi\n  0x00\n  dup1\n  revert\ntag_1:\n  pop\n    /* \"contracts/AirlineBookingSystem.sol\":861:871  msg.sender */\n  caller\n    /* \"contracts/AirlineBookingSystem.sol\":854:859  owner */\n  0x00\n  dup1\n    /* \"contracts/AirlineBookingSystem.sol\":854:871  owner= msg.sender */\n  0x0100\n  exp\n  dup2\n  sload\n  dup2\n  0xffffffffffffffffffffffffffffffffffffffff\n  mul\n  not\n  and\n  swap1\n  dup4\n  0xffffffffffffffffffffffffffffffffffffffff\n  and\n  mul\n  or\n  swap1\n  sstore\n  pop\n    /* \"contracts/AirlineBookingSystem.sol\":88:3827  contract Airline{... */\n  dataSize(sub_0)\n  dup1\n  dataOffset(sub_0)\n  0x00\n  codecopy\n  0x00\n  return\nstop\n\nsub_0: assembly {\n        /* \"contracts/AirlineBookingSystem.sol\":88:3827  contract Airline{... */\n      mstore(0x40, 0x80)\n      jumpi(tag_1, lt(calldatasize, 0x04))\n      shr(0xe0, calldataload(0x00))\n      dup1\n      0x1bc09567\n      gt\n      tag_11\n      jumpi\n      dup1\n      0x1bc09567\n      eq\n      tag_6\n      jumpi\n      dup1\n      0x32229205\n      eq\n      tag_7\n      jumpi\n      dup1\n      0x5fd8c710\n      eq\n      tag_8\n      jumpi\n      dup1\n      0x8da5cb5b\n      eq\n      tag_9\n      jumpi\n      dup1\n      0xbedcf003\n      eq\n      tag_10\n      jumpi\n      jump(tag_1)\n    tag_11:\n      dup1\n      0x0b7569f1\n      eq\n      tag_2\n      jumpi\n      dup1\n      0x139e92eb\n      eq\n      tag_3\n      jumpi\n      dup1\n      0x15ccf70f\n      eq\n      tag_4\n      jumpi\n      dup1\n      0x18535008\n      eq\n      tag_5\n      jumpi\n    tag_1:\n      0x00\n      dup1\n      revert\n        /* \"contracts/AirlineBookingSystem.sol\":887:1167  function addFlight(string memory _destination, uint _price, uint _totalSeats) public onlyOwner {... */\n    tag_2:\n      callvalue\n      dup1\n      iszero\n      tag_12\n      jumpi\n      0x00\n      dup1\n      revert\n    tag_12:\n      pop\n      tag_13\n      0x04\n      dup1\n      calldatasize\n      sub\n      dup2\n      add\n      swap1\n      tag_14\n      swap2\n      swap1\n      tag_15\n      jump\t// in\n    tag_14:\n      tag_16\n      jump\t// in\n    tag_13:\n      stop\n        /* \"contracts/AirlineBookingSystem.sol\":1175:1711  function bookFlight(uint _flightId, uint _numberOfSeats) public payable {... */\n    tag_3:\n      tag_17\n      0x04\n      dup1\n      calldatasize\n      sub\n      dup2\n      add\n      swap1\n      tag_18\n      swap2\n      swap1\n      tag_19\n      jump\t// in\n    tag_18:\n      tag_20\n      jump\t// in\n    tag_17:\n      stop\n        /* \"contracts/AirlineBookingSystem.sol\":303:342  mapping (uint => Flight) public flights */\n    tag_4:\n      callvalue\n      dup1\n      iszero\n      tag_21\n      jumpi\n      0x00\n      dup1\n      revert\n    tag_21:\n      pop\n      tag_22\n      0x04\n      dup1\n      calldatasize\n      sub\n      dup2\n      add\n      swap1\n      tag_23\n      swap2\n      swap1\n      tag_24\n      jump\t// in\n    tag_23:\n      tag_25\n      jump\t// in\n    tag_22:\n      mload(0x40)\n      tag_26\n      swap5\n      swap4\n      swap3\n      swap2\n      swap1\n      tag_27\n      jump\t// in\n    tag_26:\n      mload(0x40)\n      dup1\n      swap2\n      sub\n      swap1\n      return\n        /* \"contracts/AirlineBookingSystem.sol\":3208:3824  function getFlightDetails(uint _flightId) public view returns (string memory destination, uint price, uint bookedSeatsAvailable) {... */\n    tag_5:\n      callvalue\n      dup1\n      iszero\n      tag_28\n      jumpi\n      0x00\n      dup1\n      revert\n    tag_28:\n      pop\n      tag_29\n      0x04\n      dup1\n      calldatasize\n      sub\n      dup2\n      add\n      swap1\n      tag_30\n      swap2\n      swap1\n      tag_24\n      jump\t// in\n    tag_30:\n      tag_31\n      jump\t// in\n    tag_29:\n      mload(0x40)\n      tag_32\n      swap4\n      swap3\n      swap2\n      swap1\n      tag_33\n      jump\t// in\n    tag_32:\n      mload(0x40)\n      dup1\n      swap2\n      sub\n      swap1\n      return\n        /* \"contracts/AirlineBookingSystem.sol\":349:372  uint public flightCount */\n    tag_6:\n      callvalue\n      dup1\n      iszero\n      tag_34\n      jumpi\n      0x00\n      dup1\n      revert\n    tag_34:\n      pop\n      tag_35\n      tag_36\n      jump\t// in\n    tag_35:\n      mload(0x40)\n      tag_37\n      swap2\n      swap1\n      tag_38\n      jump\t// in\n    tag_37:\n      mload(0x40)\n      dup1\n      swap2\n      sub\n      swap1\n      return\n        /* \"contracts/AirlineBookingSystem.sol\":1753:2686  function cancelBooking(uint _flightId, uint _numberOfSeats) public payable {... */\n    tag_7:\n      tag_39\n      0x04\n      dup1\n      calldatasize\n      sub\n      dup2\n      add\n      swap1\n      tag_40\n      swap2\n      swap1\n      tag_19\n      jump\t// in\n    tag_40:\n      tag_41\n      jump\t// in\n    tag_39:\n      stop\n        /* \"contracts/AirlineBookingSystem.sol\":2783:3117  function withdrawBalance() public onlyOwner {... */\n    tag_8:\n      callvalue\n      dup1\n      iszero\n      tag_42\n      jumpi\n      0x00\n      dup1\n      revert\n    tag_42:\n      pop\n      tag_43\n      tag_44\n      jump\t// in\n    tag_43:\n      stop\n        /* \"contracts/AirlineBookingSystem.sol\":113:133  address public owner */\n    tag_9:\n      callvalue\n      dup1\n      iszero\n      tag_45\n      jumpi\n      0x00\n      dup1\n      revert\n    tag_45:\n      pop\n      tag_46\n      tag_47\n      jump\t// in\n    tag_46:\n      mload(0x40)\n      tag_48\n      swap2\n      swap1\n      tag_49\n      jump\t// in\n    tag_48:\n      mload(0x40)\n      dup1\n      swap2\n      sub\n      swap1\n      return\n        /* \"contracts/AirlineBookingSystem.sol\":140:164  uint public ownerBalance */\n    tag_10:\n      callvalue\n      dup1\n      iszero\n      tag_50\n      jumpi\n      0x00\n      dup1\n      revert\n    tag_50:\n      pop\n      tag_51\n      tag_52\n      jump\t// in\n    tag_51:\n      mload(0x40)\n      tag_53\n      swap2\n      swap1\n      tag_38\n      jump\t// in\n    tag_53:\n      mload(0x40)\n      dup1\n      swap2\n      sub\n      swap1\n      return\n        /* \"contracts/AirlineBookingSystem.sol\":887:1167  function addFlight(string memory _destination, uint _price, uint _totalSeats) public onlyOwner {... */\n    tag_16:\n        /* \"contracts/AirlineBookingSystem.sol\":758:763  owner */\n      0x00\n      dup1\n      sload\n      swap1\n      0x0100\n      exp\n      swap1\n      div\n      0xffffffffffffffffffffffffffffffffffffffff\n      and\n        /* \"contracts/AirlineBookingSystem.sol\":744:763  msg.sender == owner */\n      0xffffffffffffffffffffffffffffffffffffffff\n      and\n        /* \"contracts/AirlineBookingSystem.sol\":744:754  msg.sender */\n      caller\n        /* \"contracts/AirlineBookingSystem.sol\":744:763  msg.sender == owner */\n      0xffffffffffffffffffffffffffffffffffffffff\n      and\n      eq\n        /* \"contracts/AirlineBookingSystem.sol\":736:802  require(msg.sender == owner, \"Only Owner can perform this action\") */\n      tag_55\n      jumpi\n      mload(0x40)\n      0x08c379a000000000000000000000000000000000000000000000000000000000\n      dup2\n      mstore\n      0x04\n      add\n      tag_56\n      swap1\n      tag_57\n      jump\t// in\n    tag_56:\n      mload(0x40)\n      dup1\n      swap2\n      sub\n      swap1\n      revert\n    tag_55:\n        /* \"contracts/AirlineBookingSystem.sol\":1016:1060  Flight(_destination, _price, _totalSeats, 0) */\n      mload(0x40)\n      dup1\n      0x80\n      add\n      0x40\n      mstore\n      dup1\n        /* \"contracts/AirlineBookingSystem.sol\":1023:1035  _destination */\n      dup5\n        /* \"contracts/AirlineBookingSystem.sol\":1016:1060  Flight(_destination, _price, _totalSeats, 0) */\n      dup2\n      mstore\n      0x20\n      add\n        /* \"contracts/AirlineBookingSystem.sol\":1037:1043  _price */\n      dup4\n        /* \"contracts/AirlineBookingSystem.sol\":1016:1060  Flight(_destination, _price, _totalSeats, 0) */\n      dup2\n      mstore\n      0x20\n      add\n        /* \"contracts/AirlineBookingSystem.sol\":1045:1056  _totalSeats */\n      dup3\n        /* \"contracts/AirlineBookingSystem.sol\":1016:1060  Flight(_destination, _price, _totalSeats, 0) */\n      dup2\n      mstore\n      0x20\n      add\n        /* \"contracts/AirlineBookingSystem.sol\":1058:1059  0 */\n      0x00\n        /* \"contracts/AirlineBookingSystem.sol\":1016:1060  Flight(_destination, _price, _totalSeats, 0) */\n      dup2\n      mstore\n      pop\n        /* \"contracts/AirlineBookingSystem.sol\":993:1000  flights */\n      0x02\n        /* \"contracts/AirlineBookingSystem.sol\":993:1013  flights[flightCount] */\n      0x00\n        /* \"contracts/AirlineBookingSystem.sol\":1001:1012  flightCount */\n      sload(0x03)\n        /* \"contracts/AirlineBookingSystem.sol\":993:1013  flights[flightCount] */\n      dup2\n      mstore\n      0x20\n      add\n      swap1\n      dup2\n      mstore\n      0x20\n      add\n      0x00\n      keccak256\n        /* \"contracts/AirlineBookingSystem.sol\":993:1060  flights[flightCount] = Flight(_destination, _price, _totalSeats, 0) */\n      0x00\n      dup3\n      add\n      mload\n      dup2\n      0x00\n      add\n      swap1\n      dup2\n      tag_59\n      swap2\n      swap1\n      tag_60\n      jump\t// in\n    tag_59:\n      pop\n      0x20\n      dup3\n      add\n      mload\n      dup2\n      0x01\n      add\n      sstore\n      0x40\n      dup3\n      add\n      mload\n      dup2\n      0x02\n      add\n      sstore\n      0x60\n      dup3\n      add\n      mload\n      dup2\n      0x03\n      add\n      sstore\n      swap1\n      pop\n      pop\n        /* \"contracts/AirlineBookingSystem.sol\":1076:1135  FlightAdded(flightCount, _destination, _price, _totalSeats) */\n      0xc4ee57698cf470e237e4b6249a9cc3fad4f8c861d71b20b0734fc7a217747d8e\n        /* \"contracts/AirlineBookingSystem.sol\":1088:1099  flightCount */\n      sload(0x03)\n        /* \"contracts/AirlineBookingSystem.sol\":1101:1113  _destination */\n      dup5\n        /* \"contracts/AirlineBookingSystem.sol\":1115:1121  _price */\n      dup5\n        /* \"contracts/AirlineBookingSystem.sol\":1123:1134  _totalSeats */\n      dup5\n        /* \"contracts/AirlineBookingSystem.sol\":1076:1135  FlightAdded(flightCount, _destination, _price, _totalSeats) */\n      mload(0x40)\n      tag_61\n      swap5\n      swap4\n      swap3\n      swap2\n      swap1\n      tag_62\n      jump\t// in\n    tag_61:\n      mload(0x40)\n      dup1\n      swap2\n      sub\n      swap1\n      log1\n        /* \"contracts/AirlineBookingSystem.sol\":1146:1157  flightCount */\n      0x03\n      0x00\n        /* \"contracts/AirlineBookingSystem.sol\":1146:1159  flightCount++ */\n      dup2\n      sload\n      dup1\n      swap3\n      swap2\n      swap1\n      tag_63\n      swap1\n      tag_64\n      jump\t// in\n    tag_63:\n      swap2\n      swap1\n      pop\n      sstore\n      pop\n        /* \"contracts/AirlineBookingSystem.sol\":887:1167  function addFlight(string memory _destination, uint _price, uint _totalSeats) public onlyOwner {... */\n      pop\n      pop\n      pop\n      jump\t// out\n        /* \"contracts/AirlineBookingSystem.sol\":1175:1711  function bookFlight(uint _flightId, uint _numberOfSeats) public payable {... */\n    tag_20:\n        /* \"contracts/AirlineBookingSystem.sol\":1278:1289  flightCount */\n      sload(0x03)\n        /* \"contracts/AirlineBookingSystem.sol\":1266:1275  _flightId */\n      dup3\n        /* \"contracts/AirlineBookingSystem.sol\":1266:1289  _flightId < flightCount */\n      lt\n        /* \"contracts/AirlineBookingSystem.sol\":1258:1310  require(_flightId < flightCount, \"Invalid FlightID\") */\n      tag_66\n      jumpi\n      mload(0x40)\n      0x08c379a000000000000000000000000000000000000000000000000000000000\n      dup2\n      mstore\n      0x04\n      add\n      tag_67\n      swap1\n      tag_68\n      jump\t// in\n    tag_67:\n      mload(0x40)\n      dup1\n      swap2\n      sub\n      swap1\n      revert\n    tag_66:\n        /* \"contracts/AirlineBookingSystem.sol\":1321:1342  Flight storage flight */\n      0x00\n        /* \"contracts/AirlineBookingSystem.sol\":1345:1352  flights */\n      0x02\n        /* \"contracts/AirlineBookingSystem.sol\":1345:1363  flights[_flightId] */\n      0x00\n        /* \"contracts/AirlineBookingSystem.sol\":1353:1362  _flightId */\n      dup5\n        /* \"contracts/AirlineBookingSystem.sol\":1345:1363  flights[_flightId] */\n      dup2\n      mstore\n      0x20\n      add\n      swap1\n      dup2\n      mstore\n      0x20\n      add\n      0x00\n      keccak256\n        /* \"contracts/AirlineBookingSystem.sol\":1321:1363  Flight storage flight = flights[_flightId] */\n      swap1\n      pop\n        /* \"contracts/AirlineBookingSystem.sol\":1374:1388  uint totalCost */\n      0x00\n        /* \"contracts/AirlineBookingSystem.sol\":1404:1418  _numberOfSeats */\n      dup3\n        /* \"contracts/AirlineBookingSystem.sol\":1391:1397  flight */\n      dup3\n        /* \"contracts/AirlineBookingSystem.sol\":1391:1403  flight.price */\n      0x01\n      add\n      sload\n        /* \"contracts/AirlineBookingSystem.sol\":1391:1418  flight.price*_numberOfSeats */\n      tag_69\n      swap2\n      swap1\n      tag_70\n      jump\t// in\n    tag_69:\n        /* \"contracts/AirlineBookingSystem.sol\":1374:1418  uint totalCost = flight.price*_numberOfSeats */\n      swap1\n      pop\n        /* \"contracts/AirlineBookingSystem.sol\":1450:1459  totalCost */\n      dup1\n        /* \"contracts/AirlineBookingSystem.sol\":1437:1446  msg.value */\n      callvalue\n        /* \"contracts/AirlineBookingSystem.sol\":1437:1459  msg.value == totalCost */\n      eq\n        /* \"contracts/AirlineBookingSystem.sol\":1429:1488  require(msg.value == totalCost, \"Incorrent payment amount\") */\n      tag_71\n      jumpi\n      mload(0x40)\n      0x08c379a000000000000000000000000000000000000000000000000000000000\n      dup2\n      mstore\n      0x04\n      add\n      tag_72\n      swap1\n      tag_73\n      jump\t// in\n    tag_72:\n      mload(0x40)\n      dup1\n      swap2\n      sub\n      swap1\n      revert\n    tag_71:\n        /* \"contracts/AirlineBookingSystem.sol\":1521:1535  _numberOfSeats */\n      dup3\n        /* \"contracts/AirlineBookingSystem.sol\":1499:1505  flight */\n      dup3\n        /* \"contracts/AirlineBookingSystem.sol\":1499:1517  flight.bookedSeats */\n      0x03\n      add\n      0x00\n        /* \"contracts/AirlineBookingSystem.sol\":1499:1535  flight.bookedSeats += _numberOfSeats */\n      dup3\n      dup3\n      sload\n      tag_74\n      swap2\n      swap1\n      tag_75\n      jump\t// in\n    tag_74:\n      swap3\n      pop\n      pop\n      dup2\n      swap1\n      sstore\n      pop\n        /* \"contracts/AirlineBookingSystem.sol\":1562:1571  msg.value */\n      callvalue\n        /* \"contracts/AirlineBookingSystem.sol\":1546:1558  ownerBalance */\n      0x01\n      0x00\n        /* \"contracts/AirlineBookingSystem.sol\":1546:1571  ownerBalance += msg.value */\n      dup3\n      dup3\n      sload\n      tag_76\n      swap2\n      swap1\n      tag_75\n      jump\t// in\n    tag_76:\n      swap3\n      pop\n      pop\n      dup2\n      swap1\n      sstore\n      pop\n        /* \"contracts/AirlineBookingSystem.sol\":1587:1649  FlightBooked(msg.sender, _flightId, _numberOfSeats, totalCost) */\n      0x81c0944c267e331528c04ddeb7bc78f539d7e04f07b820fd8bfafbd8298b3d48\n        /* \"contracts/AirlineBookingSystem.sol\":1600:1610  msg.sender */\n      caller\n        /* \"contracts/AirlineBookingSystem.sol\":1612:1621  _flightId */\n      dup6\n        /* \"contracts/AirlineBookingSystem.sol\":1623:1637  _numberOfSeats */\n      dup6\n        /* \"contracts/AirlineBookingSystem.sol\":1639:1648  totalCost */\n      dup5\n        /* \"contracts/AirlineBookingSystem.sol\":1587:1649  FlightBooked(msg.sender, _flightId, _numberOfSeats, totalCost) */\n      mload(0x40)\n      tag_77\n      swap5\n      swap4\n      swap3\n      swap2\n      swap1\n      tag_78\n      jump\t// in\n    tag_77:\n      mload(0x40)\n      dup1\n      swap2\n      sub\n      swap1\n      log1\n        /* \"contracts/AirlineBookingSystem.sol\":1665:1703  PaymentReceived(msg.sender, msg.value) */\n      0x6ef95f06320e7a25a04a175ca677b7052bdd97131872c2192525a629f51be770\n        /* \"contracts/AirlineBookingSystem.sol\":1681:1691  msg.sender */\n      caller\n        /* \"contracts/AirlineBookingSystem.sol\":1693:1702  msg.value */\n      callvalue\n        /* \"contracts/AirlineBookingSystem.sol\":1665:1703  PaymentReceived(msg.sender, msg.value) */\n      mload(0x40)\n      tag_79\n      swap3\n      swap2\n      swap1\n      tag_80\n      jump\t// in\n    tag_79:\n      mload(0x40)\n      dup1\n      swap2\n      sub\n      swap1\n      log1\n        /* \"contracts/AirlineBookingSystem.sol\":1247:1711  {... */\n      pop\n      pop\n        /* \"contracts/AirlineBookingSystem.sol\":1175:1711  function bookFlight(uint _flightId, uint _numberOfSeats) public payable {... */\n      pop\n      pop\n      jump\t// out\n        /* \"contracts/AirlineBookingSystem.sol\":303:342  mapping (uint => Flight) public flights */\n    tag_25:\n      mstore(0x20, 0x02)\n      dup1\n      0x00\n      mstore\n      keccak256(0x00, 0x40)\n      0x00\n      swap2\n      pop\n      swap1\n      pop\n      dup1\n      0x00\n      add\n      dup1\n      sload\n      tag_81\n      swap1\n      tag_82\n      jump\t// in\n    tag_81:\n      dup1\n      0x1f\n      add\n      0x20\n      dup1\n      swap2\n      div\n      mul\n      0x20\n      add\n      mload(0x40)\n      swap1\n      dup2\n      add\n      0x40\n      mstore\n      dup1\n      swap3\n      swap2\n      swap1\n      dup2\n      dup2\n      mstore\n      0x20\n      add\n      dup3\n      dup1\n      sload\n      tag_83\n      swap1\n      tag_82\n      jump\t// in\n    tag_83:\n      dup1\n      iszero\n      tag_84\n      jumpi\n      dup1\n      0x1f\n      lt\n      tag_85\n      jumpi\n      0x0100\n      dup1\n      dup4\n      sload\n      div\n      mul\n      dup4\n      mstore\n      swap2\n      0x20\n      add\n      swap2\n      jump(tag_84)\n    tag_85:\n      dup3\n      add\n      swap2\n      swap1\n      0x00\n      mstore\n      keccak256(0x00, 0x20)\n      swap1\n    tag_86:\n      dup2\n      sload\n      dup2\n      mstore\n      swap1\n      0x01\n      add\n      swap1\n      0x20\n      add\n      dup1\n      dup4\n      gt\n      tag_86\n      jumpi\n      dup3\n      swap1\n      sub\n      0x1f\n      and\n      dup3\n      add\n      swap2\n    tag_84:\n      pop\n      pop\n      pop\n      pop\n      pop\n      swap1\n      dup1\n      0x01\n      add\n      sload\n      swap1\n      dup1\n      0x02\n      add\n      sload\n      swap1\n      dup1\n      0x03\n      add\n      sload\n      swap1\n      pop\n      dup5\n      jump\t// out\n        /* \"contracts/AirlineBookingSystem.sol\":3208:3824  function getFlightDetails(uint _flightId) public view returns (string memory destination, uint price, uint bookedSeatsAvailable) {... */\n    tag_31:\n        /* \"contracts/AirlineBookingSystem.sol\":3271:3296  string memory destination */\n      0x60\n        /* \"contracts/AirlineBookingSystem.sol\":3298:3308  uint price */\n      0x00\n        /* \"contracts/AirlineBookingSystem.sol\":3310:3335  uint bookedSeatsAvailable */\n      dup1\n        /* \"contracts/AirlineBookingSystem.sol\":3368:3379  flightCount */\n      sload(0x03)\n        /* \"contracts/AirlineBookingSystem.sol\":3356:3365  _flightId */\n      dup5\n        /* \"contracts/AirlineBookingSystem.sol\":3356:3379  _flightId < flightCount */\n      lt\n        /* \"contracts/AirlineBookingSystem.sol\":3348:3402  require(_flightId < flightCount, \"Invalid flight ID.\") */\n      tag_88\n      jumpi\n      mload(0x40)\n      0x08c379a000000000000000000000000000000000000000000000000000000000\n      dup2\n      mstore\n      0x04\n      add\n      tag_89\n      swap1\n      tag_90\n      jump\t// in\n    tag_89:\n      mload(0x40)\n      dup1\n      swap2\n      sub\n      swap1\n      revert\n    tag_88:\n        /* \"contracts/AirlineBookingSystem.sol\":3448:3468  Flight memory flight */\n      0x00\n        /* \"contracts/AirlineBookingSystem.sol\":3471:3478  flights */\n      0x02\n        /* \"contracts/AirlineBookingSystem.sol\":3471:3489  flights[_flightId] */\n      0x00\n        /* \"contracts/AirlineBookingSystem.sol\":3479:3488  _flightId */\n      dup7\n        /* \"contracts/AirlineBookingSystem.sol\":3471:3489  flights[_flightId] */\n      dup2\n      mstore\n      0x20\n      add\n      swap1\n      dup2\n      mstore\n      0x20\n      add\n      0x00\n      keccak256\n        /* \"contracts/AirlineBookingSystem.sol\":3448:3489  Flight memory flight = flights[_flightId] */\n      mload(0x40)\n      dup1\n      0x80\n      add\n      0x40\n      mstore\n      swap1\n      dup2\n      0x00\n      dup3\n      add\n      dup1\n      sload\n      tag_91\n      swap1\n      tag_82\n      jump\t// in\n    tag_91:\n      dup1\n      0x1f\n      add\n      0x20\n      dup1\n      swap2\n      div\n      mul\n      0x20\n      add\n      mload(0x40)\n      swap1\n      dup2\n      add\n      0x40\n      mstore\n      dup1\n      swap3\n      swap2\n      swap1\n      dup2\n      dup2\n      mstore\n      0x20\n      add\n      dup3\n      dup1\n      sload\n      tag_92\n      swap1\n      tag_82\n      jump\t// in\n    tag_92:\n      dup1\n      iszero\n      tag_93\n      jumpi\n      dup1\n      0x1f\n      lt\n      tag_94\n      jumpi\n      0x0100\n      dup1\n      dup4\n      sload\n      div\n      mul\n      dup4\n      mstore\n      swap2\n      0x20\n      add\n      swap2\n      jump(tag_93)\n    tag_94:\n      dup3\n      add\n      swap2\n      swap1\n      0x00\n      mstore\n      keccak256(0x00, 0x20)\n      swap1\n    tag_95:\n      dup2\n      sload\n      dup2\n      mstore\n      swap1\n      0x01\n      add\n      swap1\n      0x20\n      add\n      dup1\n      dup4\n      gt\n      tag_95\n      jumpi\n      dup3\n      swap1\n      sub\n      0x1f\n      and\n      dup3\n      add\n      swap2\n    tag_93:\n      pop\n      pop\n      pop\n      pop\n      pop\n      dup2\n      mstore\n      0x20\n      add\n      0x01\n      dup3\n      add\n      sload\n      dup2\n      mstore\n      0x20\n      add\n      0x02\n      dup3\n      add\n      sload\n      dup2\n      mstore\n      0x20\n      add\n      0x03\n      dup3\n      add\n      sload\n      dup2\n      mstore\n      pop\n      pop\n      swap1\n      pop\n        /* \"contracts/AirlineBookingSystem.sol\":3545:3564  uint availableSeats */\n      0x00\n        /* \"contracts/AirlineBookingSystem.sol\":3587:3593  flight */\n      dup2\n        /* \"contracts/AirlineBookingSystem.sol\":3587:3605  flight.bookedSeats */\n      0x60\n      add\n      mload\n        /* \"contracts/AirlineBookingSystem.sol\":3567:3573  flight */\n      dup3\n        /* \"contracts/AirlineBookingSystem.sol\":3567:3584  flight.totalSeats */\n      0x40\n      add\n      mload\n        /* \"contracts/AirlineBookingSystem.sol\":3567:3605  flight.totalSeats - flight.bookedSeats */\n      tag_96\n      swap2\n      swap1\n      tag_97\n      jump\t// in\n    tag_96:\n        /* \"contracts/AirlineBookingSystem.sol\":3545:3605  uint availableSeats = flight.totalSeats - flight.bookedSeats */\n      swap1\n      pop\n        /* \"contracts/AirlineBookingSystem.sol\":3704:3710  flight */\n      dup2\n        /* \"contracts/AirlineBookingSystem.sol\":3704:3722  flight.destination */\n      0x00\n      add\n      mload\n        /* \"contracts/AirlineBookingSystem.sol\":3724:3730  flight */\n      dup3\n        /* \"contracts/AirlineBookingSystem.sol\":3724:3736  flight.price */\n      0x20\n      add\n      mload\n        /* \"contracts/AirlineBookingSystem.sol\":3738:3752  availableSeats */\n      dup3\n        /* \"contracts/AirlineBookingSystem.sol\":3696:3753  return (flight.destination, flight.price, availableSeats) */\n      swap5\n      pop\n      swap5\n      pop\n      swap5\n      pop\n      pop\n      pop\n        /* \"contracts/AirlineBookingSystem.sol\":3208:3824  function getFlightDetails(uint _flightId) public view returns (string memory destination, uint price, uint bookedSeatsAvailable) {... */\n      swap2\n      swap4\n      swap1\n      swap3\n      pop\n      jump\t// out\n        /* \"contracts/AirlineBookingSystem.sol\":349:372  uint public flightCount */\n    tag_36:\n      sload(0x03)\n      dup2\n      jump\t// out\n        /* \"contracts/AirlineBookingSystem.sol\":1753:2686  function cancelBooking(uint _flightId, uint _numberOfSeats) public payable {... */\n    tag_41:\n        /* \"contracts/AirlineBookingSystem.sol\":1855:1866  flightCount */\n      sload(0x03)\n        /* \"contracts/AirlineBookingSystem.sol\":1843:1852  _flightId */\n      dup3\n        /* \"contracts/AirlineBookingSystem.sol\":1843:1866  _flightId < flightCount */\n      lt\n        /* \"contracts/AirlineBookingSystem.sol\":1835:1889  require(_flightId < flightCount, \"Invalid flight ID.\") */\n      tag_99\n      jumpi\n      mload(0x40)\n      0x08c379a000000000000000000000000000000000000000000000000000000000\n      dup2\n      mstore\n      0x04\n      add\n      tag_100\n      swap1\n      tag_90\n      jump\t// in\n    tag_100:\n      mload(0x40)\n      dup1\n      swap2\n      sub\n      swap1\n      revert\n    tag_99:\n        /* \"contracts/AirlineBookingSystem.sol\":1896:1917  Flight storage flight */\n      0x00\n        /* \"contracts/AirlineBookingSystem.sol\":1920:1927  flights */\n      0x02\n        /* \"contracts/AirlineBookingSystem.sol\":1920:1938  flights[_flightId] */\n      0x00\n        /* \"contracts/AirlineBookingSystem.sol\":1928:1937  _flightId */\n      dup5\n        /* \"contracts/AirlineBookingSystem.sol\":1920:1938  flights[_flightId] */\n      dup2\n      mstore\n      0x20\n      add\n      swap1\n      dup2\n      mstore\n      0x20\n      add\n      0x00\n      keccak256\n        /* \"contracts/AirlineBookingSystem.sol\":1896:1938  Flight storage flight = flights[_flightId] */\n      swap1\n      pop\n        /* \"contracts/AirlineBookingSystem.sol\":1975:1989  _numberOfSeats */\n      dup2\n        /* \"contracts/AirlineBookingSystem.sol\":1953:1959  flight */\n      dup2\n        /* \"contracts/AirlineBookingSystem.sol\":1953:1971  flight.bookedSeats */\n      0x03\n      add\n      sload\n        /* \"contracts/AirlineBookingSystem.sol\":1953:1989  flight.bookedSeats >= _numberOfSeats */\n      lt\n      iszero\n        /* \"contracts/AirlineBookingSystem.sol\":1945:2018  require(flight.bookedSeats >= _numberOfSeats, \"Not enough seats booked.\") */\n      tag_101\n      jumpi\n      mload(0x40)\n      0x08c379a000000000000000000000000000000000000000000000000000000000\n      dup2\n      mstore\n      0x04\n      add\n      tag_102\n      swap1\n      tag_103\n      jump\t// in\n    tag_102:\n      mload(0x40)\n      dup1\n      swap2\n      sub\n      swap1\n      revert\n    tag_101:\n        /* \"contracts/AirlineBookingSystem.sol\":2027:2044  uint refundAmount */\n      0x00\n        /* \"contracts/AirlineBookingSystem.sol\":2062:2076  _numberOfSeats */\n      dup3\n        /* \"contracts/AirlineBookingSystem.sol\":2047:2053  flight */\n      dup3\n        /* \"contracts/AirlineBookingSystem.sol\":2047:2059  flight.price */\n      0x01\n      add\n      sload\n        /* \"contracts/AirlineBookingSystem.sol\":2047:2076  flight.price * _numberOfSeats */\n      tag_104\n      swap2\n      swap1\n      tag_70\n      jump\t// in\n    tag_104:\n        /* \"contracts/AirlineBookingSystem.sol\":2027:2076  uint refundAmount = flight.price * _numberOfSeats */\n      swap1\n      pop\n        /* \"contracts/AirlineBookingSystem.sol\":2197:2209  refundAmount */\n      dup1\n        /* \"contracts/AirlineBookingSystem.sol\":2181:2193  ownerBalance */\n      sload(0x01)\n        /* \"contracts/AirlineBookingSystem.sol\":2181:2209  ownerBalance >= refundAmount */\n      lt\n      iszero\n        /* \"contracts/AirlineBookingSystem.sol\":2173:2255  require(ownerBalance >= refundAmount, \"Not enough balance in contract to refund.\") */\n      tag_105\n      jumpi\n      mload(0x40)\n      0x08c379a000000000000000000000000000000000000000000000000000000000\n      dup2\n      mstore\n      0x04\n      add\n      tag_106\n      swap1\n      tag_107\n      jump\t// in\n    tag_106:\n      mload(0x40)\n      dup1\n      swap2\n      sub\n      swap1\n      revert\n    tag_105:\n        /* \"contracts/AirlineBookingSystem.sol\":2300:2310  msg.sender */\n      caller\n        /* \"contracts/AirlineBookingSystem.sol\":2292:2320  payable(msg.sender).transfer */\n      0xffffffffffffffffffffffffffffffffffffffff\n      and\n        /* \"contracts/AirlineBookingSystem.sol\":2292:2334  payable(msg.sender).transfer(refundAmount) */\n      0x08fc\n        /* \"contracts/AirlineBookingSystem.sol\":2321:2333  refundAmount */\n      dup3\n        /* \"contracts/AirlineBookingSystem.sol\":2292:2334  payable(msg.sender).transfer(refundAmount) */\n      swap1\n      dup2\n      iszero\n      mul\n      swap1\n      mload(0x40)\n      0x00\n      mload(0x40)\n      dup1\n      dup4\n      sub\n      dup2\n      dup6\n      dup9\n      dup9\n      call\n      swap4\n      pop\n      pop\n      pop\n      pop\n      iszero\n      dup1\n      iszero\n      tag_109\n      jumpi\n      returndatasize\n      0x00\n      dup1\n      returndatacopy\n      revert(0x00, returndatasize)\n    tag_109:\n      pop\n        /* \"contracts/AirlineBookingSystem.sol\":2443:2457  _numberOfSeats */\n      dup3\n        /* \"contracts/AirlineBookingSystem.sol\":2421:2427  flight */\n      dup3\n        /* \"contracts/AirlineBookingSystem.sol\":2421:2439  flight.bookedSeats */\n      0x03\n      add\n      0x00\n        /* \"contracts/AirlineBookingSystem.sol\":2421:2457  flight.bookedSeats -= _numberOfSeats */\n      dup3\n      dup3\n      sload\n      tag_110\n      swap2\n      swap1\n      tag_97\n      jump\t// in\n    tag_110:\n      swap3\n      pop\n      pop\n      dup2\n      swap1\n      sstore\n      pop\n        /* \"contracts/AirlineBookingSystem.sol\":2521:2533  refundAmount */\n      dup1\n        /* \"contracts/AirlineBookingSystem.sol\":2505:2517  ownerBalance */\n      0x01\n      0x00\n        /* \"contracts/AirlineBookingSystem.sol\":2505:2533  ownerBalance -= refundAmount */\n      dup3\n      dup3\n      sload\n      tag_111\n      swap2\n      swap1\n      tag_97\n      jump\t// in\n    tag_111:\n      swap3\n      pop\n      pop\n      dup2\n      swap1\n      sstore\n      pop\n        /* \"contracts/AirlineBookingSystem.sol\":2604:2656  FlightCancelled(msg.sender, _flightId, refundAmount) */\n      0x8095a07203cd91318ff59af834d6d3f52b1d5441437bd19da41303e89494ad27\n        /* \"contracts/AirlineBookingSystem.sol\":2620:2630  msg.sender */\n      caller\n        /* \"contracts/AirlineBookingSystem.sol\":2632:2641  _flightId */\n      dup6\n        /* \"contracts/AirlineBookingSystem.sol\":2643:2655  refundAmount */\n      dup4\n        /* \"contracts/AirlineBookingSystem.sol\":2604:2656  FlightCancelled(msg.sender, _flightId, refundAmount) */\n      mload(0x40)\n      tag_112\n      swap4\n      swap3\n      swap2\n      swap1\n      tag_113\n      jump\t// in\n    tag_112:\n      mload(0x40)\n      dup1\n      swap2\n      sub\n      swap1\n      log1\n        /* \"contracts/AirlineBookingSystem.sol\":1828:2686  {... */\n      pop\n      pop\n        /* \"contracts/AirlineBookingSystem.sol\":1753:2686  function cancelBooking(uint _flightId, uint _numberOfSeats) public payable {... */\n      pop\n      pop\n      jump\t// out\n        /* \"contracts/AirlineBookingSystem.sol\":2783:3117  function withdrawBalance() public onlyOwner {... */\n    tag_44:\n        /* \"contracts/AirlineBookingSystem.sol\":758:763  owner */\n      0x00\n      dup1\n      sload\n      swap1\n      0x0100\n      exp\n      swap1\n      div\n      0xffffffffffffffffffffffffffffffffffffffff\n      and\n        /* \"contracts/AirlineBookingSystem.sol\":744:763  msg.sender == owner */\n      0xffffffffffffffffffffffffffffffffffffffff\n      and\n        /* \"contracts/AirlineBookingSystem.sol\":744:754  msg.sender */\n      caller\n        /* \"contracts/AirlineBookingSystem.sol\":744:763  msg.sender == owner */\n      0xffffffffffffffffffffffffffffffffffffffff\n      and\n      eq\n        /* \"contracts/AirlineBookingSystem.sol\":736:802  require(msg.sender == owner, \"Only Owner can perform this action\") */\n      tag_115\n      jumpi\n      mload(0x40)\n      0x08c379a000000000000000000000000000000000000000000000000000000000\n      dup2\n      mstore\n      0x04\n      add\n      tag_116\n      swap1\n      tag_57\n      jump\t// in\n    tag_116:\n      mload(0x40)\n      dup1\n      swap2\n      sub\n      swap1\n      revert\n    tag_115:\n        /* \"contracts/AirlineBookingSystem.sol\":2838:2849  uint amount */\n      0x00\n        /* \"contracts/AirlineBookingSystem.sol\":2852:2864  ownerBalance */\n      sload(0x01)\n        /* \"contracts/AirlineBookingSystem.sol\":2838:2864  uint amount = ownerBalance */\n      swap1\n      pop\n        /* \"contracts/AirlineBookingSystem.sol\":2939:2940  0 */\n      0x00\n        /* \"contracts/AirlineBookingSystem.sol\":2924:2936  ownerBalance */\n      0x01\n        /* \"contracts/AirlineBookingSystem.sol\":2924:2940  ownerBalance = 0 */\n      dup2\n      swap1\n      sstore\n      pop\n        /* \"contracts/AirlineBookingSystem.sol\":3015:3020  owner */\n      0x00\n      dup1\n      sload\n      swap1\n      0x0100\n      exp\n      swap1\n      div\n      0xffffffffffffffffffffffffffffffffffffffff\n      and\n        /* \"contracts/AirlineBookingSystem.sol\":3007:3030  payable(owner).transfer */\n      0xffffffffffffffffffffffffffffffffffffffff\n      and\n        /* \"contracts/AirlineBookingSystem.sol\":3007:3038  payable(owner).transfer(amount) */\n      0x08fc\n        /* \"contracts/AirlineBookingSystem.sol\":3031:3037  amount */\n      dup3\n        /* \"contracts/AirlineBookingSystem.sol\":3007:3038  payable(owner).transfer(amount) */\n      swap1\n      dup2\n      iszero\n      mul\n      swap1\n      mload(0x40)\n      0x00\n      mload(0x40)\n      dup1\n      dup4\n      sub\n      dup2\n      dup6\n      dup9\n      dup9\n      call\n      swap4\n      pop\n      pop\n      pop\n      pop\n      iszero\n      dup1\n      iszero\n      tag_119\n      jumpi\n      returndatasize\n      0x00\n      dup1\n      returndatacopy\n      revert(0x00, returndatasize)\n    tag_119:\n      pop\n        /* \"contracts/AirlineBookingSystem.sol\":2827:3117  {... */\n      pop\n        /* \"contracts/AirlineBookingSystem.sol\":2783:3117  function withdrawBalance() public onlyOwner {... */\n      jump\t// out\n        /* \"contracts/AirlineBookingSystem.sol\":113:133  address public owner */\n    tag_47:\n      0x00\n      dup1\n      sload\n      swap1\n      0x0100\n      exp\n      swap1\n      div\n      0xffffffffffffffffffffffffffffffffffffffff\n      and\n      dup2\n      jump\t// out\n        /* \"contracts/AirlineBookingSystem.sol\":140:164  uint public ownerBalance */\n    tag_52:\n      sload(0x01)\n      dup2\n      jump\t// out\n        /* \"#utility.yul\":7:82   */\n    tag_120:\n        /* \"#utility.yul\":40:46   */\n      0x00\n        /* \"#utility.yul\":73:75   */\n      0x40\n        /* \"#utility.yul\":67:76   */\n      mload\n        /* \"#utility.yul\":57:76   */\n      swap1\n      pop\n        /* \"#utility.yul\":7:82   */\n      swap1\n      jump\t// out\n        /* \"#utility.yul\":88:205   */\n    tag_121:\n        /* \"#utility.yul\":197:198   */\n      0x00\n        /* \"#utility.yul\":194:195   */\n      dup1\n        /* \"#utility.yul\":187:199   */\n      revert\n        /* \"#utility.yul\":211:328   */\n    tag_122:\n        /* \"#utility.yul\":320:321   */\n      0x00\n        /* \"#utility.yul\":317:318   */\n      dup1\n        /* \"#utility.yul\":310:322   */\n      revert\n        /* \"#utility.yul\":334:451   */\n    tag_123:\n        /* \"#utility.yul\":443:444   */\n      0x00\n        /* \"#utility.yul\":440:441   */\n      dup1\n        /* \"#utility.yul\":433:445   */\n      revert\n        /* \"#utility.yul\":457:574   */\n    tag_124:\n        /* \"#utility.yul\":566:567   */\n      0x00\n        /* \"#utility.yul\":563:564   */\n      dup1\n        /* \"#utility.yul\":556:568   */\n      revert\n        /* \"#utility.yul\":580:682   */\n    tag_125:\n        /* \"#utility.yul\":621:627   */\n      0x00\n        /* \"#utility.yul\":672:674   */\n      0x1f\n        /* \"#utility.yul\":668:675   */\n      not\n        /* \"#utility.yul\":663:665   */\n      0x1f\n        /* \"#utility.yul\":656:661   */\n      dup4\n        /* \"#utility.yul\":652:666   */\n      add\n        /* \"#utility.yul\":648:676   */\n      and\n        /* \"#utility.yul\":638:676   */\n      swap1\n      pop\n        /* \"#utility.yul\":580:682   */\n      swap2\n      swap1\n      pop\n      jump\t// out\n        /* \"#utility.yul\":688:868   */\n    tag_126:\n        /* \"#utility.yul\":736:813   */\n      0x4e487b7100000000000000000000000000000000000000000000000000000000\n        /* \"#utility.yul\":733:734   */\n      0x00\n        /* \"#utility.yul\":726:814   */\n      mstore\n        /* \"#utility.yul\":833:837   */\n      0x41\n        /* \"#utility.yul\":830:831   */\n      0x04\n        /* \"#utility.yul\":823:838   */\n      mstore\n        /* \"#utility.yul\":857:861   */\n      0x24\n        /* \"#utility.yul\":854:855   */\n      0x00\n        /* \"#utility.yul\":847:862   */\n      revert\n        /* \"#utility.yul\":874:1155   */\n    tag_127:\n        /* \"#utility.yul\":957:984   */\n      tag_182\n        /* \"#utility.yul\":979:983   */\n      dup3\n        /* \"#utility.yul\":957:984   */\n      tag_125\n      jump\t// in\n    tag_182:\n        /* \"#utility.yul\":949:955   */\n      dup2\n        /* \"#utility.yul\":945:985   */\n      add\n        /* \"#utility.yul\":1087:1093   */\n      dup2\n        /* \"#utility.yul\":1075:1085   */\n      dup2\n        /* \"#utility.yul\":1072:1094   */\n      lt\n        /* \"#utility.yul\":1051:1069   */\n      0xffffffffffffffff\n        /* \"#utility.yul\":1039:1049   */\n      dup3\n        /* \"#utility.yul\":1036:1070   */\n      gt\n        /* \"#utility.yul\":1033:1095   */\n      or\n        /* \"#utility.yul\":1030:1118   */\n      iszero\n      tag_183\n      jumpi\n        /* \"#utility.yul\":1098:1116   */\n      tag_184\n      tag_126\n      jump\t// in\n    tag_184:\n        /* \"#utility.yul\":1030:1118   */\n    tag_183:\n        /* \"#utility.yul\":1138:1148   */\n      dup1\n        /* \"#utility.yul\":1134:1136   */\n      0x40\n        /* \"#utility.yul\":1127:1149   */\n      mstore\n        /* \"#utility.yul\":917:1155   */\n      pop\n        /* \"#utility.yul\":874:1155   */\n      pop\n      pop\n      jump\t// out\n        /* \"#utility.yul\":1161:1290   */\n    tag_128:\n        /* \"#utility.yul\":1195:1201   */\n      0x00\n        /* \"#utility.yul\":1222:1242   */\n      tag_186\n      tag_120\n      jump\t// in\n    tag_186:\n        /* \"#utility.yul\":1212:1242   */\n      swap1\n      pop\n        /* \"#utility.yul\":1251:1284   */\n      tag_187\n        /* \"#utility.yul\":1279:1283   */\n      dup3\n        /* \"#utility.yul\":1271:1277   */\n      dup3\n        /* \"#utility.yul\":1251:1284   */\n      tag_127\n      jump\t// in\n    tag_187:\n        /* \"#utility.yul\":1161:1290   */\n      swap2\n      swap1\n      pop\n      jump\t// out\n        /* \"#utility.yul\":1296:1604   */\n    tag_129:\n        /* \"#utility.yul\":1358:1362   */\n      0x00\n        /* \"#utility.yul\":1448:1466   */\n      0xffffffffffffffff\n        /* \"#utility.yul\":1440:1446   */\n      dup3\n        /* \"#utility.yul\":1437:1467   */\n      gt\n        /* \"#utility.yul\":1434:1490   */\n      iszero\n      tag_189\n      jumpi\n        /* \"#utility.yul\":1470:1488   */\n      tag_190\n      tag_126\n      jump\t// in\n    tag_190:\n        /* \"#utility.yul\":1434:1490   */\n    tag_189:\n        /* \"#utility.yul\":1508:1537   */\n      tag_191\n        /* \"#utility.yul\":1530:1536   */\n      dup3\n        /* \"#utility.yul\":1508:1537   */\n      tag_125\n      jump\t// in\n    tag_191:\n        /* \"#utility.yul\":1500:1537   */\n      swap1\n      pop\n        /* \"#utility.yul\":1592:1596   */\n      0x20\n        /* \"#utility.yul\":1586:1590   */\n      dup2\n        /* \"#utility.yul\":1582:1597   */\n      add\n        /* \"#utility.yul\":1574:1597   */\n      swap1\n      pop\n        /* \"#utility.yul\":1296:1604   */\n      swap2\n      swap1\n      pop\n      jump\t// out\n        /* \"#utility.yul\":1610:1758   */\n    tag_130:\n        /* \"#utility.yul\":1708:1714   */\n      dup3\n        /* \"#utility.yul\":1703:1706   */\n      dup2\n        /* \"#utility.yul\":1698:1701   */\n      dup4\n        /* \"#utility.yul\":1685:1715   */\n      calldatacopy\n        /* \"#utility.yul\":1749:1750   */\n      0x00\n        /* \"#utility.yul\":1740:1746   */\n      dup4\n        /* \"#utility.yul\":1735:1738   */\n      dup4\n        /* \"#utility.yul\":1731:1747   */\n      add\n        /* \"#utility.yul\":1724:1751   */\n      mstore\n        /* \"#utility.yul\":1610:1758   */\n      pop\n      pop\n      pop\n      jump\t// out\n        /* \"#utility.yul\":1764:2189   */\n    tag_131:\n        /* \"#utility.yul\":1842:1847   */\n      0x00\n        /* \"#utility.yul\":1867:1933   */\n      tag_194\n        /* \"#utility.yul\":1883:1932   */\n      tag_195\n        /* \"#utility.yul\":1925:1931   */\n      dup5\n        /* \"#utility.yul\":1883:1932   */\n      tag_129\n      jump\t// in\n    tag_195:\n        /* \"#utility.yul\":1867:1933   */\n      tag_128\n      jump\t// in\n    tag_194:\n        /* \"#utility.yul\":1858:1933   */\n      swap1\n      pop\n        /* \"#utility.yul\":1956:1962   */\n      dup3\n        /* \"#utility.yul\":1949:1954   */\n      dup2\n        /* \"#utility.yul\":1942:1963   */\n      mstore\n        /* \"#utility.yul\":1994:1998   */\n      0x20\n        /* \"#utility.yul\":1987:1992   */\n      dup2\n        /* \"#utility.yul\":1983:1999   */\n      add\n        /* \"#utility.yul\":2032:2035   */\n      dup5\n        /* \"#utility.yul\":2023:2029   */\n      dup5\n        /* \"#utility.yul\":2018:2021   */\n      dup5\n        /* \"#utility.yul\":2014:2030   */\n      add\n        /* \"#utility.yul\":2011:2036   */\n      gt\n        /* \"#utility.yul\":2008:2120   */\n      iszero\n      tag_196\n      jumpi\n        /* \"#utility.yul\":2039:2118   */\n      tag_197\n      tag_124\n      jump\t// in\n    tag_197:\n        /* \"#utility.yul\":2008:2120   */\n    tag_196:\n        /* \"#utility.yul\":2129:2183   */\n      tag_198\n        /* \"#utility.yul\":2176:2182   */\n      dup5\n        /* \"#utility.yul\":2171:2174   */\n      dup3\n        /* \"#utility.yul\":2166:2169   */\n      dup6\n        /* \"#utility.yul\":2129:2183   */\n      tag_130\n      jump\t// in\n    tag_198:\n        /* \"#utility.yul\":1848:2189   */\n      pop\n        /* \"#utility.yul\":1764:2189   */\n      swap4\n      swap3\n      pop\n      pop\n      pop\n      jump\t// out\n        /* \"#utility.yul\":2209:2549   */\n    tag_132:\n        /* \"#utility.yul\":2265:2270   */\n      0x00\n        /* \"#utility.yul\":2314:2317   */\n      dup3\n        /* \"#utility.yul\":2307:2311   */\n      0x1f\n        /* \"#utility.yul\":2299:2305   */\n      dup4\n        /* \"#utility.yul\":2295:2312   */\n      add\n        /* \"#utility.yul\":2291:2318   */\n      slt\n        /* \"#utility.yul\":2281:2403   */\n      tag_200\n      jumpi\n        /* \"#utility.yul\":2322:2401   */\n      tag_201\n      tag_123\n      jump\t// in\n    tag_201:\n        /* \"#utility.yul\":2281:2403   */\n    tag_200:\n        /* \"#utility.yul\":2439:2445   */\n      dup2\n        /* \"#utility.yul\":2426:2446   */\n      calldataload\n        /* \"#utility.yul\":2464:2543   */\n      tag_202\n        /* \"#utility.yul\":2539:2542   */\n      dup5\n        /* \"#utility.yul\":2531:2537   */\n      dup3\n        /* \"#utility.yul\":2524:2528   */\n      0x20\n        /* \"#utility.yul\":2516:2522   */\n      dup7\n        /* \"#utility.yul\":2512:2529   */\n      add\n        /* \"#utility.yul\":2464:2543   */\n      tag_131\n      jump\t// in\n    tag_202:\n        /* \"#utility.yul\":2455:2543   */\n      swap2\n      pop\n        /* \"#utility.yul\":2271:2549   */\n      pop\n        /* \"#utility.yul\":2209:2549   */\n      swap3\n      swap2\n      pop\n      pop\n      jump\t// out\n        /* \"#utility.yul\":2555:2632   */\n    tag_133:\n        /* \"#utility.yul\":2592:2599   */\n      0x00\n        /* \"#utility.yul\":2621:2626   */\n      dup2\n        /* \"#utility.yul\":2610:2626   */\n      swap1\n      pop\n        /* \"#utility.yul\":2555:2632   */\n      swap2\n      swap1\n      pop\n      jump\t// out\n        /* \"#utility.yul\":2638:2760   */\n    tag_134:\n        /* \"#utility.yul\":2711:2735   */\n      tag_205\n        /* \"#utility.yul\":2729:2734   */\n      dup2\n        /* \"#utility.yul\":2711:2735   */\n      tag_133\n      jump\t// in\n    tag_205:\n        /* \"#utility.yul\":2704:2709   */\n      dup2\n        /* \"#utility.yul\":2701:2736   */\n      eq\n        /* \"#utility.yul\":2691:2754   */\n      tag_206\n      jumpi\n        /* \"#utility.yul\":2750:2751   */\n      0x00\n        /* \"#utility.yul\":2747:2748   */\n      dup1\n        /* \"#utility.yul\":2740:2752   */\n      revert\n        /* \"#utility.yul\":2691:2754   */\n    tag_206:\n        /* \"#utility.yul\":2638:2760   */\n      pop\n      jump\t// out\n        /* \"#utility.yul\":2766:2905   */\n    tag_135:\n        /* \"#utility.yul\":2812:2817   */\n      0x00\n        /* \"#utility.yul\":2850:2856   */\n      dup2\n        /* \"#utility.yul\":2837:2857   */\n      calldataload\n        /* \"#utility.yul\":2828:2857   */\n      swap1\n      pop\n        /* \"#utility.yul\":2866:2899   */\n      tag_208\n        /* \"#utility.yul\":2893:2898   */\n      dup2\n        /* \"#utility.yul\":2866:2899   */\n      tag_134\n      jump\t// in\n    tag_208:\n        /* \"#utility.yul\":2766:2905   */\n      swap3\n      swap2\n      pop\n      pop\n      jump\t// out\n        /* \"#utility.yul\":2911:3710   */\n    tag_15:\n        /* \"#utility.yul\":2998:3004   */\n      0x00\n        /* \"#utility.yul\":3006:3012   */\n      dup1\n        /* \"#utility.yul\":3014:3020   */\n      0x00\n        /* \"#utility.yul\":3063:3065   */\n      0x60\n        /* \"#utility.yul\":3051:3060   */\n      dup5\n        /* \"#utility.yul\":3042:3049   */\n      dup7\n        /* \"#utility.yul\":3038:3061   */\n      sub\n        /* \"#utility.yul\":3034:3066   */\n      slt\n        /* \"#utility.yul\":3031:3150   */\n      iszero\n      tag_210\n      jumpi\n        /* \"#utility.yul\":3069:3148   */\n      tag_211\n      tag_121\n      jump\t// in\n    tag_211:\n        /* \"#utility.yul\":3031:3150   */\n    tag_210:\n        /* \"#utility.yul\":3217:3218   */\n      0x00\n        /* \"#utility.yul\":3206:3215   */\n      dup5\n        /* \"#utility.yul\":3202:3219   */\n      add\n        /* \"#utility.yul\":3189:3220   */\n      calldataload\n        /* \"#utility.yul\":3247:3265   */\n      0xffffffffffffffff\n        /* \"#utility.yul\":3239:3245   */\n      dup2\n        /* \"#utility.yul\":3236:3266   */\n      gt\n        /* \"#utility.yul\":3233:3350   */\n      iszero\n      tag_212\n      jumpi\n        /* \"#utility.yul\":3269:3348   */\n      tag_213\n      tag_122\n      jump\t// in\n    tag_213:\n        /* \"#utility.yul\":3233:3350   */\n    tag_212:\n        /* \"#utility.yul\":3374:3437   */\n      tag_214\n        /* \"#utility.yul\":3429:3436   */\n      dup7\n        /* \"#utility.yul\":3420:3426   */\n      dup3\n        /* \"#utility.yul\":3409:3418   */\n      dup8\n        /* \"#utility.yul\":3405:3427   */\n      add\n        /* \"#utility.yul\":3374:3437   */\n      tag_132\n      jump\t// in\n    tag_214:\n        /* \"#utility.yul\":3364:3437   */\n      swap4\n      pop\n        /* \"#utility.yul\":3160:3447   */\n      pop\n        /* \"#utility.yul\":3486:3488   */\n      0x20\n        /* \"#utility.yul\":3512:3565   */\n      tag_215\n        /* \"#utility.yul\":3557:3564   */\n      dup7\n        /* \"#utility.yul\":3548:3554   */\n      dup3\n        /* \"#utility.yul\":3537:3546   */\n      dup8\n        /* \"#utility.yul\":3533:3555   */\n      add\n        /* \"#utility.yul\":3512:3565   */\n      tag_135\n      jump\t// in\n    tag_215:\n        /* \"#utility.yul\":3502:3565   */\n      swap3\n      pop\n        /* \"#utility.yul\":3457:3575   */\n      pop\n        /* \"#utility.yul\":3614:3616   */\n      0x40\n        /* \"#utility.yul\":3640:3693   */\n      tag_216\n        /* \"#utility.yul\":3685:3692   */\n      dup7\n        /* \"#utility.yul\":3676:3682   */\n      dup3\n        /* \"#utility.yul\":3665:3674   */\n      dup8\n        /* \"#utility.yul\":3661:3683   */\n      add\n        /* \"#utility.yul\":3640:3693   */\n      tag_135\n      jump\t// in\n    tag_216:\n        /* \"#utility.yul\":3630:3693   */\n      swap2\n      pop\n        /* \"#utility.yul\":3585:3703   */\n      pop\n        /* \"#utility.yul\":2911:3710   */\n      swap3\n      pop\n      swap3\n      pop\n      swap3\n      jump\t// out\n        /* \"#utility.yul\":3716:4190   */\n    tag_19:\n        /* \"#utility.yul\":3784:3790   */\n      0x00\n        /* \"#utility.yul\":3792:3798   */\n      dup1\n        /* \"#utility.yul\":3841:3843   */\n      0x40\n        /* \"#utility.yul\":3829:3838   */\n      dup4\n        /* \"#utility.yul\":3820:3827   */\n      dup6\n        /* \"#utility.yul\":3816:3839   */\n      sub\n        /* \"#utility.yul\":3812:3844   */\n      slt\n        /* \"#utility.yul\":3809:3928   */\n      iszero\n      tag_218\n      jumpi\n        /* \"#utility.yul\":3847:3926   */\n      tag_219\n      tag_121\n      jump\t// in\n    tag_219:\n        /* \"#utility.yul\":3809:3928   */\n    tag_218:\n        /* \"#utility.yul\":3967:3968   */\n      0x00\n        /* \"#utility.yul\":3992:4045   */\n      tag_220\n        /* \"#utility.yul\":4037:4044   */\n      dup6\n        /* \"#utility.yul\":4028:4034   */\n      dup3\n        /* \"#utility.yul\":4017:4026   */\n      dup7\n        /* \"#utility.yul\":4013:4035   */\n      add\n        /* \"#utility.yul\":3992:4045   */\n      tag_135\n      jump\t// in\n    tag_220:\n        /* \"#utility.yul\":3982:4045   */\n      swap3\n      pop\n        /* \"#utility.yul\":3938:4055   */\n      pop\n        /* \"#utility.yul\":4094:4096   */\n      0x20\n        /* \"#utility.yul\":4120:4173   */\n      tag_221\n        /* \"#utility.yul\":4165:4172   */\n      dup6\n        /* \"#utility.yul\":4156:4162   */\n      dup3\n        /* \"#utility.yul\":4145:4154   */\n      dup7\n        /* \"#utility.yul\":4141:4163   */\n      add\n        /* \"#utility.yul\":4120:4173   */\n      tag_135\n      jump\t// in\n    tag_221:\n        /* \"#utility.yul\":4110:4173   */\n      swap2\n      pop\n        /* \"#utility.yul\":4065:4183   */\n      pop\n        /* \"#utility.yul\":3716:4190   */\n      swap3\n      pop\n      swap3\n      swap1\n      pop\n      jump\t// out\n        /* \"#utility.yul\":4196:4525   */\n    tag_24:\n        /* \"#utility.yul\":4255:4261   */\n      0x00\n        /* \"#utility.yul\":4304:4306   */\n      0x20\n        /* \"#utility.yul\":4292:4301   */\n      dup3\n        /* \"#utility.yul\":4283:4290   */\n      dup5\n        /* \"#utility.yul\":4279:4302   */\n      sub\n        /* \"#utility.yul\":4275:4307   */\n      slt\n        /* \"#utility.yul\":4272:4391   */\n      iszero\n      tag_223\n      jumpi\n        /* \"#utility.yul\":4310:4389   */\n      tag_224\n      tag_121\n      jump\t// in\n    tag_224:\n        /* \"#utility.yul\":4272:4391   */\n    tag_223:\n        /* \"#utility.yul\":4430:4431   */\n      0x00\n        /* \"#utility.yul\":4455:4508   */\n      tag_225\n        /* \"#utility.yul\":4500:4507   */\n      dup5\n        /* \"#utility.yul\":4491:4497   */\n      dup3\n        /* \"#utility.yul\":4480:4489   */\n      dup6\n        /* \"#utility.yul\":4476:4498   */\n      add\n        /* \"#utility.yul\":4455:4508   */\n      tag_135\n      jump\t// in\n    tag_225:\n        /* \"#utility.yul\":4445:4508   */\n      swap2\n      pop\n        /* \"#utility.yul\":4401:4518   */\n      pop\n        /* \"#utility.yul\":4196:4525   */\n      swap3\n      swap2\n      pop\n      pop\n      jump\t// out\n        /* \"#utility.yul\":4531:4630   */\n    tag_136:\n        /* \"#utility.yul\":4583:4589   */\n      0x00\n        /* \"#utility.yul\":4617:4622   */\n      dup2\n        /* \"#utility.yul\":4611:4623   */\n      mload\n        /* \"#utility.yul\":4601:4623   */\n      swap1\n      pop\n        /* \"#utility.yul\":4531:4630   */\n      swap2\n      swap1\n      pop\n      jump\t// out\n        /* \"#utility.yul\":4636:4805   */\n    tag_137:\n        /* \"#utility.yul\":4720:4731   */\n      0x00\n        /* \"#utility.yul\":4754:4760   */\n      dup3\n        /* \"#utility.yul\":4749:4752   */\n      dup3\n        /* \"#utility.yul\":4742:4761   */\n      mstore\n        /* \"#utility.yul\":4794:4798   */\n      0x20\n        /* \"#utility.yul\":4789:4792   */\n      dup3\n        /* \"#utility.yul\":4785:4799   */\n      add\n        /* \"#utility.yul\":4770:4799   */\n      swap1\n      pop\n        /* \"#utility.yul\":4636:4805   */\n      swap3\n      swap2\n      pop\n      pop\n      jump\t// out\n        /* \"#utility.yul\":4811:4950   */\n    tag_138:\n        /* \"#utility.yul\":4900:4906   */\n      dup3\n        /* \"#utility.yul\":4895:4898   */\n      dup2\n        /* \"#utility.yul\":4890:4893   */\n      dup4\n        /* \"#utility.yul\":4884:4907   */\n      mcopy\n        /* \"#utility.yul\":4941:4942   */\n      0x00\n        /* \"#utility.yul\":4932:4938   */\n      dup4\n        /* \"#utility.yul\":4927:4930   */\n      dup4\n        /* \"#utility.yul\":4923:4939   */\n      add\n        /* \"#utility.yul\":4916:4943   */\n      mstore\n        /* \"#utility.yul\":4811:4950   */\n      pop\n      pop\n      pop\n      jump\t// out\n        /* \"#utility.yul\":4956:5333   */\n    tag_139:\n        /* \"#utility.yul\":5044:5047   */\n      0x00\n        /* \"#utility.yul\":5072:5111   */\n      tag_230\n        /* \"#utility.yul\":5105:5110   */\n      dup3\n        /* \"#utility.yul\":5072:5111   */\n      tag_136\n      jump\t// in\n    tag_230:\n        /* \"#utility.yul\":5127:5198   */\n      tag_231\n        /* \"#utility.yul\":5191:5197   */\n      dup2\n        /* \"#utility.yul\":5186:5189   */\n      dup6\n        /* \"#utility.yul\":5127:5198   */\n      tag_137\n      jump\t// in\n    tag_231:\n        /* \"#utility.yul\":5120:5198   */\n      swap4\n      pop\n        /* \"#utility.yul\":5207:5272   */\n      tag_232\n        /* \"#utility.yul\":5265:5271   */\n      dup2\n        /* \"#utility.yul\":5260:5263   */\n      dup6\n        /* \"#utility.yul\":5253:5257   */\n      0x20\n        /* \"#utility.yul\":5246:5251   */\n      dup7\n        /* \"#utility.yul\":5242:5258   */\n      add\n        /* \"#utility.yul\":5207:5272   */\n      tag_138\n      jump\t// in\n    tag_232:\n        /* \"#utility.yul\":5297:5326   */\n      tag_233\n        /* \"#utility.yul\":5319:5325   */\n      dup2\n        /* \"#utility.yul\":5297:5326   */\n      tag_125\n      jump\t// in\n    tag_233:\n        /* \"#utility.yul\":5292:5295   */\n      dup5\n        /* \"#utility.yul\":5288:5327   */\n      add\n        /* \"#utility.yul\":5281:5327   */\n      swap2\n      pop\n        /* \"#utility.yul\":5048:5333   */\n      pop\n        /* \"#utility.yul\":4956:5333   */\n      swap3\n      swap2\n      pop\n      pop\n      jump\t// out\n        /* \"#utility.yul\":5339:5457   */\n    tag_140:\n        /* \"#utility.yul\":5426:5450   */\n      tag_235\n        /* \"#utility.yul\":5444:5449   */\n      dup2\n        /* \"#utility.yul\":5426:5450   */\n      tag_133\n      jump\t// in\n    tag_235:\n        /* \"#utility.yul\":5421:5424   */\n      dup3\n        /* \"#utility.yul\":5414:5451   */\n      mstore\n        /* \"#utility.yul\":5339:5457   */\n      pop\n      pop\n      jump\t// out\n        /* \"#utility.yul\":5463:6107   */\n    tag_27:\n        /* \"#utility.yul\":5660:5664   */\n      0x00\n        /* \"#utility.yul\":5698:5701   */\n      0x80\n        /* \"#utility.yul\":5687:5696   */\n      dup3\n        /* \"#utility.yul\":5683:5702   */\n      add\n        /* \"#utility.yul\":5675:5702   */\n      swap1\n      pop\n        /* \"#utility.yul\":5748:5757   */\n      dup2\n        /* \"#utility.yul\":5742:5746   */\n      dup2\n        /* \"#utility.yul\":5738:5758   */\n      sub\n        /* \"#utility.yul\":5734:5735   */\n      0x00\n        /* \"#utility.yul\":5723:5732   */\n      dup4\n        /* \"#utility.yul\":5719:5736   */\n      add\n        /* \"#utility.yul\":5712:5759   */\n      mstore\n        /* \"#utility.yul\":5776:5854   */\n      tag_237\n        /* \"#utility.yul\":5849:5853   */\n      dup2\n        /* \"#utility.yul\":5840:5846   */\n      dup8\n        /* \"#utility.yul\":5776:5854   */\n      tag_139\n      jump\t// in\n    tag_237:\n        /* \"#utility.yul\":5768:5854   */\n      swap1\n      pop\n        /* \"#utility.yul\":5864:5936   */\n      tag_238\n        /* \"#utility.yul\":5932:5934   */\n      0x20\n        /* \"#utility.yul\":5921:5930   */\n      dup4\n        /* \"#utility.yul\":5917:5935   */\n      add\n        /* \"#utility.yul\":5908:5914   */\n      dup7\n        /* \"#utility.yul\":5864:5936   */\n      tag_140\n      jump\t// in\n    tag_238:\n        /* \"#utility.yul\":5946:6018   */\n      tag_239\n        /* \"#utility.yul\":6014:6016   */\n      0x40\n        /* \"#utility.yul\":6003:6012   */\n      dup4\n        /* \"#utility.yul\":5999:6017   */\n      add\n        /* \"#utility.yul\":5990:5996   */\n      dup6\n        /* \"#utility.yul\":5946:6018   */\n      tag_140\n      jump\t// in\n    tag_239:\n        /* \"#utility.yul\":6028:6100   */\n      tag_240\n        /* \"#utility.yul\":6096:6098   */\n      0x60\n        /* \"#utility.yul\":6085:6094   */\n      dup4\n        /* \"#utility.yul\":6081:6099   */\n      add\n        /* \"#utility.yul\":6072:6078   */\n      dup5\n        /* \"#utility.yul\":6028:6100   */\n      tag_140\n      jump\t// in\n    tag_240:\n        /* \"#utility.yul\":5463:6107   */\n      swap6\n      swap5\n      pop\n      pop\n      pop\n      pop\n      pop\n      jump\t// out\n        /* \"#utility.yul\":6113:6646   */\n    tag_33:\n        /* \"#utility.yul\":6282:6286   */\n      0x00\n        /* \"#utility.yul\":6320:6322   */\n      0x60\n        /* \"#utility.yul\":6309:6318   */\n      dup3\n        /* \"#utility.yul\":6305:6323   */\n      add\n        /* \"#utility.yul\":6297:6323   */\n      swap1\n      pop\n        /* \"#utility.yul\":6369:6378   */\n      dup2\n        /* \"#utility.yul\":6363:6367   */\n      dup2\n        /* \"#utility.yul\":6359:6379   */\n      sub\n        /* \"#utility.yul\":6355:6356   */\n      0x00\n        /* \"#utility.yul\":6344:6353   */\n      dup4\n        /* \"#utility.yul\":6340:6357   */\n      add\n        /* \"#utility.yul\":6333:6380   */\n      mstore\n        /* \"#utility.yul\":6397:6475   */\n      tag_242\n        /* \"#utility.yul\":6470:6474   */\n      dup2\n        /* \"#utility.yul\":6461:6467   */\n      dup7\n        /* \"#utility.yul\":6397:6475   */\n      tag_139\n      jump\t// in\n    tag_242:\n        /* \"#utility.yul\":6389:6475   */\n      swap1\n      pop\n        /* \"#utility.yul\":6485:6557   */\n      tag_243\n        /* \"#utility.yul\":6553:6555   */\n      0x20\n        /* \"#utility.yul\":6542:6551   */\n      dup4\n        /* \"#utility.yul\":6538:6556   */\n      add\n        /* \"#utility.yul\":6529:6535   */\n      dup6\n        /* \"#utility.yul\":6485:6557   */\n      tag_140\n      jump\t// in\n    tag_243:\n        /* \"#utility.yul\":6567:6639   */\n      tag_244\n        /* \"#utility.yul\":6635:6637   */\n      0x40\n        /* \"#utility.yul\":6624:6633   */\n      dup4\n        /* \"#utility.yul\":6620:6638   */\n      add\n        /* \"#utility.yul\":6611:6617   */\n      dup5\n        /* \"#utility.yul\":6567:6639   */\n      tag_140\n      jump\t// in\n    tag_244:\n        /* \"#utility.yul\":6113:6646   */\n      swap5\n      swap4\n      pop\n      pop\n      pop\n      pop\n      jump\t// out\n        /* \"#utility.yul\":6652:6874   */\n    tag_38:\n        /* \"#utility.yul\":6745:6749   */\n      0x00\n        /* \"#utility.yul\":6783:6785   */\n      0x20\n        /* \"#utility.yul\":6772:6781   */\n      dup3\n        /* \"#utility.yul\":6768:6786   */\n      add\n        /* \"#utility.yul\":6760:6786   */\n      swap1\n      pop\n        /* \"#utility.yul\":6796:6867   */\n      tag_246\n        /* \"#utility.yul\":6864:6865   */\n      0x00\n        /* \"#utility.yul\":6853:6862   */\n      dup4\n        /* \"#utility.yul\":6849:6866   */\n      add\n        /* \"#utility.yul\":6840:6846   */\n      dup5\n        /* \"#utility.yul\":6796:6867   */\n      tag_140\n      jump\t// in\n    tag_246:\n        /* \"#utility.yul\":6652:6874   */\n      swap3\n      swap2\n      pop\n      pop\n      jump\t// out\n        /* \"#utility.yul\":6880:7006   */\n    tag_141:\n        /* \"#utility.yul\":6917:6924   */\n      0x00\n        /* \"#utility.yul\":6957:6999   */\n      0xffffffffffffffffffffffffffffffffffffffff\n        /* \"#utility.yul\":6950:6955   */\n      dup3\n        /* \"#utility.yul\":6946:7000   */\n      and\n        /* \"#utility.yul\":6935:7000   */\n      swap1\n      pop\n        /* \"#utility.yul\":6880:7006   */\n      swap2\n      swap1\n      pop\n      jump\t// out\n        /* \"#utility.yul\":7012:7108   */\n    tag_142:\n        /* \"#utility.yul\":7049:7056   */\n      0x00\n        /* \"#utility.yul\":7078:7102   */\n      tag_249\n        /* \"#utility.yul\":7096:7101   */\n      dup3\n        /* \"#utility.yul\":7078:7102   */\n      tag_141\n      jump\t// in\n    tag_249:\n        /* \"#utility.yul\":7067:7102   */\n      swap1\n      pop\n        /* \"#utility.yul\":7012:7108   */\n      swap2\n      swap1\n      pop\n      jump\t// out\n        /* \"#utility.yul\":7114:7232   */\n    tag_143:\n        /* \"#utility.yul\":7201:7225   */\n      tag_251\n        /* \"#utility.yul\":7219:7224   */\n      dup2\n        /* \"#utility.yul\":7201:7225   */\n      tag_142\n      jump\t// in\n    tag_251:\n        /* \"#utility.yul\":7196:7199   */\n      dup3\n        /* \"#utility.yul\":7189:7226   */\n      mstore\n        /* \"#utility.yul\":7114:7232   */\n      pop\n      pop\n      jump\t// out\n        /* \"#utility.yul\":7238:7460   */\n    tag_49:\n        /* \"#utility.yul\":7331:7335   */\n      0x00\n        /* \"#utility.yul\":7369:7371   */\n      0x20\n        /* \"#utility.yul\":7358:7367   */\n      dup3\n        /* \"#utility.yul\":7354:7372   */\n      add\n        /* \"#utility.yul\":7346:7372   */\n      swap1\n      pop\n        /* \"#utility.yul\":7382:7453   */\n      tag_253\n        /* \"#utility.yul\":7450:7451   */\n      0x00\n        /* \"#utility.yul\":7439:7448   */\n      dup4\n        /* \"#utility.yul\":7435:7452   */\n      add\n        /* \"#utility.yul\":7426:7432   */\n      dup5\n        /* \"#utility.yul\":7382:7453   */\n      tag_143\n      jump\t// in\n    tag_253:\n        /* \"#utility.yul\":7238:7460   */\n      swap3\n      swap2\n      pop\n      pop\n      jump\t// out\n        /* \"#utility.yul\":7466:7687   */\n    tag_144:\n        /* \"#utility.yul\":7606:7640   */\n      0x4f6e6c79204f776e65722063616e20706572666f726d20746869732061637469\n        /* \"#utility.yul\":7602:7603   */\n      0x00\n        /* \"#utility.yul\":7594:7600   */\n      dup3\n        /* \"#utility.yul\":7590:7604   */\n      add\n        /* \"#utility.yul\":7583:7641   */\n      mstore\n        /* \"#utility.yul\":7675:7679   */\n      0x6f6e000000000000000000000000000000000000000000000000000000000000\n        /* \"#utility.yul\":7670:7672   */\n      0x20\n        /* \"#utility.yul\":7662:7668   */\n      dup3\n        /* \"#utility.yul\":7658:7673   */\n      add\n        /* \"#utility.yul\":7651:7680   */\n      mstore\n        /* \"#utility.yul\":7466:7687   */\n      pop\n      jump\t// out\n        /* \"#utility.yul\":7693:8059   */\n    tag_145:\n        /* \"#utility.yul\":7835:7838   */\n      0x00\n        /* \"#utility.yul\":7856:7923   */\n      tag_256\n        /* \"#utility.yul\":7920:7922   */\n      0x22\n        /* \"#utility.yul\":7915:7918   */\n      dup4\n        /* \"#utility.yul\":7856:7923   */\n      tag_137\n      jump\t// in\n    tag_256:\n        /* \"#utility.yul\":7849:7923   */\n      swap2\n      pop\n        /* \"#utility.yul\":7932:8025   */\n      tag_257\n        /* \"#utility.yul\":8021:8024   */\n      dup3\n        /* \"#utility.yul\":7932:8025   */\n      tag_144\n      jump\t// in\n    tag_257:\n        /* \"#utility.yul\":8050:8052   */\n      0x40\n        /* \"#utility.yul\":8045:8048   */\n      dup3\n        /* \"#utility.yul\":8041:8053   */\n      add\n        /* \"#utility.yul\":8034:8053   */\n      swap1\n      pop\n        /* \"#utility.yul\":7693:8059   */\n      swap2\n      swap1\n      pop\n      jump\t// out\n        /* \"#utility.yul\":8065:8484   */\n    tag_57:\n        /* \"#utility.yul\":8231:8235   */\n      0x00\n        /* \"#utility.yul\":8269:8271   */\n      0x20\n        /* \"#utility.yul\":8258:8267   */\n      dup3\n        /* \"#utility.yul\":8254:8272   */\n      add\n        /* \"#utility.yul\":8246:8272   */\n      swap1\n      pop\n        /* \"#utility.yul\":8318:8327   */\n      dup2\n        /* \"#utility.yul\":8312:8316   */\n      dup2\n        /* \"#utility.yul\":8308:8328   */\n      sub\n        /* \"#utility.yul\":8304:8305   */\n      0x00\n        /* \"#utility.yul\":8293:8302   */\n      dup4\n        /* \"#utility.yul\":8289:8306   */\n      add\n        /* \"#utility.yul\":8282:8329   */\n      mstore\n        /* \"#utility.yul\":8346:8477   */\n      tag_259\n        /* \"#utility.yul\":8472:8476   */\n      dup2\n        /* \"#utility.yul\":8346:8477   */\n      tag_145\n      jump\t// in\n    tag_259:\n        /* \"#utility.yul\":8338:8477   */\n      swap1\n      pop\n        /* \"#utility.yul\":8065:8484   */\n      swap2\n      swap1\n      pop\n      jump\t// out\n        /* \"#utility.yul\":8490:8670   */\n    tag_146:\n        /* \"#utility.yul\":8538:8615   */\n      0x4e487b7100000000000000000000000000000000000000000000000000000000\n        /* \"#utility.yul\":8535:8536   */\n      0x00\n        /* \"#utility.yul\":8528:8616   */\n      mstore\n        /* \"#utility.yul\":8635:8639   */\n      0x22\n        /* \"#utility.yul\":8632:8633   */\n      0x04\n        /* \"#utility.yul\":8625:8640   */\n      mstore\n        /* \"#utility.yul\":8659:8663   */\n      0x24\n        /* \"#utility.yul\":8656:8657   */\n      0x00\n        /* \"#utility.yul\":8649:8664   */\n      revert\n        /* \"#utility.yul\":8676:8996   */\n    tag_82:\n        /* \"#utility.yul\":8720:8726   */\n      0x00\n        /* \"#utility.yul\":8757:8758   */\n      0x02\n        /* \"#utility.yul\":8751:8755   */\n      dup3\n        /* \"#utility.yul\":8747:8759   */\n      div\n        /* \"#utility.yul\":8737:8759   */\n      swap1\n      pop\n        /* \"#utility.yul\":8804:8805   */\n      0x01\n        /* \"#utility.yul\":8798:8802   */\n      dup3\n        /* \"#utility.yul\":8794:8806   */\n      and\n        /* \"#utility.yul\":8825:8843   */\n      dup1\n        /* \"#utility.yul\":8815:8896   */\n      tag_262\n      jumpi\n        /* \"#utility.yul\":8881:8885   */\n      0x7f\n        /* \"#utility.yul\":8873:8879   */\n      dup3\n        /* \"#utility.yul\":8869:8886   */\n      and\n        /* \"#utility.yul\":8859:8886   */\n      swap2\n      pop\n        /* \"#utility.yul\":8815:8896   */\n    tag_262:\n        /* \"#utility.yul\":8943:8945   */\n      0x20\n        /* \"#utility.yul\":8935:8941   */\n      dup3\n        /* \"#utility.yul\":8932:8946   */\n      lt\n        /* \"#utility.yul\":8912:8930   */\n      dup2\n        /* \"#utility.yul\":8909:8947   */\n      sub\n        /* \"#utility.yul\":8906:8990   */\n      tag_263\n      jumpi\n        /* \"#utility.yul\":8962:8980   */\n      tag_264\n      tag_146\n      jump\t// in\n    tag_264:\n        /* \"#utility.yul\":8906:8990   */\n    tag_263:\n        /* \"#utility.yul\":8727:8996   */\n      pop\n        /* \"#utility.yul\":8676:8996   */\n      swap2\n      swap1\n      pop\n      jump\t// out\n        /* \"#utility.yul\":9002:9143   */\n    tag_147:\n        /* \"#utility.yul\":9051:9055   */\n      0x00\n        /* \"#utility.yul\":9074:9077   */\n      dup2\n        /* \"#utility.yul\":9066:9077   */\n      swap1\n      pop\n        /* \"#utility.yul\":9097:9100   */\n      dup2\n        /* \"#utility.yul\":9094:9095   */\n      0x00\n        /* \"#utility.yul\":9087:9101   */\n      mstore\n        /* \"#utility.yul\":9131:9135   */\n      0x20\n        /* \"#utility.yul\":9128:9129   */\n      0x00\n        /* \"#utility.yul\":9118:9136   */\n      keccak256\n        /* \"#utility.yul\":9110:9136   */\n      swap1\n      pop\n        /* \"#utility.yul\":9002:9143   */\n      swap2\n      swap1\n      pop\n      jump\t// out\n        /* \"#utility.yul\":9149:9242   */\n    tag_148:\n        /* \"#utility.yul\":9186:9192   */\n      0x00\n        /* \"#utility.yul\":9233:9235   */\n      0x20\n        /* \"#utility.yul\":9228:9230   */\n      0x1f\n        /* \"#utility.yul\":9221:9226   */\n      dup4\n        /* \"#utility.yul\":9217:9231   */\n      add\n        /* \"#utility.yul\":9213:9236   */\n      div\n        /* \"#utility.yul\":9203:9236   */\n      swap1\n      pop\n        /* \"#utility.yul\":9149:9242   */\n      swap2\n      swap1\n      pop\n      jump\t// out\n        /* \"#utility.yul\":9248:9355   */\n    tag_149:\n        /* \"#utility.yul\":9292:9300   */\n      0x00\n        /* \"#utility.yul\":9342:9347   */\n      dup3\n        /* \"#utility.yul\":9336:9340   */\n      dup3\n        /* \"#utility.yul\":9332:9348   */\n      shl\n        /* \"#utility.yul\":9311:9348   */\n      swap1\n      pop\n        /* \"#utility.yul\":9248:9355   */\n      swap3\n      swap2\n      pop\n      pop\n      jump\t// out\n        /* \"#utility.yul\":9361:9754   */\n    tag_150:\n        /* \"#utility.yul\":9430:9436   */\n      0x00\n        /* \"#utility.yul\":9480:9481   */\n      0x08\n        /* \"#utility.yul\":9468:9478   */\n      dup4\n        /* \"#utility.yul\":9464:9482   */\n      mul\n        /* \"#utility.yul\":9503:9600   */\n      tag_269\n        /* \"#utility.yul\":9533:9599   */\n      0xffffffffffffffffffffffffffffffffffffffffffffffffffffffffffffffff\n        /* \"#utility.yul\":9522:9531   */\n      dup3\n        /* \"#utility.yul\":9503:9600   */\n      tag_149\n      jump\t// in\n    tag_269:\n        /* \"#utility.yul\":9621:9660   */\n      tag_270\n        /* \"#utility.yul\":9651:9659   */\n      dup7\n        /* \"#utility.yul\":9640:9649   */\n      dup4\n        /* \"#utility.yul\":9621:9660   */\n      tag_149\n      jump\t// in\n    tag_270:\n        /* \"#utility.yul\":9609:9660   */\n      swap6\n      pop\n        /* \"#utility.yul\":9693:9697   */\n      dup1\n        /* \"#utility.yul\":9689:9698   */\n      not\n        /* \"#utility.yul\":9682:9687   */\n      dup5\n        /* \"#utility.yul\":9678:9699   */\n      and\n        /* \"#utility.yul\":9669:9699   */\n      swap4\n      pop\n        /* \"#utility.yul\":9742:9746   */\n      dup1\n        /* \"#utility.yul\":9732:9740   */\n      dup7\n        /* \"#utility.yul\":9728:9747   */\n      and\n        /* \"#utility.yul\":9721:9726   */\n      dup5\n        /* \"#utility.yul\":9718:9748   */\n      or\n        /* \"#utility.yul\":9708:9748   */\n      swap3\n      pop\n        /* \"#utility.yul\":9437:9754   */\n      pop\n      pop\n        /* \"#utility.yul\":9361:9754   */\n      swap4\n      swap3\n      pop\n      pop\n      pop\n      jump\t// out\n        /* \"#utility.yul\":9760:9820   */\n    tag_151:\n        /* \"#utility.yul\":9788:9791   */\n      0x00\n        /* \"#utility.yul\":9809:9814   */\n      dup2\n        /* \"#utility.yul\":9802:9814   */\n      swap1\n      pop\n        /* \"#utility.yul\":9760:9820   */\n      swap2\n      swap1\n      pop\n      jump\t// out\n        /* \"#utility.yul\":9826:9968   */\n    tag_152:\n        /* \"#utility.yul\":9876:9885   */\n      0x00\n        /* \"#utility.yul\":9909:9962   */\n      tag_273\n        /* \"#utility.yul\":9927:9961   */\n      tag_274\n        /* \"#utility.yul\":9936:9960   */\n      tag_275\n        /* \"#utility.yul\":9954:9959   */\n      dup5\n        /* \"#utility.yul\":9936:9960   */\n      tag_133\n      jump\t// in\n    tag_275:\n        /* \"#utility.yul\":9927:9961   */\n      tag_151\n      jump\t// in\n    tag_274:\n        /* \"#utility.yul\":9909:9962   */\n      tag_133\n      jump\t// in\n    tag_273:\n        /* \"#utility.yul\":9896:9962   */\n      swap1\n      pop\n        /* \"#utility.yul\":9826:9968   */\n      swap2\n      swap1\n      pop\n      jump\t// out\n        /* \"#utility.yul\":9974:10049   */\n    tag_153:\n        /* \"#utility.yul\":10017:10020   */\n      0x00\n        /* \"#utility.yul\":10038:10043   */\n      dup2\n        /* \"#utility.yul\":10031:10043   */\n      swap1\n      pop\n        /* \"#utility.yul\":9974:10049   */\n      swap2\n      swap1\n      pop\n      jump\t// out\n        /* \"#utility.yul\":10055:10324   */\n    tag_154:\n        /* \"#utility.yul\":10165:10204   */\n      tag_278\n        /* \"#utility.yul\":10196:10203   */\n      dup4\n        /* \"#utility.yul\":10165:10204   */\n      tag_152\n      jump\t// in\n    tag_278:\n        /* \"#utility.yul\":10226:10317   */\n      tag_279\n        /* \"#utility.yul\":10275:10316   */\n      tag_280\n        /* \"#utility.yul\":10299:10315   */\n      dup3\n        /* \"#utility.yul\":10275:10316   */\n      tag_153\n      jump\t// in\n    tag_280:\n        /* \"#utility.yul\":10267:10273   */\n      dup5\n        /* \"#utility.yul\":10260:10264   */\n      dup5\n        /* \"#utility.yul\":10254:10265   */\n      sload\n        /* \"#utility.yul\":10226:10317   */\n      tag_150\n      jump\t// in\n    tag_279:\n        /* \"#utility.yul\":10220:10224   */\n      dup3\n        /* \"#utility.yul\":10213:10318   */\n      sstore\n        /* \"#utility.yul\":10131:10324   */\n      pop\n        /* \"#utility.yul\":10055:10324   */\n      pop\n      pop\n      pop\n      jump\t// out\n        /* \"#utility.yul\":10330:10403   */\n    tag_155:\n        /* \"#utility.yul\":10375:10378   */\n      0x00\n        /* \"#utility.yul\":10330:10403   */\n      swap1\n      jump\t// out\n        /* \"#utility.yul\":10409:10598   */\n    tag_156:\n        /* \"#utility.yul\":10486:10518   */\n      tag_283\n      tag_155\n      jump\t// in\n    tag_283:\n        /* \"#utility.yul\":10527:10592   */\n      tag_284\n        /* \"#utility.yul\":10585:10591   */\n      dup2\n        /* \"#utility.yul\":10577:10583   */\n      dup5\n        /* \"#utility.yul\":10571:10575   */\n      dup5\n        /* \"#utility.yul\":10527:10592   */\n      tag_154\n      jump\t// in\n    tag_284:\n        /* \"#utility.yul\":10462:10598   */\n      pop\n        /* \"#utility.yul\":10409:10598   */\n      pop\n      pop\n      jump\t// out\n        /* \"#utility.yul\":10604:10790   */\n    tag_157:\n        /* \"#utility.yul\":10664:10784   */\n    tag_286:\n        /* \"#utility.yul\":10681:10684   */\n      dup2\n        /* \"#utility.yul\":10674:10679   */\n      dup2\n        /* \"#utility.yul\":10671:10685   */\n      lt\n        /* \"#utility.yul\":10664:10784   */\n      iszero\n      tag_288\n      jumpi\n        /* \"#utility.yul\":10735:10774   */\n      tag_289\n        /* \"#utility.yul\":10772:10773   */\n      0x00\n        /* \"#utility.yul\":10765:10770   */\n      dup3\n        /* \"#utility.yul\":10735:10774   */\n      tag_156\n      jump\t// in\n    tag_289:\n        /* \"#utility.yul\":10708:10709   */\n      0x01\n        /* \"#utility.yul\":10701:10706   */\n      dup2\n        /* \"#utility.yul\":10697:10710   */\n      add\n        /* \"#utility.yul\":10688:10710   */\n      swap1\n      pop\n        /* \"#utility.yul\":10664:10784   */\n      jump(tag_286)\n    tag_288:\n        /* \"#utility.yul\":10604:10790   */\n      pop\n      pop\n      jump\t// out\n        /* \"#utility.yul\":10796:11339   */\n    tag_158:\n        /* \"#utility.yul\":10897:10899   */\n      0x1f\n        /* \"#utility.yul\":10892:10895   */\n      dup3\n        /* \"#utility.yul\":10889:10900   */\n      gt\n        /* \"#utility.yul\":10886:11332   */\n      iszero\n      tag_291\n      jumpi\n        /* \"#utility.yul\":10931:10969   */\n      tag_292\n        /* \"#utility.yul\":10963:10968   */\n      dup2\n        /* \"#utility.yul\":10931:10969   */\n      tag_147\n      jump\t// in\n    tag_292:\n        /* \"#utility.yul\":11015:11044   */\n      tag_293\n        /* \"#utility.yul\":11033:11043   */\n      dup5\n        /* \"#utility.yul\":11015:11044   */\n      tag_148\n      jump\t// in\n    tag_293:\n        /* \"#utility.yul\":11005:11013   */\n      dup2\n        /* \"#utility.yul\":11001:11045   */\n      add\n        /* \"#utility.yul\":11198:11200   */\n      0x20\n        /* \"#utility.yul\":11186:11196   */\n      dup6\n        /* \"#utility.yul\":11183:11201   */\n      lt\n        /* \"#utility.yul\":11180:11229   */\n      iszero\n      tag_294\n      jumpi\n        /* \"#utility.yul\":11219:11227   */\n      dup2\n        /* \"#utility.yul\":11204:11227   */\n      swap1\n      pop\n        /* \"#utility.yul\":11180:11229   */\n    tag_294:\n        /* \"#utility.yul\":11242:11322   */\n      tag_295\n        /* \"#utility.yul\":11298:11320   */\n      tag_296\n        /* \"#utility.yul\":11316:11319   */\n      dup6\n        /* \"#utility.yul\":11298:11320   */\n      tag_148\n      jump\t// in\n    tag_296:\n        /* \"#utility.yul\":11288:11296   */\n      dup4\n        /* \"#utility.yul\":11284:11321   */\n      add\n        /* \"#utility.yul\":11271:11282   */\n      dup3\n        /* \"#utility.yul\":11242:11322   */\n      tag_157\n      jump\t// in\n    tag_295:\n        /* \"#utility.yul\":10901:11332   */\n      pop\n      pop\n        /* \"#utility.yul\":10886:11332   */\n    tag_291:\n        /* \"#utility.yul\":10796:11339   */\n      pop\n      pop\n      pop\n      jump\t// out\n        /* \"#utility.yul\":11345:11462   */\n    tag_159:\n        /* \"#utility.yul\":11399:11407   */\n      0x00\n        /* \"#utility.yul\":11449:11454   */\n      dup3\n        /* \"#utility.yul\":11443:11447   */\n      dup3\n        /* \"#utility.yul\":11439:11455   */\n      shr\n        /* \"#utility.yul\":11418:11455   */\n      swap1\n      pop\n        /* \"#utility.yul\":11345:11462   */\n      swap3\n      swap2\n      pop\n      pop\n      jump\t// out\n        /* \"#utility.yul\":11468:11637   */\n    tag_160:\n        /* \"#utility.yul\":11512:11518   */\n      0x00\n        /* \"#utility.yul\":11545:11596   */\n      tag_299\n        /* \"#utility.yul\":11593:11594   */\n      0x00\n        /* \"#utility.yul\":11589:11595   */\n      not\n        /* \"#utility.yul\":11581:11586   */\n      dup5\n        /* \"#utility.yul\":11578:11579   */\n      0x08\n        /* \"#utility.yul\":11574:11587   */\n      mul\n        /* \"#utility.yul\":11545:11596   */\n      tag_159\n      jump\t// in\n    tag_299:\n        /* \"#utility.yul\":11541:11597   */\n      not\n        /* \"#utility.yul\":11626:11630   */\n      dup1\n        /* \"#utility.yul\":11620:11624   */\n      dup4\n        /* \"#utility.yul\":11616:11631   */\n      and\n        /* \"#utility.yul\":11606:11631   */\n      swap2\n      pop\n        /* \"#utility.yul\":11519:11637   */\n      pop\n        /* \"#utility.yul\":11468:11637   */\n      swap3\n      swap2\n      pop\n      pop\n      jump\t// out\n        /* \"#utility.yul\":11642:11937   */\n    tag_161:\n        /* \"#utility.yul\":11718:11722   */\n      0x00\n        /* \"#utility.yul\":11864:11893   */\n      tag_301\n        /* \"#utility.yul\":11889:11892   */\n      dup4\n        /* \"#utility.yul\":11883:11887   */\n      dup4\n        /* \"#utility.yul\":11864:11893   */\n      tag_160\n      jump\t// in\n    tag_301:\n        /* \"#utility.yul\":11856:11893   */\n      swap2\n      pop\n        /* \"#utility.yul\":11926:11929   */\n      dup3\n        /* \"#utility.yul\":11923:11924   */\n      0x02\n        /* \"#utility.yul\":11919:11930   */\n      mul\n        /* \"#utility.yul\":11913:11917   */\n      dup3\n        /* \"#utility.yul\":11910:11931   */\n      or\n        /* \"#utility.yul\":11902:11931   */\n      swap1\n      pop\n        /* \"#utility.yul\":11642:11937   */\n      swap3\n      swap2\n      pop\n      pop\n      jump\t// out\n        /* \"#utility.yul\":11942:13337   */\n    tag_60:\n        /* \"#utility.yul\":12059:12096   */\n      tag_303\n        /* \"#utility.yul\":12092:12095   */\n      dup3\n        /* \"#utility.yul\":12059:12096   */\n      tag_136\n      jump\t// in\n    tag_303:\n        /* \"#utility.yul\":12161:12179   */\n      0xffffffffffffffff\n        /* \"#utility.yul\":12153:12159   */\n      dup2\n        /* \"#utility.yul\":12150:12180   */\n      gt\n        /* \"#utility.yul\":12147:12203   */\n      iszero\n      tag_304\n      jumpi\n        /* \"#utility.yul\":12183:12201   */\n      tag_305\n      tag_126\n      jump\t// in\n    tag_305:\n        /* \"#utility.yul\":12147:12203   */\n    tag_304:\n        /* \"#utility.yul\":12227:12265   */\n      tag_306\n        /* \"#utility.yul\":12259:12263   */\n      dup3\n        /* \"#utility.yul\":12253:12264   */\n      sload\n        /* \"#utility.yul\":12227:12265   */\n      tag_82\n      jump\t// in\n    tag_306:\n        /* \"#utility.yul\":12312:12379   */\n      tag_307\n        /* \"#utility.yul\":12372:12378   */\n      dup3\n        /* \"#utility.yul\":12364:12370   */\n      dup3\n        /* \"#utility.yul\":12358:12362   */\n      dup6\n        /* \"#utility.yul\":12312:12379   */\n      tag_158\n      jump\t// in\n    tag_307:\n        /* \"#utility.yul\":12406:12407   */\n      0x00\n        /* \"#utility.yul\":12430:12434   */\n      0x20\n        /* \"#utility.yul\":12417:12434   */\n      swap1\n      pop\n        /* \"#utility.yul\":12462:12464   */\n      0x1f\n        /* \"#utility.yul\":12454:12460   */\n      dup4\n        /* \"#utility.yul\":12451:12465   */\n      gt\n        /* \"#utility.yul\":12479:12480   */\n      0x01\n        /* \"#utility.yul\":12474:13092   */\n      dup2\n      eq\n      tag_309\n      jumpi\n        /* \"#utility.yul\":13136:13137   */\n      0x00\n        /* \"#utility.yul\":13153:13159   */\n      dup5\n        /* \"#utility.yul\":13150:13227   */\n      iszero\n      tag_310\n      jumpi\n        /* \"#utility.yul\":13202:13211   */\n      dup3\n        /* \"#utility.yul\":13197:13200   */\n      dup8\n        /* \"#utility.yul\":13193:13212   */\n      add\n        /* \"#utility.yul\":13187:13213   */\n      mload\n        /* \"#utility.yul\":13178:13213   */\n      swap1\n      pop\n        /* \"#utility.yul\":13150:13227   */\n    tag_310:\n        /* \"#utility.yul\":13253:13320   */\n      tag_311\n        /* \"#utility.yul\":13313:13319   */\n      dup6\n        /* \"#utility.yul\":13306:13311   */\n      dup3\n        /* \"#utility.yul\":13253:13320   */\n      tag_161\n      jump\t// in\n    tag_311:\n        /* \"#utility.yul\":13247:13251   */\n      dup7\n        /* \"#utility.yul\":13240:13321   */\n      sstore\n        /* \"#utility.yul\":13109:13331   */\n      pop\n        /* \"#utility.yul\":12444:13331   */\n      jump(tag_308)\n        /* \"#utility.yul\":12474:13092   */\n    tag_309:\n        /* \"#utility.yul\":12526:12530   */\n      0x1f\n        /* \"#utility.yul\":12522:12531   */\n      not\n        /* \"#utility.yul\":12514:12520   */\n      dup5\n        /* \"#utility.yul\":12510:12532   */\n      and\n        /* \"#utility.yul\":12560:12597   */\n      tag_312\n        /* \"#utility.yul\":12592:12596   */\n      dup7\n        /* \"#utility.yul\":12560:12597   */\n      tag_147\n      jump\t// in\n    tag_312:\n        /* \"#utility.yul\":12619:12620   */\n      0x00\n        /* \"#utility.yul\":12633:12841   */\n    tag_313:\n        /* \"#utility.yul\":12647:12654   */\n      dup3\n        /* \"#utility.yul\":12644:12645   */\n      dup2\n        /* \"#utility.yul\":12641:12655   */\n      lt\n        /* \"#utility.yul\":12633:12841   */\n      iszero\n      tag_315\n      jumpi\n        /* \"#utility.yul\":12726:12735   */\n      dup5\n        /* \"#utility.yul\":12721:12724   */\n      dup10\n        /* \"#utility.yul\":12717:12736   */\n      add\n        /* \"#utility.yul\":12711:12737   */\n      mload\n        /* \"#utility.yul\":12703:12709   */\n      dup3\n        /* \"#utility.yul\":12696:12738   */\n      sstore\n        /* \"#utility.yul\":12777:12778   */\n      0x01\n        /* \"#utility.yul\":12769:12775   */\n      dup3\n        /* \"#utility.yul\":12765:12779   */\n      add\n        /* \"#utility.yul\":12755:12779   */\n      swap2\n      pop\n        /* \"#utility.yul\":12824:12826   */\n      0x20\n        /* \"#utility.yul\":12813:12822   */\n      dup6\n        /* \"#utility.yul\":12809:12827   */\n      add\n        /* \"#utility.yul\":12796:12827   */\n      swap5\n      pop\n        /* \"#utility.yul\":12670:12674   */\n      0x20\n        /* \"#utility.yul\":12667:12668   */\n      dup2\n        /* \"#utility.yul\":12663:12675   */\n      add\n        /* \"#utility.yul\":12658:12675   */\n      swap1\n      pop\n        /* \"#utility.yul\":12633:12841   */\n      jump(tag_313)\n    tag_315:\n        /* \"#utility.yul\":12869:12875   */\n      dup7\n        /* \"#utility.yul\":12860:12867   */\n      dup4\n        /* \"#utility.yul\":12857:12876   */\n      lt\n        /* \"#utility.yul\":12854:13033   */\n      iszero\n      tag_316\n      jumpi\n        /* \"#utility.yul\":12927:12936   */\n      dup5\n        /* \"#utility.yul\":12922:12925   */\n      dup10\n        /* \"#utility.yul\":12918:12937   */\n      add\n        /* \"#utility.yul\":12912:12938   */\n      mload\n        /* \"#utility.yul\":12970:13018   */\n      tag_317\n        /* \"#utility.yul\":13012:13016   */\n      0x1f\n        /* \"#utility.yul\":13004:13010   */\n      dup10\n        /* \"#utility.yul\":13000:13017   */\n      and\n        /* \"#utility.yul\":12989:12998   */\n      dup3\n        /* \"#utility.yul\":12970:13018   */\n      tag_160\n      jump\t// in\n    tag_317:\n        /* \"#utility.yul\":12962:12968   */\n      dup4\n        /* \"#utility.yul\":12955:13019   */\n      sstore\n        /* \"#utility.yul\":12877:13033   */\n      pop\n        /* \"#utility.yul\":12854:13033   */\n    tag_316:\n        /* \"#utility.yul\":13079:13080   */\n      0x01\n        /* \"#utility.yul\":13075:13076   */\n      0x02\n        /* \"#utility.yul\":13067:13073   */\n      dup9\n        /* \"#utility.yul\":13063:13077   */\n      mul\n        /* \"#utility.yul\":13059:13081   */\n      add\n        /* \"#utility.yul\":13053:13057   */\n      dup9\n        /* \"#utility.yul\":13046:13082   */\n      sstore\n        /* \"#utility.yul\":12481:13092   */\n      pop\n      pop\n      pop\n        /* \"#utility.yul\":12444:13331   */\n    tag_308:\n      pop\n        /* \"#utility.yul\":12034:13337   */\n      pop\n      pop\n      pop\n        /* \"#utility.yul\":11942:13337   */\n      pop\n      pop\n      jump\t// out\n        /* \"#utility.yul\":13343:13987   */\n    tag_62:\n        /* \"#utility.yul\":13540:13544   */\n      0x00\n        /* \"#utility.yul\":13578:13581   */\n      0x80\n        /* \"#utility.yul\":13567:13576   */\n      dup3\n        /* \"#utility.yul\":13563:13582   */\n      add\n        /* \"#utility.yul\":13555:13582   */\n      swap1\n      pop\n        /* \"#utility.yul\":13592:13663   */\n      tag_319\n        /* \"#utility.yul\":13660:13661   */\n      0x00\n        /* \"#utility.yul\":13649:13658   */\n      dup4\n        /* \"#utility.yul\":13645:13662   */\n      add\n        /* \"#utility.yul\":13636:13642   */\n      dup8\n        /* \"#utility.yul\":13592:13663   */\n      tag_140\n      jump\t// in\n    tag_319:\n        /* \"#utility.yul\":13710:13719   */\n      dup2\n        /* \"#utility.yul\":13704:13708   */\n      dup2\n        /* \"#utility.yul\":13700:13720   */\n      sub\n        /* \"#utility.yul\":13695:13697   */\n      0x20\n        /* \"#utility.yul\":13684:13693   */\n      dup4\n        /* \"#utility.yul\":13680:13698   */\n      add\n        /* \"#utility.yul\":13673:13721   */\n      mstore\n        /* \"#utility.yul\":13738:13816   */\n      tag_320\n        /* \"#utility.yul\":13811:13815   */\n      dup2\n        /* \"#utility.yul\":13802:13808   */\n      dup7\n        /* \"#utility.yul\":13738:13816   */\n      tag_139\n      jump\t// in\n    tag_320:\n        /* \"#utility.yul\":13730:13816   */\n      swap1\n      pop\n        /* \"#utility.yul\":13826:13898   */\n      tag_321\n        /* \"#utility.yul\":13894:13896   */\n      0x40\n        /* \"#utility.yul\":13883:13892   */\n      dup4\n        /* \"#utility.yul\":13879:13897   */\n      add\n        /* \"#utility.yul\":13870:13876   */\n      dup6\n        /* \"#utility.yul\":13826:13898   */\n      tag_140\n      jump\t// in\n    tag_321:\n        /* \"#utility.yul\":13908:13980   */\n      tag_322\n        /* \"#utility.yul\":13976:13978   */\n      0x60\n        /* \"#utility.yul\":13965:13974   */\n      dup4\n        /* \"#utility.yul\":13961:13979   */\n      add\n        /* \"#utility.yul\":13952:13958   */\n      dup5\n        /* \"#utility.yul\":13908:13980   */\n      tag_140\n      jump\t// in\n    tag_322:\n        /* \"#utility.yul\":13343:13987   */\n      swap6\n      swap5\n      pop\n      pop\n      pop\n      pop\n      pop\n      jump\t// out\n        /* \"#utility.yul\":13993:14173   */\n    tag_162:\n        /* \"#utility.yul\":14041:14118   */\n      0x4e487b7100000000000000000000000000000000000000000000000000000000\n        /* \"#utility.yul\":14038:14039   */\n      0x00\n        /* \"#utility.yul\":14031:14119   */\n      mstore\n        /* \"#utility.yul\":14138:14142   */\n      0x11\n        /* \"#utility.yul\":14135:14136   */\n      0x04\n        /* \"#utility.yul\":14128:14143   */\n      mstore\n        /* \"#utility.yul\":14162:14166   */\n      0x24\n        /* \"#utility.yul\":14159:14160   */\n      0x00\n        /* \"#utility.yul\":14152:14167   */\n      revert\n        /* \"#utility.yul\":14179:14412   */\n    tag_64:\n        /* \"#utility.yul\":14218:14221   */\n      0x00\n        /* \"#utility.yul\":14241:14265   */\n      tag_325\n        /* \"#utility.yul\":14259:14264   */\n      dup3\n        /* \"#utility.yul\":14241:14265   */\n      tag_133\n      jump\t// in\n    tag_325:\n        /* \"#utility.yul\":14232:14265   */\n      swap2\n      pop\n        /* \"#utility.yul\":14287:14353   */\n      0xffffffffffffffffffffffffffffffffffffffffffffffffffffffffffffffff\n        /* \"#utility.yul\":14280:14285   */\n      dup3\n        /* \"#utility.yul\":14277:14354   */\n      sub\n        /* \"#utility.yul\":14274:14377   */\n      tag_326\n      jumpi\n        /* \"#utility.yul\":14357:14375   */\n      tag_327\n      tag_162\n      jump\t// in\n    tag_327:\n        /* \"#utility.yul\":14274:14377   */\n    tag_326:\n        /* \"#utility.yul\":14404:14405   */\n      0x01\n        /* \"#utility.yul\":14397:14402   */\n      dup3\n        /* \"#utility.yul\":14393:14406   */\n      add\n        /* \"#utility.yul\":14386:14406   */\n      swap1\n      pop\n        /* \"#utility.yul\":14179:14412   */\n      swap2\n      swap1\n      pop\n      jump\t// out\n        /* \"#utility.yul\":14418:14584   */\n    tag_163:\n        /* \"#utility.yul\":14558:14576   */\n      0x496e76616c696420466c69676874494400000000000000000000000000000000\n        /* \"#utility.yul\":14554:14555   */\n      0x00\n        /* \"#utility.yul\":14546:14552   */\n      dup3\n        /* \"#utility.yul\":14542:14556   */\n      add\n        /* \"#utility.yul\":14535:14577   */\n      mstore\n        /* \"#utility.yul\":14418:14584   */\n      pop\n      jump\t// out\n        /* \"#utility.yul\":14590:14956   */\n    tag_164:\n        /* \"#utility.yul\":14732:14735   */\n      0x00\n        /* \"#utility.yul\":14753:14820   */\n      tag_330\n        /* \"#utility.yul\":14817:14819   */\n      0x10\n        /* \"#utility.yul\":14812:14815   */\n      dup4\n        /* \"#utility.yul\":14753:14820   */\n      tag_137\n      jump\t// in\n    tag_330:\n        /* \"#utility.yul\":14746:14820   */\n      swap2\n      pop\n        /* \"#utility.yul\":14829:14922   */\n      tag_331\n        /* \"#utility.yul\":14918:14921   */\n      dup3\n        /* \"#utility.yul\":14829:14922   */\n      tag_163\n      jump\t// in\n    tag_331:\n        /* \"#utility.yul\":14947:14949   */\n      0x20\n        /* \"#utility.yul\":14942:14945   */\n      dup3\n        /* \"#utility.yul\":14938:14950   */\n      add\n        /* \"#utility.yul\":14931:14950   */\n      swap1\n      pop\n        /* \"#utility.yul\":14590:14956   */\n      swap2\n      swap1\n      pop\n      jump\t// out\n        /* \"#utility.yul\":14962:15381   */\n    tag_68:\n        /* \"#utility.yul\":15128:15132   */\n      0x00\n        /* \"#utility.yul\":15166:15168   */\n      0x20\n        /* \"#utility.yul\":15155:15164   */\n      dup3\n        /* \"#utility.yul\":15151:15169   */\n      add\n        /* \"#utility.yul\":15143:15169   */\n      swap1\n      pop\n        /* \"#utility.yul\":15215:15224   */\n      dup2\n        /* \"#utility.yul\":15209:15213   */\n      dup2\n        /* \"#utility.yul\":15205:15225   */\n      sub\n        /* \"#utility.yul\":15201:15202   */\n      0x00\n        /* \"#utility.yul\":15190:15199   */\n      dup4\n        /* \"#utility.yul\":15186:15203   */\n      add\n        /* \"#utility.yul\":15179:15226   */\n      mstore\n        /* \"#utility.yul\":15243:15374   */\n      tag_333\n        /* \"#utility.yul\":15369:15373   */\n      dup2\n        /* \"#utility.yul\":15243:15374   */\n      tag_164\n      jump\t// in\n    tag_333:\n        /* \"#utility.yul\":15235:15374   */\n      swap1\n      pop\n        /* \"#utility.yul\":14962:15381   */\n      swap2\n      swap1\n      pop\n      jump\t// out\n        /* \"#utility.yul\":15387:15797   */\n    tag_70:\n        /* \"#utility.yul\":15427:15434   */\n      0x00\n        /* \"#utility.yul\":15450:15470   */\n      tag_335\n        /* \"#utility.yul\":15468:15469   */\n      dup3\n        /* \"#utility.yul\":15450:15470   */\n      tag_133\n      jump\t// in\n    tag_335:\n        /* \"#utility.yul\":15445:15470   */\n      swap2\n      pop\n        /* \"#utility.yul\":15484:15504   */\n      tag_336\n        /* \"#utility.yul\":15502:15503   */\n      dup4\n        /* \"#utility.yul\":15484:15504   */\n      tag_133\n      jump\t// in\n    tag_336:\n        /* \"#utility.yul\":15479:15504   */\n      swap3\n      pop\n        /* \"#utility.yul\":15539:15540   */\n      dup3\n        /* \"#utility.yul\":15536:15537   */\n      dup3\n        /* \"#utility.yul\":15532:15541   */\n      mul\n        /* \"#utility.yul\":15561:15591   */\n      tag_337\n        /* \"#utility.yul\":15579:15590   */\n      dup2\n        /* \"#utility.yul\":15561:15591   */\n      tag_133\n      jump\t// in\n    tag_337:\n        /* \"#utility.yul\":15550:15591   */\n      swap2\n      pop\n        /* \"#utility.yul\":15740:15741   */\n      dup3\n        /* \"#utility.yul\":15731:15738   */\n      dup3\n        /* \"#utility.yul\":15727:15742   */\n      div\n        /* \"#utility.yul\":15724:15725   */\n      dup5\n        /* \"#utility.yul\":15721:15743   */\n      eq\n        /* \"#utility.yul\":15701:15702   */\n      dup4\n        /* \"#utility.yul\":15694:15703   */\n      iszero\n        /* \"#utility.yul\":15674:15757   */\n      or\n        /* \"#utility.yul\":15651:15790   */\n      tag_338\n      jumpi\n        /* \"#utility.yul\":15770:15788   */\n      tag_339\n      tag_162\n      jump\t// in\n    tag_339:\n        /* \"#utility.yul\":15651:15790   */\n    tag_338:\n        /* \"#utility.yul\":15435:15797   */\n      pop\n        /* \"#utility.yul\":15387:15797   */\n      swap3\n      swap2\n      pop\n      pop\n      jump\t// out\n        /* \"#utility.yul\":15803:15977   */\n    tag_165:\n        /* \"#utility.yul\":15943:15969   */\n      0x496e636f7272656e74207061796d656e7420616d6f756e740000000000000000\n        /* \"#utility.yul\":15939:15940   */\n      0x00\n        /* \"#utility.yul\":15931:15937   */\n      dup3\n        /* \"#utility.yul\":15927:15941   */\n      add\n        /* \"#utility.yul\":15920:15970   */\n      mstore\n        /* \"#utility.yul\":15803:15977   */\n      pop\n      jump\t// out\n        /* \"#utility.yul\":15983:16349   */\n    tag_166:\n        /* \"#utility.yul\":16125:16128   */\n      0x00\n        /* \"#utility.yul\":16146:16213   */\n      tag_342\n        /* \"#utility.yul\":16210:16212   */\n      0x18\n        /* \"#utility.yul\":16205:16208   */\n      dup4\n        /* \"#utility.yul\":16146:16213   */\n      tag_137\n      jump\t// in\n    tag_342:\n        /* \"#utility.yul\":16139:16213   */\n      swap2\n      pop\n        /* \"#utility.yul\":16222:16315   */\n      tag_343\n        /* \"#utility.yul\":16311:16314   */\n      dup3\n        /* \"#utility.yul\":16222:16315   */\n      tag_165\n      jump\t// in\n    tag_343:\n        /* \"#utility.yul\":16340:16342   */\n      0x20\n        /* \"#utility.yul\":16335:16338   */\n      dup3\n        /* \"#utility.yul\":16331:16343   */\n      add\n        /* \"#utility.yul\":16324:16343   */\n      swap1\n      pop\n        /* \"#utility.yul\":15983:16349   */\n      swap2\n      swap1\n      pop\n      jump\t// out\n        /* \"#utility.yul\":16355:16774   */\n    tag_73:\n        /* \"#utility.yul\":16521:16525   */\n      0x00\n        /* \"#utility.yul\":16559:16561   */\n      0x20\n        /* \"#utility.yul\":16548:16557   */\n      dup3\n        /* \"#utility.yul\":16544:16562   */\n      add\n        /* \"#utility.yul\":16536:16562   */\n      swap1\n      pop\n        /* \"#utility.yul\":16608:16617   */\n      dup2\n        /* \"#utility.yul\":16602:16606   */\n      dup2\n        /* \"#utility.yul\":16598:16618   */\n      sub\n        /* \"#utility.yul\":16594:16595   */\n      0x00\n        /* \"#utility.yul\":16583:16592   */\n      dup4\n        /* \"#utility.yul\":16579:16596   */\n      add\n        /* \"#utility.yul\":16572:16619   */\n      mstore\n        /* \"#utility.yul\":16636:16767   */\n      tag_345\n        /* \"#utility.yul\":16762:16766   */\n      dup2\n        /* \"#utility.yul\":16636:16767   */\n      tag_166\n      jump\t// in\n    tag_345:\n        /* \"#utility.yul\":16628:16767   */\n      swap1\n      pop\n        /* \"#utility.yul\":16355:16774   */\n      swap2\n      swap1\n      pop\n      jump\t// out\n        /* \"#utility.yul\":16780:16971   */\n    tag_75:\n        /* \"#utility.yul\":16820:16823   */\n      0x00\n        /* \"#utility.yul\":16839:16859   */\n      tag_347\n        /* \"#utility.yul\":16857:16858   */\n      dup3\n        /* \"#utility.yul\":16839:16859   */\n      tag_133\n      jump\t// in\n    tag_347:\n        /* \"#utility.yul\":16834:16859   */\n      swap2\n      pop\n        /* \"#utility.yul\":16873:16893   */\n      tag_348\n        /* \"#utility.yul\":16891:16892   */\n      dup4\n        /* \"#utility.yul\":16873:16893   */\n      tag_133\n      jump\t// in\n    tag_348:\n        /* \"#utility.yul\":16868:16893   */\n      swap3\n      pop\n        /* \"#utility.yul\":16916:16917   */\n      dup3\n        /* \"#utility.yul\":16913:16914   */\n      dup3\n        /* \"#utility.yul\":16909:16918   */\n      add\n        /* \"#utility.yul\":16902:16918   */\n      swap1\n      pop\n        /* \"#utility.yul\":16937:16940   */\n      dup1\n        /* \"#utility.yul\":16934:16935   */\n      dup3\n        /* \"#utility.yul\":16931:16941   */\n      gt\n        /* \"#utility.yul\":16928:16964   */\n      iszero\n      tag_349\n      jumpi\n        /* \"#utility.yul\":16944:16962   */\n      tag_350\n      tag_162\n      jump\t// in\n    tag_350:\n        /* \"#utility.yul\":16928:16964   */\n    tag_349:\n        /* \"#utility.yul\":16780:16971   */\n      swap3\n      swap2\n      pop\n      pop\n      jump\t// out\n        /* \"#utility.yul\":16977:17530   */\n    tag_78:\n        /* \"#utility.yul\":17154:17158   */\n      0x00\n        /* \"#utility.yul\":17192:17195   */\n      0x80\n        /* \"#utility.yul\":17181:17190   */\n      dup3\n        /* \"#utility.yul\":17177:17196   */\n      add\n        /* \"#utility.yul\":17169:17196   */\n      swap1\n      pop\n        /* \"#utility.yul\":17206:17277   */\n      tag_352\n        /* \"#utility.yul\":17274:17275   */\n      0x00\n        /* \"#utility.yul\":17263:17272   */\n      dup4\n        /* \"#utility.yul\":17259:17276   */\n      add\n        /* \"#utility.yul\":17250:17256   */\n      dup8\n        /* \"#utility.yul\":17206:17277   */\n      tag_143\n      jump\t// in\n    tag_352:\n        /* \"#utility.yul\":17287:17359   */\n      tag_353\n        /* \"#utility.yul\":17355:17357   */\n      0x20\n        /* \"#utility.yul\":17344:17353   */\n      dup4\n        /* \"#utility.yul\":17340:17358   */\n      add\n        /* \"#utility.yul\":17331:17337   */\n      dup7\n        /* \"#utility.yul\":17287:17359   */\n      tag_140\n      jump\t// in\n    tag_353:\n        /* \"#utility.yul\":17369:17441   */\n      tag_354\n        /* \"#utility.yul\":17437:17439   */\n      0x40\n        /* \"#utility.yul\":17426:17435   */\n      dup4\n        /* \"#utility.yul\":17422:17440   */\n      add\n        /* \"#utility.yul\":17413:17419   */\n      dup6\n        /* \"#utility.yul\":17369:17441   */\n      tag_140\n      jump\t// in\n    tag_354:\n        /* \"#utility.yul\":17451:17523   */\n      tag_355\n        /* \"#utility.yul\":17519:17521   */\n      0x60\n        /* \"#utility.yul\":17508:17517   */\n      dup4\n        /* \"#utility.yul\":17504:17522   */\n      add\n        /* \"#utility.yul\":17495:17501   */\n      dup5\n        /* \"#utility.yul\":17451:17523   */\n      tag_140\n      jump\t// in\n    tag_355:\n        /* \"#utility.yul\":16977:17530   */\n      swap6\n      swap5\n      pop\n      pop\n      pop\n      pop\n      pop\n      jump\t// out\n        /* \"#utility.yul\":17536:17868   */\n    tag_80:\n        /* \"#utility.yul\":17657:17661   */\n      0x00\n        /* \"#utility.yul\":17695:17697   */\n      0x40\n        /* \"#utility.yul\":17684:17693   */\n      dup3\n        /* \"#utility.yul\":17680:17698   */\n      add\n        /* \"#utility.yul\":17672:17698   */\n      swap1\n      pop\n        /* \"#utility.yul\":17708:17779   */\n      tag_357\n        /* \"#utility.yul\":17776:17777   */\n      0x00\n        /* \"#utility.yul\":17765:17774   */\n      dup4\n        /* \"#utility.yul\":17761:17778   */\n      add\n        /* \"#utility.yul\":17752:17758   */\n      dup6\n        /* \"#utility.yul\":17708:17779   */\n      tag_143\n      jump\t// in\n    tag_357:\n        /* \"#utility.yul\":17789:17861   */\n      tag_358\n        /* \"#utility.yul\":17857:17859   */\n      0x20\n        /* \"#utility.yul\":17846:17855   */\n      dup4\n        /* \"#utility.yul\":17842:17860   */\n      add\n        /* \"#utility.yul\":17833:17839   */\n      dup5\n        /* \"#utility.yul\":17789:17861   */\n      tag_140\n      jump\t// in\n    tag_358:\n        /* \"#utility.yul\":17536:17868   */\n      swap4\n      swap3\n      pop\n      pop\n      pop\n      jump\t// out\n        /* \"#utility.yul\":17874:18042   */\n    tag_167:\n        /* \"#utility.yul\":18014:18034   */\n      0x496e76616c696420666c696768742049442e0000000000000000000000000000\n        /* \"#utility.yul\":18010:18011   */\n      0x00\n        /* \"#utility.yul\":18002:18008   */\n      dup3\n        /* \"#utility.yul\":17998:18012   */\n      add\n        /* \"#utility.yul\":17991:18035   */\n      mstore\n        /* \"#utility.yul\":17874:18042   */\n      pop\n      jump\t// out\n        /* \"#utility.yul\":18048:18414   */\n    tag_168:\n        /* \"#utility.yul\":18190:18193   */\n      0x00\n        /* \"#utility.yul\":18211:18278   */\n      tag_361\n        /* \"#utility.yul\":18275:18277   */\n      0x12\n        /* \"#utility.yul\":18270:18273   */\n      dup4\n        /* \"#utility.yul\":18211:18278   */\n      tag_137\n      jump\t// in\n    tag_361:\n        /* \"#utility.yul\":18204:18278   */\n      swap2\n      pop\n        /* \"#utility.yul\":18287:18380   */\n      tag_362\n        /* \"#utility.yul\":18376:18379   */\n      dup3\n        /* \"#utility.yul\":18287:18380   */\n      tag_167\n      jump\t// in\n    tag_362:\n        /* \"#utility.yul\":18405:18407   */\n      0x20\n        /* \"#utility.yul\":18400:18403   */\n      dup3\n        /* \"#utility.yul\":18396:18408   */\n      add\n        /* \"#utility.yul\":18389:18408   */\n      swap1\n      pop\n        /* \"#utility.yul\":18048:18414   */\n      swap2\n      swap1\n      pop\n      jump\t// out\n        /* \"#utility.yul\":18420:18839   */\n    tag_90:\n        /* \"#utility.yul\":18586:18590   */\n      0x00\n        /* \"#utility.yul\":18624:18626   */\n      0x20\n        /* \"#utility.yul\":18613:18622   */\n      dup3\n        /* \"#utility.yul\":18609:18627   */\n      add\n        /* \"#utility.yul\":18601:18627   */\n      swap1\n      pop\n        /* \"#utility.yul\":18673:18682   */\n      dup2\n        /* \"#utility.yul\":18667:18671   */\n      dup2\n        /* \"#utility.yul\":18663:18683   */\n      sub\n        /* \"#utility.yul\":18659:18660   */\n      0x00\n        /* \"#utility.yul\":18648:18657   */\n      dup4\n        /* \"#utility.yul\":18644:18661   */\n      add\n        /* \"#utility.yul\":18637:18684   */\n      mstore\n        /* \"#utility.yul\":18701:18832   */\n      tag_364\n        /* \"#utility.yul\":18827:18831   */\n      dup2\n        /* \"#utility.yul\":18701:18832   */\n      tag_168\n      jump\t// in\n    tag_364:\n        /* \"#utility.yul\":18693:18832   */\n      swap1\n      pop\n        /* \"#utility.yul\":18420:18839   */\n      swap2\n      swap1\n      pop\n      jump\t// out\n        /* \"#utility.yul\":18845:19039   */\n    tag_97:\n        /* \"#utility.yul\":18885:18889   */\n      0x00\n        /* \"#utility.yul\":18905:18925   */\n      tag_366\n        /* \"#utility.yul\":18923:18924   */\n      dup3\n        /* \"#utility.yul\":18905:18925   */\n      tag_133\n      jump\t// in\n    tag_366:\n        /* \"#utility.yul\":18900:18925   */\n      swap2\n      pop\n        /* \"#utility.yul\":18939:18959   */\n      tag_367\n        /* \"#utility.yul\":18957:18958   */\n      dup4\n        /* \"#utility.yul\":18939:18959   */\n      tag_133\n      jump\t// in\n    tag_367:\n        /* \"#utility.yul\":18934:18959   */\n      swap3\n      pop\n        /* \"#utility.yul\":18983:18984   */\n      dup3\n        /* \"#utility.yul\":18980:18981   */\n      dup3\n        /* \"#utility.yul\":18976:18985   */\n      sub\n        /* \"#utility.yul\":18968:18985   */\n      swap1\n      pop\n        /* \"#utility.yul\":19007:19008   */\n      dup2\n        /* \"#utility.yul\":19001:19005   */\n      dup2\n        /* \"#utility.yul\":18998:19009   */\n      gt\n        /* \"#utility.yul\":18995:19032   */\n      iszero\n      tag_368\n      jumpi\n        /* \"#utility.yul\":19012:19030   */\n      tag_369\n      tag_162\n      jump\t// in\n    tag_369:\n        /* \"#utility.yul\":18995:19032   */\n    tag_368:\n        /* \"#utility.yul\":18845:19039   */\n      swap3\n      swap2\n      pop\n      pop\n      jump\t// out\n        /* \"#utility.yul\":19045:19219   */\n    tag_169:\n        /* \"#utility.yul\":19185:19211   */\n      0x4e6f7420656e6f75676820736561747320626f6f6b65642e0000000000000000\n        /* \"#utility.yul\":19181:19182   */\n      0x00\n        /* \"#utility.yul\":19173:19179   */\n      dup3\n        /* \"#utility.yul\":19169:19183   */\n      add\n        /* \"#utility.yul\":19162:19212   */\n      mstore\n        /* \"#utility.yul\":19045:19219   */\n      pop\n      jump\t// out\n        /* \"#utility.yul\":19225:19591   */\n    tag_170:\n        /* \"#utility.yul\":19367:19370   */\n      0x00\n        /* \"#utility.yul\":19388:19455   */\n      tag_372\n        /* \"#utility.yul\":19452:19454   */\n      0x18\n        /* \"#utility.yul\":19447:19450   */\n      dup4\n        /* \"#utility.yul\":19388:19455   */\n      tag_137\n      jump\t// in\n    tag_372:\n        /* \"#utility.yul\":19381:19455   */\n      swap2\n      pop\n        /* \"#utility.yul\":19464:19557   */\n      tag_373\n        /* \"#utility.yul\":19553:19556   */\n      dup3\n        /* \"#utility.yul\":19464:19557   */\n      tag_169\n      jump\t// in\n    tag_373:\n        /* \"#utility.yul\":19582:19584   */\n      0x20\n        /* \"#utility.yul\":19577:19580   */\n      dup3\n        /* \"#utility.yul\":19573:19585   */\n      add\n        /* \"#utility.yul\":19566:19585   */\n      swap1\n      pop\n        /* \"#utility.yul\":19225:19591   */\n      swap2\n      swap1\n      pop\n      jump\t// out\n        /* \"#utility.yul\":19597:20016   */\n    tag_103:\n        /* \"#utility.yul\":19763:19767   */\n      0x00\n        /* \"#utility.yul\":19801:19803   */\n      0x20\n        /* \"#utility.yul\":19790:19799   */\n      dup3\n        /* \"#utility.yul\":19786:19804   */\n      add\n        /* \"#utility.yul\":19778:19804   */\n      swap1\n      pop\n        /* \"#utility.yul\":19850:19859   */\n      dup2\n        /* \"#utility.yul\":19844:19848   */\n      dup2\n        /* \"#utility.yul\":19840:19860   */\n      sub\n        /* \"#utility.yul\":19836:19837   */\n      0x00\n        /* \"#utility.yul\":19825:19834   */\n      dup4\n        /* \"#utility.yul\":19821:19838   */\n      add\n        /* \"#utility.yul\":19814:19861   */\n      mstore\n        /* \"#utility.yul\":19878:20009   */\n      tag_375\n        /* \"#utility.yul\":20004:20008   */\n      dup2\n        /* \"#utility.yul\":19878:20009   */\n      tag_170\n      jump\t// in\n    tag_375:\n        /* \"#utility.yul\":19870:20009   */\n      swap1\n      pop\n        /* \"#utility.yul\":19597:20016   */\n      swap2\n      swap1\n      pop\n      jump\t// out\n        /* \"#utility.yul\":20022:20250   */\n    tag_171:\n        /* \"#utility.yul\":20162:20196   */\n      0x4e6f7420656e6f7567682062616c616e636520696e20636f6e74726163742074\n        /* \"#utility.yul\":20158:20159   */\n      0x00\n        /* \"#utility.yul\":20150:20156   */\n      dup3\n        /* \"#utility.yul\":20146:20160   */\n      add\n        /* \"#utility.yul\":20139:20197   */\n      mstore\n        /* \"#utility.yul\":20231:20242   */\n      0x6f20726566756e642e0000000000000000000000000000000000000000000000\n        /* \"#utility.yul\":20226:20228   */\n      0x20\n        /* \"#utility.yul\":20218:20224   */\n      dup3\n        /* \"#utility.yul\":20214:20229   */\n      add\n        /* \"#utility.yul\":20207:20243   */\n      mstore\n        /* \"#utility.yul\":20022:20250   */\n      pop\n      jump\t// out\n        /* \"#utility.yul\":20256:20622   */\n    tag_172:\n        /* \"#utility.yul\":20398:20401   */\n      0x00\n        /* \"#utility.yul\":20419:20486   */\n      tag_378\n        /* \"#utility.yul\":20483:20485   */\n      0x29\n        /* \"#utility.yul\":20478:20481   */\n      dup4\n        /* \"#utility.yul\":20419:20486   */\n      tag_137\n      jump\t// in\n    tag_378:\n        /* \"#utility.yul\":20412:20486   */\n      swap2\n      pop\n        /* \"#utility.yul\":20495:20588   */\n      tag_379\n        /* \"#utility.yul\":20584:20587   */\n      dup3\n        /* \"#utility.yul\":20495:20588   */\n      tag_171\n      jump\t// in\n    tag_379:\n        /* \"#utility.yul\":20613:20615   */\n      0x40\n        /* \"#utility.yul\":20608:20611   */\n      dup3\n        /* \"#utility.yul\":20604:20616   */\n      add\n        /* \"#utility.yul\":20597:20616   */\n      swap1\n      pop\n        /* \"#utility.yul\":20256:20622   */\n      swap2\n      swap1\n      pop\n      jump\t// out\n        /* \"#utility.yul\":20628:21047   */\n    tag_107:\n        /* \"#utility.yul\":20794:20798   */\n      0x00\n        /* \"#utility.yul\":20832:20834   */\n      0x20\n        /* \"#utility.yul\":20821:20830   */\n      dup3\n        /* \"#utility.yul\":20817:20835   */\n      add\n        /* \"#utility.yul\":20809:20835   */\n      swap1\n      pop\n        /* \"#utility.yul\":20881:20890   */\n      dup2\n        /* \"#utility.yul\":20875:20879   */\n      dup2\n        /* \"#utility.yul\":20871:20891   */\n      sub\n        /* \"#utility.yul\":20867:20868   */\n      0x00\n        /* \"#utility.yul\":20856:20865   */\n      dup4\n        /* \"#utility.yul\":20852:20869   */\n      add\n        /* \"#utility.yul\":20845:20892   */\n      mstore\n        /* \"#utility.yul\":20909:21040   */\n      tag_381\n        /* \"#utility.yul\":21035:21039   */\n      dup2\n        /* \"#utility.yul\":20909:21040   */\n      tag_172\n      jump\t// in\n    tag_381:\n        /* \"#utility.yul\":20901:21040   */\n      swap1\n      pop\n        /* \"#utility.yul\":20628:21047   */\n      swap2\n      swap1\n      pop\n      jump\t// out\n        /* \"#utility.yul\":21053:21495   */\n    tag_113:\n        /* \"#utility.yul\":21202:21206   */\n      0x00\n        /* \"#utility.yul\":21240:21242   */\n      0x60\n        /* \"#utility.yul\":21229:21238   */\n      dup3\n        /* \"#utility.yul\":21225:21243   */\n      add\n        /* \"#utility.yul\":21217:21243   */\n      swap1\n      pop\n        /* \"#utility.yul\":21253:21324   */\n      tag_383\n        /* \"#utility.yul\":21321:21322   */\n      0x00\n        /* \"#utility.yul\":21310:21319   */\n      dup4\n        /* \"#utility.yul\":21306:21323   */\n      add\n        /* \"#utility.yul\":21297:21303   */\n      dup7\n        /* \"#utility.yul\":21253:21324   */\n      tag_143\n      jump\t// in\n    tag_383:\n        /* \"#utility.yul\":21334:21406   */\n      tag_384\n        /* \"#utility.yul\":21402:21404   */\n      0x20\n        /* \"#utility.yul\":21391:21400   */\n      dup4\n        /* \"#utility.yul\":21387:21405   */\n      add\n        /* \"#utility.yul\":21378:21384   */\n      dup6\n        /* \"#utility.yul\":21334:21406   */\n      tag_140\n      jump\t// in\n    tag_384:\n        /* \"#utility.yul\":21416:21488   */\n      tag_385\n        /* \"#utility.yul\":21484:21486   */\n      0x40\n        /* \"#utility.yul\":21473:21482   */\n      dup4\n        /* \"#utility.yul\":21469:21487   */\n      add\n        /* \"#utility.yul\":21460:21466   */\n      dup5\n        /* \"#utility.yul\":21416:21488   */\n      tag_140\n      jump\t// in\n    tag_385:\n        /* \"#utility.yul\":21053:21495   */\n      swap5\n      swap4\n      pop\n      pop\n      pop\n      pop\n      jump\t// out\n\n    auxdata: 0xa2646970667358221220447a9e185419c3d6fd79028106e819e82f792a4870585e6b4bd82cfd130c1eb064736f6c634300081a0033\n}\n",
				"bytecode": {
					"linkReferences": {},
					"object": "6080604052348015600e575f80fd5b50335f806101000a81548173ffffffffffffffffffffffffffffffffffffffff021916908373ffffffffffffffffffffffffffffffffffffffff1602179055506114f38061005b5f395ff3fe608060405260043610610085575f3560e01c80631bc09567116100585780631bc095671461014a57806332229205146101745780635fd8c710146101905780638da5cb5b146101a6578063bedcf003146101d057610085565b80630b7569f114610089578063139e92eb146100b157806315ccf70f146100cd578063185350081461010c575b5f80fd5b348015610094575f80fd5b506100af60048036038101906100aa9190610af9565b6101fa565b005b6100cb60048036038101906100c69190610b65565b61034b565b005b3480156100d8575f80fd5b506100f360048036038101906100ee9190610ba3565b6104a6565b6040516101039493929190610c3d565b60405180910390f35b348015610117575f80fd5b50610132600480360381019061012d9190610ba3565b610558565b60405161014193929190610c87565b60405180910390f35b348015610155575f80fd5b5061015e61069c565b60405161016b9190610cc3565b60405180910390f35b61018e60048036038101906101899190610b65565b6106a2565b005b34801561019b575f80fd5b506101a4610850565b005b3480156101b1575f80fd5b506101ba610950565b6040516101c79190610d1b565b60405180910390f35b3480156101db575f80fd5b506101e4610973565b6040516101f19190610cc3565b60405180910390f35b5f8054906101000a900473ffffffffffffffffffffffffffffffffffffffff1673ffffffffffffffffffffffffffffffffffffffff163373ffffffffffffffffffffffffffffffffffffffff1614610287576040517f08c379a000000000000000000000000000000000000000000000000000000000815260040161027e90610da4565b60405180910390fd5b60405180608001604052808481526020018381526020018281526020015f81525060025f60035481526020019081526020015f205f820151815f0190816102ce9190610fbc565b506020820151816001015560408201518160020155606082015181600301559050507fc4ee57698cf470e237e4b6249a9cc3fad4f8c861d71b20b0734fc7a217747d8e600354848484604051610327949392919061108b565b60405180910390a160035f81548092919061034190611102565b9190505550505050565b600354821061038f576040517f08c379a000000000000000000000000000000000000000000000000000000000815260040161038690611193565b60405180910390fd5b5f60025f8481526020019081526020015f2090505f8282600101546103b491906111b1565b90508034146103f8576040517f08c379a00000000000000000000000000000000000000000000000000000000081526004016103ef9061123c565b60405180910390fd5b82826003015f82825461040b919061125a565b925050819055503460015f828254610423919061125a565b925050819055507f81c0944c267e331528c04ddeb7bc78f539d7e04f07b820fd8bfafbd8298b3d483385858460405161045f949392919061128d565b60405180910390a17f6ef95f06320e7a25a04a175ca677b7052bdd97131872c2192525a629f51be77033346040516104989291906112d0565b60405180910390a150505050565b6002602052805f5260405f205f91509050805f0180546104c590610def565b80601f01602080910402602001604051908101604052809291908181526020018280546104f190610def565b801561053c5780601f106105135761010080835404028352916020019161053c565b820191905f5260205f20905b81548152906001019060200180831161051f57829003601f168201915b5050505050908060010154908060020154908060030154905084565b60605f8060035484106105a0576040517f08c379a000000000000000000000000000000000000000000000000000000000815260040161059790611341565b60405180910390fd5b5f60025f8681526020019081526020015f206040518060800160405290815f820180546105cc90610def565b80601f01602080910402602001604051908101604052809291908181526020018280546105f890610def565b80156106435780601f1061061a57610100808354040283529160200191610643565b820191905f5260205f20905b81548152906001019060200180831161062657829003601f168201915b50505050508152602001600182015481526020016002820154815260200160038201548152505090505f81606001518260400151610681919061135f565b9050815f015182602001518294509450945050509193909250565b60035481565b60035482106106e6576040517f08c379a00000000000000000000000000000000000000000000000000000000081526004016106dd90611341565b60405180910390fd5b5f60025f8481526020019081526020015f2090508181600301541015610741576040517f08c379a0000000000000000000000000000000000000000000000000000000008152600401610738906113dc565b60405180910390fd5b5f82826001015461075291906111b1565b9050806001541015610799576040517f08c379a00000000000000000000000000000000000000000000000000000000081526004016107909061146a565b60405180910390fd5b3373ffffffffffffffffffffffffffffffffffffffff166108fc8290811502906040515f60405180830381858888f193505050501580156107dc573d5f803e3d5ffd5b5082826003015f8282546107f0919061135f565b925050819055508060015f828254610808919061135f565b925050819055507f8095a07203cd91318ff59af834d6d3f52b1d5441437bd19da41303e89494ad2733858360405161084293929190611488565b60405180910390a150505050565b5f8054906101000a900473ffffffffffffffffffffffffffffffffffffffff1673ffffffffffffffffffffffffffffffffffffffff163373ffffffffffffffffffffffffffffffffffffffff16146108dd576040517f08c379a00000000000000000000000000000000000000000000000000000000081526004016108d490610da4565b60405180910390fd5b5f60015490505f6001819055505f8054906101000a900473ffffffffffffffffffffffffffffffffffffffff1673ffffffffffffffffffffffffffffffffffffffff166108fc8290811502906040515f60405180830381858888f1935050505015801561094c573d5f803e3d5ffd5b5050565b5f8054906101000a900473ffffffffffffffffffffffffffffffffffffffff1681565b60015481565b5f604051905090565b5f80fd5b5f80fd5b5f80fd5b5f80fd5b5f601f19601f8301169050919050565b7f4e487b71000000000000000000000000000000000000000000000000000000005f52604160045260245ffd5b6109d882610992565b810181811067ffffffffffffffff821117156109f7576109f66109a2565b5b80604052505050565b5f610a09610979565b9050610a1582826109cf565b919050565b5f67ffffffffffffffff821115610a3457610a336109a2565b5b610a3d82610992565b9050602081019050919050565b828183375f83830152505050565b5f610a6a610a6584610a1a565b610a00565b905082815260208101848484011115610a8657610a8561098e565b5b610a91848285610a4a565b509392505050565b5f82601f830112610aad57610aac61098a565b5b8135610abd848260208601610a58565b91505092915050565b5f819050919050565b610ad881610ac6565b8114610ae2575f80fd5b50565b5f81359050610af381610acf565b92915050565b5f805f60608486031215610b1057610b0f610982565b5b5f84013567ffffffffffffffff811115610b2d57610b2c610986565b5b610b3986828701610a99565b9350506020610b4a86828701610ae5565b9250506040610b5b86828701610ae5565b9150509250925092565b5f8060408385031215610b7b57610b7a610982565b5b5f610b8885828601610ae5565b9250506020610b9985828601610ae5565b9150509250929050565b5f60208284031215610bb857610bb7610982565b5b5f610bc584828501610ae5565b91505092915050565b5f81519050919050565b5f82825260208201905092915050565b8281835e5f83830152505050565b5f610c0082610bce565b610c0a8185610bd8565b9350610c1a818560208601610be8565b610c2381610992565b840191505092915050565b610c3781610ac6565b82525050565b5f6080820190508181035f830152610c558187610bf6565b9050610c646020830186610c2e565b610c716040830185610c2e565b610c7e6060830184610c2e565b95945050505050565b5f6060820190508181035f830152610c9f8186610bf6565b9050610cae6020830185610c2e565b610cbb6040830184610c2e565b949350505050565b5f602082019050610cd65f830184610c2e565b92915050565b5f73ffffffffffffffffffffffffffffffffffffffff82169050919050565b5f610d0582610cdc565b9050919050565b610d1581610cfb565b82525050565b5f602082019050610d2e5f830184610d0c565b92915050565b7f4f6e6c79204f776e65722063616e20706572666f726d207468697320616374695f8201527f6f6e000000000000000000000000000000000000000000000000000000000000602082015250565b5f610d8e602283610bd8565b9150610d9982610d34565b604082019050919050565b5f6020820190508181035f830152610dbb81610d82565b9050919050565b7f4e487b71000000000000000000000000000000000000000000000000000000005f52602260045260245ffd5b5f6002820490506001821680610e0657607f821691505b602082108103610e1957610e18610dc2565b5b50919050565b5f819050815f5260205f209050919050565b5f6020601f8301049050919050565b5f82821b905092915050565b5f60088302610e7b7fffffffffffffffffffffffffffffffffffffffffffffffffffffffffffffffff82610e40565b610e858683610e40565b95508019841693508086168417925050509392505050565b5f819050919050565b5f610ec0610ebb610eb684610ac6565b610e9d565b610ac6565b9050919050565b5f819050919050565b610ed983610ea6565b610eed610ee582610ec7565b848454610e4c565b825550505050565b5f90565b610f01610ef5565b610f0c818484610ed0565b505050565b5b81811015610f2f57610f245f82610ef9565b600181019050610f12565b5050565b601f821115610f7457610f4581610e1f565b610f4e84610e31565b81016020851015610f5d578190505b610f71610f6985610e31565b830182610f11565b50505b505050565b5f82821c905092915050565b5f610f945f1984600802610f79565b1980831691505092915050565b5f610fac8383610f85565b9150826002028217905092915050565b610fc582610bce565b67ffffffffffffffff811115610fde57610fdd6109a2565b5b610fe88254610def565b610ff3828285610f33565b5f60209050601f831160018114611024575f8415611012578287015190505b61101c8582610fa1565b865550611083565b601f19841661103286610e1f565b5f5b8281101561105957848901518255600182019150602085019450602081019050611034565b868310156110765784890151611072601f891682610f85565b8355505b6001600288020188555050505b505050505050565b5f60808201905061109e5f830187610c2e565b81810360208301526110b08186610bf6565b90506110bf6040830185610c2e565b6110cc6060830184610c2e565b95945050505050565b7f4e487b71000000000000000000000000000000000000000000000000000000005f52601160045260245ffd5b5f61110c82610ac6565b91507fffffffffffffffffffffffffffffffffffffffffffffffffffffffffffffffff820361113e5761113d6110d5565b5b600182019050919050565b7f496e76616c696420466c696768744944000000000000000000000000000000005f82015250565b5f61117d601083610bd8565b915061118882611149565b602082019050919050565b5f6020820190508181035f8301526111aa81611171565b9050919050565b5f6111bb82610ac6565b91506111c683610ac6565b92508282026111d481610ac6565b915082820484148315176111eb576111ea6110d5565b5b5092915050565b7f496e636f7272656e74207061796d656e7420616d6f756e7400000000000000005f82015250565b5f611226601883610bd8565b9150611231826111f2565b602082019050919050565b5f6020820190508181035f8301526112538161121a565b9050919050565b5f61126482610ac6565b915061126f83610ac6565b9250828201905080821115611287576112866110d5565b5b92915050565b5f6080820190506112a05f830187610d0c565b6112ad6020830186610c2e565b6112ba6040830185610c2e565b6112c76060830184610c2e565b95945050505050565b5f6040820190506112e35f830185610d0c565b6112f06020830184610c2e565b9392505050565b7f496e76616c696420666c696768742049442e00000000000000000000000000005f82015250565b5f61132b601283610bd8565b9150611336826112f7565b602082019050919050565b5f6020820190508181035f8301526113588161131f565b9050919050565b5f61136982610ac6565b915061137483610ac6565b925082820390508181111561138c5761138b6110d5565b5b92915050565b7f4e6f7420656e6f75676820736561747320626f6f6b65642e00000000000000005f82015250565b5f6113c6601883610bd8565b91506113d182611392565b602082019050919050565b5f6020820190508181035f8301526113f3816113ba565b9050919050565b7f4e6f7420656e6f7567682062616c616e636520696e20636f6e747261637420745f8201527f6f20726566756e642e0000000000000000000000000000000000000000000000602082015250565b5f611454602983610bd8565b915061145f826113fa565b604082019050919050565b5f6020820190508181035f83015261148181611448565b9050919050565b5f60608201905061149b5f830186610d0c565b6114a86020830185610c2e565b6114b56040830184610c2e565b94935050505056fea2646970667358221220447a9e185419c3d6fd79028106e819e82f792a4870585e6b4bd82cfd130c1eb064736f6c634300081a0033",
					"opcodes": "PUSH1 0x80 PUSH1 0x40 MSTORE CALLVALUE DUP1 ISZERO PUSH1 0xE JUMPI PUSH0 DUP1 REVERT JUMPDEST POP CALLER PUSH0 DUP1 PUSH2 0x100 EXP DUP2 SLOAD DUP2 PUSH20 0xFFFFFFFFFFFFFFFFFFFFFFFFFFFFFFFFFFFFFFFF MUL NOT AND SWAP1 DUP4 PUSH20 0xFFFFFFFFFFFFFFFFFFFFFFFFFFFFFFFFFFFFFFFF AND MUL OR SWAP1 SSTORE POP PUSH2 0x14F3 DUP1 PUSH2 0x5B PUSH0 CODECOPY PUSH0 RETURN INVALID PUSH1 0x80 PUSH1 0x40 MSTORE PUSH1 0x4 CALLDATASIZE LT PUSH2 0x85 JUMPI PUSH0 CALLDATALOAD PUSH1 0xE0 SHR DUP1 PUSH4 0x1BC09567 GT PUSH2 0x58 JUMPI DUP1 PUSH4 0x1BC09567 EQ PUSH2 0x14A JUMPI DUP1 PUSH4 0x32229205 EQ PUSH2 0x174 JUMPI DUP1 PUSH4 0x5FD8C710 EQ PUSH2 0x190 JUMPI DUP1 PUSH4 0x8DA5CB5B EQ PUSH2 0x1A6 JUMPI DUP1 PUSH4 0xBEDCF003 EQ PUSH2 0x1D0 JUMPI PUSH2 0x85 JUMP JUMPDEST DUP1 PUSH4 0xB7569F1 EQ PUSH2 0x89 JUMPI DUP1 PUSH4 0x139E92EB EQ PUSH2 0xB1 JUMPI DUP1 PUSH4 0x15CCF70F EQ PUSH2 0xCD JUMPI DUP1 PUSH4 0x18535008 EQ PUSH2 0x10C JUMPI JUMPDEST PUSH0 DUP1 REVERT JUMPDEST CALLVALUE DUP1 ISZERO PUSH2 0x94 JUMPI PUSH0 DUP1 REVERT JUMPDEST POP PUSH2 0xAF PUSH1 0x4 DUP1 CALLDATASIZE SUB DUP2 ADD SWAP1 PUSH2 0xAA SWAP2 SWAP1 PUSH2 0xAF9 JUMP JUMPDEST PUSH2 0x1FA JUMP JUMPDEST STOP JUMPDEST PUSH2 0xCB PUSH1 0x4 DUP1 CALLDATASIZE SUB DUP2 ADD SWAP1 PUSH2 0xC6 SWAP2 SWAP1 PUSH2 0xB65 JUMP JUMPDEST PUSH2 0x34B JUMP JUMPDEST STOP JUMPDEST CALLVALUE DUP1 ISZERO PUSH2 0xD8 JUMPI PUSH0 DUP1 REVERT JUMPDEST POP PUSH2 0xF3 PUSH1 0x4 DUP1 CALLDATASIZE SUB DUP2 ADD SWAP1 PUSH2 0xEE SWAP2 SWAP1 PUSH2 0xBA3 JUMP JUMPDEST PUSH2 0x4A6 JUMP JUMPDEST PUSH1 0x40 MLOAD PUSH2 0x103 SWAP5 SWAP4 SWAP3 SWAP2 SWAP1 PUSH2 0xC3D JUMP JUMPDEST PUSH1 0x40 MLOAD DUP1 SWAP2 SUB SWAP1 RETURN JUMPDEST CALLVALUE DUP1 ISZERO PUSH2 0x117 JUMPI PUSH0 DUP1 REVERT JUMPDEST POP PUSH2 0x132 PUSH1 0x4 DUP1 CALLDATASIZE SUB DUP2 ADD SWAP1 PUSH2 0x12D SWAP2 SWAP1 PUSH2 0xBA3 JUMP JUMPDEST PUSH2 0x558 JUMP JUMPDEST PUSH1 0x40 MLOAD PUSH2 0x141 SWAP4 SWAP3 SWAP2 SWAP1 PUSH2 0xC87 JUMP JUMPDEST PUSH1 0x40 MLOAD DUP1 SWAP2 SUB SWAP1 RETURN JUMPDEST CALLVALUE DUP1 ISZERO PUSH2 0x155 JUMPI PUSH0 DUP1 REVERT JUMPDEST POP PUSH2 0x15E PUSH2 0x69C JUMP JUMPDEST PUSH1 0x40 MLOAD PUSH2 0x16B SWAP2 SWAP1 PUSH2 0xCC3 JUMP JUMPDEST PUSH1 0x40 MLOAD DUP1 SWAP2 SUB SWAP1 RETURN JUMPDEST PUSH2 0x18E PUSH1 0x4 DUP1 CALLDATASIZE SUB DUP2 ADD SWAP1 PUSH2 0x189 SWAP2 SWAP1 PUSH2 0xB65 JUMP JUMPDEST PUSH2 0x6A2 JUMP JUMPDEST STOP JUMPDEST CALLVALUE DUP1 ISZERO PUSH2 0x19B JUMPI PUSH0 DUP1 REVERT JUMPDEST POP PUSH2 0x1A4 PUSH2 0x850 JUMP JUMPDEST STOP JUMPDEST CALLVALUE DUP1 ISZERO PUSH2 0x1B1 JUMPI PUSH0 DUP1 REVERT JUMPDEST POP PUSH2 0x1BA PUSH2 0x950 JUMP JUMPDEST PUSH1 0x40 MLOAD PUSH2 0x1C7 SWAP2 SWAP1 PUSH2 0xD1B JUMP JUMPDEST PUSH1 0x40 MLOAD DUP1 SWAP2 SUB SWAP1 RETURN JUMPDEST CALLVALUE DUP1 ISZERO PUSH2 0x1DB JUMPI PUSH0 DUP1 REVERT JUMPDEST POP PUSH2 0x1E4 PUSH2 0x973 JUMP JUMPDEST PUSH1 0x40 MLOAD PUSH2 0x1F1 SWAP2 SWAP1 PUSH2 0xCC3 JUMP JUMPDEST PUSH1 0x40 MLOAD DUP1 SWAP2 SUB SWAP1 RETURN JUMPDEST PUSH0 DUP1 SLOAD SWAP1 PUSH2 0x100 EXP SWAP1 DIV PUSH20 0xFFFFFFFFFFFFFFFFFFFFFFFFFFFFFFFFFFFFFFFF AND PUSH20 0xFFFFFFFFFFFFFFFFFFFFFFFFFFFFFFFFFFFFFFFF AND CALLER PUSH20 0xFFFFFFFFFFFFFFFFFFFFFFFFFFFFFFFFFFFFFFFF AND EQ PUSH2 0x287 JUMPI PUSH1 0x40 MLOAD PUSH32 0x8C379A000000000000000000000000000000000000000000000000000000000 DUP2 MSTORE PUSH1 0x4 ADD PUSH2 0x27E SWAP1 PUSH2 0xDA4 JUMP JUMPDEST PUSH1 0x40 MLOAD DUP1 SWAP2 SUB SWAP1 REVERT JUMPDEST PUSH1 0x40 MLOAD DUP1 PUSH1 0x80 ADD PUSH1 0x40 MSTORE DUP1 DUP5 DUP2 MSTORE PUSH1 0x20 ADD DUP4 DUP2 MSTORE PUSH1 0x20 ADD DUP3 DUP2 MSTORE PUSH1 0x20 ADD PUSH0 DUP2 MSTORE POP PUSH1 0x2 PUSH0 PUSH1 0x3 SLOAD DUP2 MSTORE PUSH1 0x20 ADD SWAP1 DUP2 MSTORE PUSH1 0x20 ADD PUSH0 KECCAK256 PUSH0 DUP3 ADD MLOAD DUP2 PUSH0 ADD SWAP1 DUP2 PUSH2 0x2CE SWAP2 SWAP1 PUSH2 0xFBC JUMP JUMPDEST POP PUSH1 0x20 DUP3 ADD MLOAD DUP2 PUSH1 0x1 ADD SSTORE PUSH1 0x40 DUP3 ADD MLOAD DUP2 PUSH1 0x2 ADD SSTORE PUSH1 0x60 DUP3 ADD MLOAD DUP2 PUSH1 0x3 ADD SSTORE SWAP1 POP POP PUSH32 0xC4EE57698CF470E237E4B6249A9CC3FAD4F8C861D71B20B0734FC7A217747D8E PUSH1 0x3 SLOAD DUP5 DUP5 DUP5 PUSH1 0x40 MLOAD PUSH2 0x327 SWAP5 SWAP4 SWAP3 SWAP2 SWAP1 PUSH2 0x108B JUMP JUMPDEST PUSH1 0x40 MLOAD DUP1 SWAP2 SUB SWAP1 LOG1 PUSH1 0x3 PUSH0 DUP2 SLOAD DUP1 SWAP3 SWAP2 SWAP1 PUSH2 0x341 SWAP1 PUSH2 0x1102 JUMP JUMPDEST SWAP2 SWAP1 POP SSTORE POP POP POP POP JUMP JUMPDEST PUSH1 0x3 SLOAD DUP3 LT PUSH2 0x38F JUMPI PUSH1 0x40 MLOAD PUSH32 0x8C379A000000000000000000000000000000000000000000000000000000000 DUP2 MSTORE PUSH1 0x4 ADD PUSH2 0x386 SWAP1 PUSH2 0x1193 JUMP JUMPDEST PUSH1 0x40 MLOAD DUP1 SWAP2 SUB SWAP1 REVERT JUMPDEST PUSH0 PUSH1 0x2 PUSH0 DUP5 DUP2 MSTORE PUSH1 0x20 ADD SWAP1 DUP2 MSTORE PUSH1 0x20 ADD PUSH0 KECCAK256 SWAP1 POP PUSH0 DUP3 DUP3 PUSH1 0x1 ADD SLOAD PUSH2 0x3B4 SWAP2 SWAP1 PUSH2 0x11B1 JUMP JUMPDEST SWAP1 POP DUP1 CALLVALUE EQ PUSH2 0x3F8 JUMPI PUSH1 0x40 MLOAD PUSH32 0x8C379A000000000000000000000000000000000000000000000000000000000 DUP2 MSTORE PUSH1 0x4 ADD PUSH2 0x3EF SWAP1 PUSH2 0x123C JUMP JUMPDEST PUSH1 0x40 MLOAD DUP1 SWAP2 SUB SWAP1 REVERT JUMPDEST DUP3 DUP3 PUSH1 0x3 ADD PUSH0 DUP3 DUP3 SLOAD PUSH2 0x40B SWAP2 SWAP1 PUSH2 0x125A JUMP JUMPDEST SWAP3 POP POP DUP2 SWAP1 SSTORE POP CALLVALUE PUSH1 0x1 PUSH0 DUP3 DUP3 SLOAD PUSH2 0x423 SWAP2 SWAP1 PUSH2 0x125A JUMP JUMPDEST SWAP3 POP POP DUP2 SWAP1 SSTORE POP PUSH32 0x81C0944C267E331528C04DDEB7BC78F539D7E04F07B820FD8BFAFBD8298B3D48 CALLER DUP6 DUP6 DUP5 PUSH1 0x40 MLOAD PUSH2 0x45F SWAP5 SWAP4 SWAP3 SWAP2 SWAP1 PUSH2 0x128D JUMP JUMPDEST PUSH1 0x40 MLOAD DUP1 SWAP2 SUB SWAP1 LOG1 PUSH32 0x6EF95F06320E7A25A04A175CA677B7052BDD97131872C2192525A629F51BE770 CALLER CALLVALUE PUSH1 0x40 MLOAD PUSH2 0x498 SWAP3 SWAP2 SWAP1 PUSH2 0x12D0 JUMP JUMPDEST PUSH1 0x40 MLOAD DUP1 SWAP2 SUB SWAP1 LOG1 POP POP POP POP JUMP JUMPDEST PUSH1 0x2 PUSH1 0x20 MSTORE DUP1 PUSH0 MSTORE PUSH1 0x40 PUSH0 KECCAK256 PUSH0 SWAP2 POP SWAP1 POP DUP1 PUSH0 ADD DUP1 SLOAD PUSH2 0x4C5 SWAP1 PUSH2 0xDEF JUMP JUMPDEST DUP1 PUSH1 0x1F ADD PUSH1 0x20 DUP1 SWAP2 DIV MUL PUSH1 0x20 ADD PUSH1 0x40 MLOAD SWAP1 DUP2 ADD PUSH1 0x40 MSTORE DUP1 SWAP3 SWAP2 SWAP1 DUP2 DUP2 MSTORE PUSH1 0x20 ADD DUP3 DUP1 SLOAD PUSH2 0x4F1 SWAP1 PUSH2 0xDEF JUMP JUMPDEST DUP1 ISZERO PUSH2 0x53C JUMPI DUP1 PUSH1 0x1F LT PUSH2 0x513 JUMPI PUSH2 0x100 DUP1 DUP4 SLOAD DIV MUL DUP4 MSTORE SWAP2 PUSH1 0x20 ADD SWAP2 PUSH2 0x53C JUMP JUMPDEST DUP3 ADD SWAP2 SWAP1 PUSH0 MSTORE PUSH1 0x20 PUSH0 KECCAK256 SWAP1 JUMPDEST DUP2 SLOAD DUP2 MSTORE SWAP1 PUSH1 0x1 ADD SWAP1 PUSH1 0x20 ADD DUP1 DUP4 GT PUSH2 0x51F JUMPI DUP3 SWAP1 SUB PUSH1 0x1F AND DUP3 ADD SWAP2 JUMPDEST POP POP POP POP POP SWAP1 DUP1 PUSH1 0x1 ADD SLOAD SWAP1 DUP1 PUSH1 0x2 ADD SLOAD SWAP1 DUP1 PUSH1 0x3 ADD SLOAD SWAP1 POP DUP5 JUMP JUMPDEST PUSH1 0x60 PUSH0 DUP1 PUSH1 0x3 SLOAD DUP5 LT PUSH2 0x5A0 JUMPI PUSH1 0x40 MLOAD PUSH32 0x8C379A000000000000000000000000000000000000000000000000000000000 DUP2 MSTORE PUSH1 0x4 ADD PUSH2 0x597 SWAP1 PUSH2 0x1341 JUMP JUMPDEST PUSH1 0x40 MLOAD DUP1 SWAP2 SUB SWAP1 REVERT JUMPDEST PUSH0 PUSH1 0x2 PUSH0 DUP7 DUP2 MSTORE PUSH1 0x20 ADD SWAP1 DUP2 MSTORE PUSH1 0x20 ADD PUSH0 KECCAK256 PUSH1 0x40 MLOAD DUP1 PUSH1 0x80 ADD PUSH1 0x40 MSTORE SWAP1 DUP2 PUSH0 DUP3 ADD DUP1 SLOAD PUSH2 0x5CC SWAP1 PUSH2 0xDEF JUMP JUMPDEST DUP1 PUSH1 0x1F ADD PUSH1 0x20 DUP1 SWAP2 DIV MUL PUSH1 0x20 ADD PUSH1 0x40 MLOAD SWAP1 DUP2 ADD PUSH1 0x40 MSTORE DUP1 SWAP3 SWAP2 SWAP1 DUP2 DUP2 MSTORE PUSH1 0x20 ADD DUP3 DUP1 SLOAD PUSH2 0x5F8 SWAP1 PUSH2 0xDEF JUMP JUMPDEST DUP1 ISZERO PUSH2 0x643 JUMPI DUP1 PUSH1 0x1F LT PUSH2 0x61A JUMPI PUSH2 0x100 DUP1 DUP4 SLOAD DIV MUL DUP4 MSTORE SWAP2 PUSH1 0x20 ADD SWAP2 PUSH2 0x643 JUMP JUMPDEST DUP3 ADD SWAP2 SWAP1 PUSH0 MSTORE PUSH1 0x20 PUSH0 KECCAK256 SWAP1 JUMPDEST DUP2 SLOAD DUP2 MSTORE SWAP1 PUSH1 0x1 ADD SWAP1 PUSH1 0x20 ADD DUP1 DUP4 GT PUSH2 0x626 JUMPI DUP3 SWAP1 SUB PUSH1 0x1F AND DUP3 ADD SWAP2 JUMPDEST POP POP POP POP POP DUP2 MSTORE PUSH1 0x20 ADD PUSH1 0x1 DUP3 ADD SLOAD DUP2 MSTORE PUSH1 0x20 ADD PUSH1 0x2 DUP3 ADD SLOAD DUP2 MSTORE PUSH1 0x20 ADD PUSH1 0x3 DUP3 ADD SLOAD DUP2 MSTORE POP POP SWAP1 POP PUSH0 DUP2 PUSH1 0x60 ADD MLOAD DUP3 PUSH1 0x40 ADD MLOAD PUSH2 0x681 SWAP2 SWAP1 PUSH2 0x135F JUMP JUMPDEST SWAP1 POP DUP2 PUSH0 ADD MLOAD DUP3 PUSH1 0x20 ADD MLOAD DUP3 SWAP5 POP SWAP5 POP SWAP5 POP POP POP SWAP2 SWAP4 SWAP1 SWAP3 POP JUMP JUMPDEST PUSH1 0x3 SLOAD DUP2 JUMP JUMPDEST PUSH1 0x3 SLOAD DUP3 LT PUSH2 0x6E6 JUMPI PUSH1 0x40 MLOAD PUSH32 0x8C379A000000000000000000000000000000000000000000000000000000000 DUP2 MSTORE PUSH1 0x4 ADD PUSH2 0x6DD SWAP1 PUSH2 0x1341 JUMP JUMPDEST PUSH1 0x40 MLOAD DUP1 SWAP2 SUB SWAP1 REVERT JUMPDEST PUSH0 PUSH1 0x2 PUSH0 DUP5 DUP2 MSTORE PUSH1 0x20 ADD SWAP1 DUP2 MSTORE PUSH1 0x20 ADD PUSH0 KECCAK256 SWAP1 POP DUP2 DUP2 PUSH1 0x3 ADD SLOAD LT ISZERO PUSH2 0x741 JUMPI PUSH1 0x40 MLOAD PUSH32 0x8C379A000000000000000000000000000000000000000000000000000000000 DUP2 MSTORE PUSH1 0x4 ADD PUSH2 0x738 SWAP1 PUSH2 0x13DC JUMP JUMPDEST PUSH1 0x40 MLOAD DUP1 SWAP2 SUB SWAP1 REVERT JUMPDEST PUSH0 DUP3 DUP3 PUSH1 0x1 ADD SLOAD PUSH2 0x752 SWAP2 SWAP1 PUSH2 0x11B1 JUMP JUMPDEST SWAP1 POP DUP1 PUSH1 0x1 SLOAD LT ISZERO PUSH2 0x799 JUMPI PUSH1 0x40 MLOAD PUSH32 0x8C379A000000000000000000000000000000000000000000000000000000000 DUP2 MSTORE PUSH1 0x4 ADD PUSH2 0x790 SWAP1 PUSH2 0x146A JUMP JUMPDEST PUSH1 0x40 MLOAD DUP1 SWAP2 SUB SWAP1 REVERT JUMPDEST CALLER PUSH20 0xFFFFFFFFFFFFFFFFFFFFFFFFFFFFFFFFFFFFFFFF AND PUSH2 0x8FC DUP3 SWAP1 DUP2 ISZERO MUL SWAP1 PUSH1 0x40 MLOAD PUSH0 PUSH1 0x40 MLOAD DUP1 DUP4 SUB DUP2 DUP6 DUP9 DUP9 CALL SWAP4 POP POP POP POP ISZERO DUP1 ISZERO PUSH2 0x7DC JUMPI RETURNDATASIZE PUSH0 DUP1 RETURNDATACOPY RETURNDATASIZE PUSH0 REVERT JUMPDEST POP DUP3 DUP3 PUSH1 0x3 ADD PUSH0 DUP3 DUP3 SLOAD PUSH2 0x7F0 SWAP2 SWAP1 PUSH2 0x135F JUMP JUMPDEST SWAP3 POP POP DUP2 SWAP1 SSTORE POP DUP1 PUSH1 0x1 PUSH0 DUP3 DUP3 SLOAD PUSH2 0x808 SWAP2 SWAP1 PUSH2 0x135F JUMP JUMPDEST SWAP3 POP POP DUP2 SWAP1 SSTORE POP PUSH32 0x8095A07203CD91318FF59AF834D6D3F52B1D5441437BD19DA41303E89494AD27 CALLER DUP6 DUP4 PUSH1 0x40 MLOAD PUSH2 0x842 SWAP4 SWAP3 SWAP2 SWAP1 PUSH2 0x1488 JUMP JUMPDEST PUSH1 0x40 MLOAD DUP1 SWAP2 SUB SWAP1 LOG1 POP POP POP POP JUMP JUMPDEST PUSH0 DUP1 SLOAD SWAP1 PUSH2 0x100 EXP SWAP1 DIV PUSH20 0xFFFFFFFFFFFFFFFFFFFFFFFFFFFFFFFFFFFFFFFF AND PUSH20 0xFFFFFFFFFFFFFFFFFFFFFFFFFFFFFFFFFFFFFFFF AND CALLER PUSH20 0xFFFFFFFFFFFFFFFFFFFFFFFFFFFFFFFFFFFFFFFF AND EQ PUSH2 0x8DD JUMPI PUSH1 0x40 MLOAD PUSH32 0x8C379A000000000000000000000000000000000000000000000000000000000 DUP2 MSTORE PUSH1 0x4 ADD PUSH2 0x8D4 SWAP1 PUSH2 0xDA4 JUMP JUMPDEST PUSH1 0x40 MLOAD DUP1 SWAP2 SUB SWAP1 REVERT JUMPDEST PUSH0 PUSH1 0x1 SLOAD SWAP1 POP PUSH0 PUSH1 0x1 DUP2 SWAP1 SSTORE POP PUSH0 DUP1 SLOAD SWAP1 PUSH2 0x100 EXP SWAP1 DIV PUSH20 0xFFFFFFFFFFFFFFFFFFFFFFFFFFFFFFFFFFFFFFFF AND PUSH20 0xFFFFFFFFFFFFFFFFFFFFFFFFFFFFFFFFFFFFFFFF AND PUSH2 0x8FC DUP3 SWAP1 DUP2 ISZERO MUL SWAP1 PUSH1 0x40 MLOAD PUSH0 PUSH1 0x40 MLOAD DUP1 DUP4 SUB DUP2 DUP6 DUP9 DUP9 CALL SWAP4 POP POP POP POP ISZERO DUP1 ISZERO PUSH2 0x94C JUMPI RETURNDATASIZE PUSH0 DUP1 RETURNDATACOPY RETURNDATASIZE PUSH0 REVERT JUMPDEST POP POP JUMP JUMPDEST PUSH0 DUP1 SLOAD SWAP1 PUSH2 0x100 EXP SWAP1 DIV PUSH20 0xFFFFFFFFFFFFFFFFFFFFFFFFFFFFFFFFFFFFFFFF AND DUP2 JUMP JUMPDEST PUSH1 0x1 SLOAD DUP2 JUMP JUMPDEST PUSH0 PUSH1 0x40 MLOAD SWAP1 POP SWAP1 JUMP JUMPDEST PUSH0 DUP1 REVERT JUMPDEST PUSH0 DUP1 REVERT JUMPDEST PUSH0 DUP1 REVERT JUMPDEST PUSH0 DUP1 REVERT JUMPDEST PUSH0 PUSH1 0x1F NOT PUSH1 0x1F DUP4 ADD AND SWAP1 POP SWAP2 SWAP1 POP JUMP JUMPDEST PUSH32 0x4E487B7100000000000000000000000000000000000000000000000000000000 PUSH0 MSTORE PUSH1 0x41 PUSH1 0x4 MSTORE PUSH1 0x24 PUSH0 REVERT JUMPDEST PUSH2 0x9D8 DUP3 PUSH2 0x992 JUMP JUMPDEST DUP2 ADD DUP2 DUP2 LT PUSH8 0xFFFFFFFFFFFFFFFF DUP3 GT OR ISZERO PUSH2 0x9F7 JUMPI PUSH2 0x9F6 PUSH2 0x9A2 JUMP JUMPDEST JUMPDEST DUP1 PUSH1 0x40 MSTORE POP POP POP JUMP JUMPDEST PUSH0 PUSH2 0xA09 PUSH2 0x979 JUMP JUMPDEST SWAP1 POP PUSH2 0xA15 DUP3 DUP3 PUSH2 0x9CF JUMP JUMPDEST SWAP2 SWAP1 POP JUMP JUMPDEST PUSH0 PUSH8 0xFFFFFFFFFFFFFFFF DUP3 GT ISZERO PUSH2 0xA34 JUMPI PUSH2 0xA33 PUSH2 0x9A2 JUMP JUMPDEST JUMPDEST PUSH2 0xA3D DUP3 PUSH2 0x992 JUMP JUMPDEST SWAP1 POP PUSH1 0x20 DUP2 ADD SWAP1 POP SWAP2 SWAP1 POP JUMP JUMPDEST DUP3 DUP2 DUP4 CALLDATACOPY PUSH0 DUP4 DUP4 ADD MSTORE POP POP POP JUMP JUMPDEST PUSH0 PUSH2 0xA6A PUSH2 0xA65 DUP5 PUSH2 0xA1A JUMP JUMPDEST PUSH2 0xA00 JUMP JUMPDEST SWAP1 POP DUP3 DUP2 MSTORE PUSH1 0x20 DUP2 ADD DUP5 DUP5 DUP5 ADD GT ISZERO PUSH2 0xA86 JUMPI PUSH2 0xA85 PUSH2 0x98E JUMP JUMPDEST JUMPDEST PUSH2 0xA91 DUP5 DUP3 DUP6 PUSH2 0xA4A JUMP JUMPDEST POP SWAP4 SWAP3 POP POP POP JUMP JUMPDEST PUSH0 DUP3 PUSH1 0x1F DUP4 ADD SLT PUSH2 0xAAD JUMPI PUSH2 0xAAC PUSH2 0x98A JUMP JUMPDEST JUMPDEST DUP2 CALLDATALOAD PUSH2 0xABD DUP5 DUP3 PUSH1 0x20 DUP7 ADD PUSH2 0xA58 JUMP JUMPDEST SWAP2 POP POP SWAP3 SWAP2 POP POP JUMP JUMPDEST PUSH0 DUP2 SWAP1 POP SWAP2 SWAP1 POP JUMP JUMPDEST PUSH2 0xAD8 DUP2 PUSH2 0xAC6 JUMP JUMPDEST DUP2 EQ PUSH2 0xAE2 JUMPI PUSH0 DUP1 REVERT JUMPDEST POP JUMP JUMPDEST PUSH0 DUP2 CALLDATALOAD SWAP1 POP PUSH2 0xAF3 DUP2 PUSH2 0xACF JUMP JUMPDEST SWAP3 SWAP2 POP POP JUMP JUMPDEST PUSH0 DUP1 PUSH0 PUSH1 0x60 DUP5 DUP7 SUB SLT ISZERO PUSH2 0xB10 JUMPI PUSH2 0xB0F PUSH2 0x982 JUMP JUMPDEST JUMPDEST PUSH0 DUP5 ADD CALLDATALOAD PUSH8 0xFFFFFFFFFFFFFFFF DUP2 GT ISZERO PUSH2 0xB2D JUMPI PUSH2 0xB2C PUSH2 0x986 JUMP JUMPDEST JUMPDEST PUSH2 0xB39 DUP7 DUP3 DUP8 ADD PUSH2 0xA99 JUMP JUMPDEST SWAP4 POP POP PUSH1 0x20 PUSH2 0xB4A DUP7 DUP3 DUP8 ADD PUSH2 0xAE5 JUMP JUMPDEST SWAP3 POP POP PUSH1 0x40 PUSH2 0xB5B DUP7 DUP3 DUP8 ADD PUSH2 0xAE5 JUMP JUMPDEST SWAP2 POP POP SWAP3 POP SWAP3 POP SWAP3 JUMP JUMPDEST PUSH0 DUP1 PUSH1 0x40 DUP4 DUP6 SUB SLT ISZERO PUSH2 0xB7B JUMPI PUSH2 0xB7A PUSH2 0x982 JUMP JUMPDEST JUMPDEST PUSH0 PUSH2 0xB88 DUP6 DUP3 DUP7 ADD PUSH2 0xAE5 JUMP JUMPDEST SWAP3 POP POP PUSH1 0x20 PUSH2 0xB99 DUP6 DUP3 DUP7 ADD PUSH2 0xAE5 JUMP JUMPDEST SWAP2 POP POP SWAP3 POP SWAP3 SWAP1 POP JUMP JUMPDEST PUSH0 PUSH1 0x20 DUP3 DUP5 SUB SLT ISZERO PUSH2 0xBB8 JUMPI PUSH2 0xBB7 PUSH2 0x982 JUMP JUMPDEST JUMPDEST PUSH0 PUSH2 0xBC5 DUP5 DUP3 DUP6 ADD PUSH2 0xAE5 JUMP JUMPDEST SWAP2 POP POP SWAP3 SWAP2 POP POP JUMP JUMPDEST PUSH0 DUP2 MLOAD SWAP1 POP SWAP2 SWAP1 POP JUMP JUMPDEST PUSH0 DUP3 DUP3 MSTORE PUSH1 0x20 DUP3 ADD SWAP1 POP SWAP3 SWAP2 POP POP JUMP JUMPDEST DUP3 DUP2 DUP4 MCOPY PUSH0 DUP4 DUP4 ADD MSTORE POP POP POP JUMP JUMPDEST PUSH0 PUSH2 0xC00 DUP3 PUSH2 0xBCE JUMP JUMPDEST PUSH2 0xC0A DUP2 DUP6 PUSH2 0xBD8 JUMP JUMPDEST SWAP4 POP PUSH2 0xC1A DUP2 DUP6 PUSH1 0x20 DUP7 ADD PUSH2 0xBE8 JUMP JUMPDEST PUSH2 0xC23 DUP2 PUSH2 0x992 JUMP JUMPDEST DUP5 ADD SWAP2 POP POP SWAP3 SWAP2 POP POP JUMP JUMPDEST PUSH2 0xC37 DUP2 PUSH2 0xAC6 JUMP JUMPDEST DUP3 MSTORE POP POP JUMP JUMPDEST PUSH0 PUSH1 0x80 DUP3 ADD SWAP1 POP DUP2 DUP2 SUB PUSH0 DUP4 ADD MSTORE PUSH2 0xC55 DUP2 DUP8 PUSH2 0xBF6 JUMP JUMPDEST SWAP1 POP PUSH2 0xC64 PUSH1 0x20 DUP4 ADD DUP7 PUSH2 0xC2E JUMP JUMPDEST PUSH2 0xC71 PUSH1 0x40 DUP4 ADD DUP6 PUSH2 0xC2E JUMP JUMPDEST PUSH2 0xC7E PUSH1 0x60 DUP4 ADD DUP5 PUSH2 0xC2E JUMP JUMPDEST SWAP6 SWAP5 POP POP POP POP POP JUMP JUMPDEST PUSH0 PUSH1 0x60 DUP3 ADD SWAP1 POP DUP2 DUP2 SUB PUSH0 DUP4 ADD MSTORE PUSH2 0xC9F DUP2 DUP7 PUSH2 0xBF6 JUMP JUMPDEST SWAP1 POP PUSH2 0xCAE PUSH1 0x20 DUP4 ADD DUP6 PUSH2 0xC2E JUMP JUMPDEST PUSH2 0xCBB PUSH1 0x40 DUP4 ADD DUP5 PUSH2 0xC2E JUMP JUMPDEST SWAP5 SWAP4 POP POP POP POP JUMP JUMPDEST PUSH0 PUSH1 0x20 DUP3 ADD SWAP1 POP PUSH2 0xCD6 PUSH0 DUP4 ADD DUP5 PUSH2 0xC2E JUMP JUMPDEST SWAP3 SWAP2 POP POP JUMP JUMPDEST PUSH0 PUSH20 0xFFFFFFFFFFFFFFFFFFFFFFFFFFFFFFFFFFFFFFFF DUP3 AND SWAP1 POP SWAP2 SWAP1 POP JUMP JUMPDEST PUSH0 PUSH2 0xD05 DUP3 PUSH2 0xCDC JUMP JUMPDEST SWAP1 POP SWAP2 SWAP1 POP JUMP JUMPDEST PUSH2 0xD15 DUP2 PUSH2 0xCFB JUMP JUMPDEST DUP3 MSTORE POP POP JUMP JUMPDEST PUSH0 PUSH1 0x20 DUP3 ADD SWAP1 POP PUSH2 0xD2E PUSH0 DUP4 ADD DUP5 PUSH2 0xD0C JUMP JUMPDEST SWAP3 SWAP2 POP POP JUMP JUMPDEST PUSH32 0x4F6E6C79204F776E65722063616E20706572666F726D20746869732061637469 PUSH0 DUP3 ADD MSTORE PUSH32 0x6F6E000000000000000000000000000000000000000000000000000000000000 PUSH1 0x20 DUP3 ADD MSTORE POP JUMP JUMPDEST PUSH0 PUSH2 0xD8E PUSH1 0x22 DUP4 PUSH2 0xBD8 JUMP JUMPDEST SWAP2 POP PUSH2 0xD99 DUP3 PUSH2 0xD34 JUMP JUMPDEST PUSH1 0x40 DUP3 ADD SWAP1 POP SWAP2 SWAP1 POP JUMP JUMPDEST PUSH0 PUSH1 0x20 DUP3 ADD SWAP1 POP DUP2 DUP2 SUB PUSH0 DUP4 ADD MSTORE PUSH2 0xDBB DUP2 PUSH2 0xD82 JUMP JUMPDEST SWAP1 POP SWAP2 SWAP1 POP JUMP JUMPDEST PUSH32 0x4E487B7100000000000000000000000000000000000000000000000000000000 PUSH0 MSTORE PUSH1 0x22 PUSH1 0x4 MSTORE PUSH1 0x24 PUSH0 REVERT JUMPDEST PUSH0 PUSH1 0x2 DUP3 DIV SWAP1 POP PUSH1 0x1 DUP3 AND DUP1 PUSH2 0xE06 JUMPI PUSH1 0x7F DUP3 AND SWAP2 POP JUMPDEST PUSH1 0x20 DUP3 LT DUP2 SUB PUSH2 0xE19 JUMPI PUSH2 0xE18 PUSH2 0xDC2 JUMP JUMPDEST JUMPDEST POP SWAP2 SWAP1 POP JUMP JUMPDEST PUSH0 DUP2 SWAP1 POP DUP2 PUSH0 MSTORE PUSH1 0x20 PUSH0 KECCAK256 SWAP1 POP SWAP2 SWAP1 POP JUMP JUMPDEST PUSH0 PUSH1 0x20 PUSH1 0x1F DUP4 ADD DIV SWAP1 POP SWAP2 SWAP1 POP JUMP JUMPDEST PUSH0 DUP3 DUP3 SHL SWAP1 POP SWAP3 SWAP2 POP POP JUMP JUMPDEST PUSH0 PUSH1 0x8 DUP4 MUL PUSH2 0xE7B PUSH32 0xFFFFFFFFFFFFFFFFFFFFFFFFFFFFFFFFFFFFFFFFFFFFFFFFFFFFFFFFFFFFFFFF DUP3 PUSH2 0xE40 JUMP JUMPDEST PUSH2 0xE85 DUP7 DUP4 PUSH2 0xE40 JUMP JUMPDEST SWAP6 POP DUP1 NOT DUP5 AND SWAP4 POP DUP1 DUP7 AND DUP5 OR SWAP3 POP POP POP SWAP4 SWAP3 POP POP POP JUMP JUMPDEST PUSH0 DUP2 SWAP1 POP SWAP2 SWAP1 POP JUMP JUMPDEST PUSH0 PUSH2 0xEC0 PUSH2 0xEBB PUSH2 0xEB6 DUP5 PUSH2 0xAC6 JUMP JUMPDEST PUSH2 0xE9D JUMP JUMPDEST PUSH2 0xAC6 JUMP JUMPDEST SWAP1 POP SWAP2 SWAP1 POP JUMP JUMPDEST PUSH0 DUP2 SWAP1 POP SWAP2 SWAP1 POP JUMP JUMPDEST PUSH2 0xED9 DUP4 PUSH2 0xEA6 JUMP JUMPDEST PUSH2 0xEED PUSH2 0xEE5 DUP3 PUSH2 0xEC7 JUMP JUMPDEST DUP5 DUP5 SLOAD PUSH2 0xE4C JUMP JUMPDEST DUP3 SSTORE POP POP POP POP JUMP JUMPDEST PUSH0 SWAP1 JUMP JUMPDEST PUSH2 0xF01 PUSH2 0xEF5 JUMP JUMPDEST PUSH2 0xF0C DUP2 DUP5 DUP5 PUSH2 0xED0 JUMP JUMPDEST POP POP POP JUMP JUMPDEST JUMPDEST DUP2 DUP2 LT ISZERO PUSH2 0xF2F JUMPI PUSH2 0xF24 PUSH0 DUP3 PUSH2 0xEF9 JUMP JUMPDEST PUSH1 0x1 DUP2 ADD SWAP1 POP PUSH2 0xF12 JUMP JUMPDEST POP POP JUMP JUMPDEST PUSH1 0x1F DUP3 GT ISZERO PUSH2 0xF74 JUMPI PUSH2 0xF45 DUP2 PUSH2 0xE1F JUMP JUMPDEST PUSH2 0xF4E DUP5 PUSH2 0xE31 JUMP JUMPDEST DUP2 ADD PUSH1 0x20 DUP6 LT ISZERO PUSH2 0xF5D JUMPI DUP2 SWAP1 POP JUMPDEST PUSH2 0xF71 PUSH2 0xF69 DUP6 PUSH2 0xE31 JUMP JUMPDEST DUP4 ADD DUP3 PUSH2 0xF11 JUMP JUMPDEST POP POP JUMPDEST POP POP POP JUMP JUMPDEST PUSH0 DUP3 DUP3 SHR SWAP1 POP SWAP3 SWAP2 POP POP JUMP JUMPDEST PUSH0 PUSH2 0xF94 PUSH0 NOT DUP5 PUSH1 0x8 MUL PUSH2 0xF79 JUMP JUMPDEST NOT DUP1 DUP4 AND SWAP2 POP POP SWAP3 SWAP2 POP POP JUMP JUMPDEST PUSH0 PUSH2 0xFAC DUP4 DUP4 PUSH2 0xF85 JUMP JUMPDEST SWAP2 POP DUP3 PUSH1 0x2 MUL DUP3 OR SWAP1 POP SWAP3 SWAP2 POP POP JUMP JUMPDEST PUSH2 0xFC5 DUP3 PUSH2 0xBCE JUMP JUMPDEST PUSH8 0xFFFFFFFFFFFFFFFF DUP2 GT ISZERO PUSH2 0xFDE JUMPI PUSH2 0xFDD PUSH2 0x9A2 JUMP JUMPDEST JUMPDEST PUSH2 0xFE8 DUP3 SLOAD PUSH2 0xDEF JUMP JUMPDEST PUSH2 0xFF3 DUP3 DUP3 DUP6 PUSH2 0xF33 JUMP JUMPDEST PUSH0 PUSH1 0x20 SWAP1 POP PUSH1 0x1F DUP4 GT PUSH1 0x1 DUP2 EQ PUSH2 0x1024 JUMPI PUSH0 DUP5 ISZERO PUSH2 0x1012 JUMPI DUP3 DUP8 ADD MLOAD SWAP1 POP JUMPDEST PUSH2 0x101C DUP6 DUP3 PUSH2 0xFA1 JUMP JUMPDEST DUP7 SSTORE POP PUSH2 0x1083 JUMP JUMPDEST PUSH1 0x1F NOT DUP5 AND PUSH2 0x1032 DUP7 PUSH2 0xE1F JUMP JUMPDEST PUSH0 JUMPDEST DUP3 DUP2 LT ISZERO PUSH2 0x1059 JUMPI DUP5 DUP10 ADD MLOAD DUP3 SSTORE PUSH1 0x1 DUP3 ADD SWAP2 POP PUSH1 0x20 DUP6 ADD SWAP5 POP PUSH1 0x20 DUP2 ADD SWAP1 POP PUSH2 0x1034 JUMP JUMPDEST DUP7 DUP4 LT ISZERO PUSH2 0x1076 JUMPI DUP5 DUP10 ADD MLOAD PUSH2 0x1072 PUSH1 0x1F DUP10 AND DUP3 PUSH2 0xF85 JUMP JUMPDEST DUP4 SSTORE POP JUMPDEST PUSH1 0x1 PUSH1 0x2 DUP9 MUL ADD DUP9 SSTORE POP POP POP JUMPDEST POP POP POP POP POP POP JUMP JUMPDEST PUSH0 PUSH1 0x80 DUP3 ADD SWAP1 POP PUSH2 0x109E PUSH0 DUP4 ADD DUP8 PUSH2 0xC2E JUMP JUMPDEST DUP2 DUP2 SUB PUSH1 0x20 DUP4 ADD MSTORE PUSH2 0x10B0 DUP2 DUP7 PUSH2 0xBF6 JUMP JUMPDEST SWAP1 POP PUSH2 0x10BF PUSH1 0x40 DUP4 ADD DUP6 PUSH2 0xC2E JUMP JUMPDEST PUSH2 0x10CC PUSH1 0x60 DUP4 ADD DUP5 PUSH2 0xC2E JUMP JUMPDEST SWAP6 SWAP5 POP POP POP POP POP JUMP JUMPDEST PUSH32 0x4E487B7100000000000000000000000000000000000000000000000000000000 PUSH0 MSTORE PUSH1 0x11 PUSH1 0x4 MSTORE PUSH1 0x24 PUSH0 REVERT JUMPDEST PUSH0 PUSH2 0x110C DUP3 PUSH2 0xAC6 JUMP JUMPDEST SWAP2 POP PUSH32 0xFFFFFFFFFFFFFFFFFFFFFFFFFFFFFFFFFFFFFFFFFFFFFFFFFFFFFFFFFFFFFFFF DUP3 SUB PUSH2 0x113E JUMPI PUSH2 0x113D PUSH2 0x10D5 JUMP JUMPDEST JUMPDEST PUSH1 0x1 DUP3 ADD SWAP1 POP SWAP2 SWAP1 POP JUMP JUMPDEST PUSH32 0x496E76616C696420466C69676874494400000000000000000000000000000000 PUSH0 DUP3 ADD MSTORE POP JUMP JUMPDEST PUSH0 PUSH2 0x117D PUSH1 0x10 DUP4 PUSH2 0xBD8 JUMP JUMPDEST SWAP2 POP PUSH2 0x1188 DUP3 PUSH2 0x1149 JUMP JUMPDEST PUSH1 0x20 DUP3 ADD SWAP1 POP SWAP2 SWAP1 POP JUMP JUMPDEST PUSH0 PUSH1 0x20 DUP3 ADD SWAP1 POP DUP2 DUP2 SUB PUSH0 DUP4 ADD MSTORE PUSH2 0x11AA DUP2 PUSH2 0x1171 JUMP JUMPDEST SWAP1 POP SWAP2 SWAP1 POP JUMP JUMPDEST PUSH0 PUSH2 0x11BB DUP3 PUSH2 0xAC6 JUMP JUMPDEST SWAP2 POP PUSH2 0x11C6 DUP4 PUSH2 0xAC6 JUMP JUMPDEST SWAP3 POP DUP3 DUP3 MUL PUSH2 0x11D4 DUP2 PUSH2 0xAC6 JUMP JUMPDEST SWAP2 POP DUP3 DUP3 DIV DUP5 EQ DUP4 ISZERO OR PUSH2 0x11EB JUMPI PUSH2 0x11EA PUSH2 0x10D5 JUMP JUMPDEST JUMPDEST POP SWAP3 SWAP2 POP POP JUMP JUMPDEST PUSH32 0x496E636F7272656E74207061796D656E7420616D6F756E740000000000000000 PUSH0 DUP3 ADD MSTORE POP JUMP JUMPDEST PUSH0 PUSH2 0x1226 PUSH1 0x18 DUP4 PUSH2 0xBD8 JUMP JUMPDEST SWAP2 POP PUSH2 0x1231 DUP3 PUSH2 0x11F2 JUMP JUMPDEST PUSH1 0x20 DUP3 ADD SWAP1 POP SWAP2 SWAP1 POP JUMP JUMPDEST PUSH0 PUSH1 0x20 DUP3 ADD SWAP1 POP DUP2 DUP2 SUB PUSH0 DUP4 ADD MSTORE PUSH2 0x1253 DUP2 PUSH2 0x121A JUMP JUMPDEST SWAP1 POP SWAP2 SWAP1 POP JUMP JUMPDEST PUSH0 PUSH2 0x1264 DUP3 PUSH2 0xAC6 JUMP JUMPDEST SWAP2 POP PUSH2 0x126F DUP4 PUSH2 0xAC6 JUMP JUMPDEST SWAP3 POP DUP3 DUP3 ADD SWAP1 POP DUP1 DUP3 GT ISZERO PUSH2 0x1287 JUMPI PUSH2 0x1286 PUSH2 0x10D5 JUMP JUMPDEST JUMPDEST SWAP3 SWAP2 POP POP JUMP JUMPDEST PUSH0 PUSH1 0x80 DUP3 ADD SWAP1 POP PUSH2 0x12A0 PUSH0 DUP4 ADD DUP8 PUSH2 0xD0C JUMP JUMPDEST PUSH2 0x12AD PUSH1 0x20 DUP4 ADD DUP7 PUSH2 0xC2E JUMP JUMPDEST PUSH2 0x12BA PUSH1 0x40 DUP4 ADD DUP6 PUSH2 0xC2E JUMP JUMPDEST PUSH2 0x12C7 PUSH1 0x60 DUP4 ADD DUP5 PUSH2 0xC2E JUMP JUMPDEST SWAP6 SWAP5 POP POP POP POP POP JUMP JUMPDEST PUSH0 PUSH1 0x40 DUP3 ADD SWAP1 POP PUSH2 0x12E3 PUSH0 DUP4 ADD DUP6 PUSH2 0xD0C JUMP JUMPDEST PUSH2 0x12F0 PUSH1 0x20 DUP4 ADD DUP5 PUSH2 0xC2E JUMP JUMPDEST SWAP4 SWAP3 POP POP POP JUMP JUMPDEST PUSH32 0x496E76616C696420666C696768742049442E0000000000000000000000000000 PUSH0 DUP3 ADD MSTORE POP JUMP JUMPDEST PUSH0 PUSH2 0x132B PUSH1 0x12 DUP4 PUSH2 0xBD8 JUMP JUMPDEST SWAP2 POP PUSH2 0x1336 DUP3 PUSH2 0x12F7 JUMP JUMPDEST PUSH1 0x20 DUP3 ADD SWAP1 POP SWAP2 SWAP1 POP JUMP JUMPDEST PUSH0 PUSH1 0x20 DUP3 ADD SWAP1 POP DUP2 DUP2 SUB PUSH0 DUP4 ADD MSTORE PUSH2 0x1358 DUP2 PUSH2 0x131F JUMP JUMPDEST SWAP1 POP SWAP2 SWAP1 POP JUMP JUMPDEST PUSH0 PUSH2 0x1369 DUP3 PUSH2 0xAC6 JUMP JUMPDEST SWAP2 POP PUSH2 0x1374 DUP4 PUSH2 0xAC6 JUMP JUMPDEST SWAP3 POP DUP3 DUP3 SUB SWAP1 POP DUP2 DUP2 GT ISZERO PUSH2 0x138C JUMPI PUSH2 0x138B PUSH2 0x10D5 JUMP JUMPDEST JUMPDEST SWAP3 SWAP2 POP POP JUMP JUMPDEST PUSH32 0x4E6F7420656E6F75676820736561747320626F6F6B65642E0000000000000000 PUSH0 DUP3 ADD MSTORE POP JUMP JUMPDEST PUSH0 PUSH2 0x13C6 PUSH1 0x18 DUP4 PUSH2 0xBD8 JUMP JUMPDEST SWAP2 POP PUSH2 0x13D1 DUP3 PUSH2 0x1392 JUMP JUMPDEST PUSH1 0x20 DUP3 ADD SWAP1 POP SWAP2 SWAP1 POP JUMP JUMPDEST PUSH0 PUSH1 0x20 DUP3 ADD SWAP1 POP DUP2 DUP2 SUB PUSH0 DUP4 ADD MSTORE PUSH2 0x13F3 DUP2 PUSH2 0x13BA JUMP JUMPDEST SWAP1 POP SWAP2 SWAP1 POP JUMP JUMPDEST PUSH32 0x4E6F7420656E6F7567682062616C616E636520696E20636F6E74726163742074 PUSH0 DUP3 ADD MSTORE PUSH32 0x6F20726566756E642E0000000000000000000000000000000000000000000000 PUSH1 0x20 DUP3 ADD MSTORE POP JUMP JUMPDEST PUSH0 PUSH2 0x1454 PUSH1 0x29 DUP4 PUSH2 0xBD8 JUMP JUMPDEST SWAP2 POP PUSH2 0x145F DUP3 PUSH2 0x13FA JUMP JUMPDEST PUSH1 0x40 DUP3 ADD SWAP1 POP SWAP2 SWAP1 POP JUMP JUMPDEST PUSH0 PUSH1 0x20 DUP3 ADD SWAP1 POP DUP2 DUP2 SUB PUSH0 DUP4 ADD MSTORE PUSH2 0x1481 DUP2 PUSH2 0x1448 JUMP JUMPDEST SWAP1 POP SWAP2 SWAP1 POP JUMP JUMPDEST PUSH0 PUSH1 0x60 DUP3 ADD SWAP1 POP PUSH2 0x149B PUSH0 DUP4 ADD DUP7 PUSH2 0xD0C JUMP JUMPDEST PUSH2 0x14A8 PUSH1 0x20 DUP4 ADD DUP6 PUSH2 0xC2E JUMP JUMPDEST PUSH2 0x14B5 PUSH1 0x40 DUP4 ADD DUP5 PUSH2 0xC2E JUMP JUMPDEST SWAP5 SWAP4 POP POP POP POP JUMP INVALID LOG2 PUSH5 0x6970667358 0x22 SLT KECCAK256 PREVRANDAO PUSH27 0x9E185419C3D6FD79028106E819E82F792A4870585E6B4BD82CFD13 0xC 0x1E 0xB0 PUSH5 0x736F6C6343 STOP ADDMOD BYTE STOP CALLER "
				},
				"gasEstimates": {
					"creation": {
						"codeDepositCost": "1072600",
						"executionCost": "25377",
						"totalCost": "1097977"
					},
					"external": {
						"addFlight(string,uint256,uint256)": "infinite",
						"bookFlight(uint256,uint256)": "infinite",
						"cancelBooking(uint256,uint256)": "infinite",
						"flightCount()": "2425",
						"flights(uint256)": "infinite",
						"getFlightDetails(uint256)": "infinite",
						"owner()": "2571",
						"ownerBalance()": "2513",
						"withdrawBalance()": "infinite"
					}
				},
				"methodIdentifiers": {
					"addFlight(string,uint256,uint256)": "0b7569f1",
					"bookFlight(uint256,uint256)": "139e92eb",
					"cancelBooking(uint256,uint256)": "32229205",
					"flightCount()": "1bc09567",
					"flights(uint256)": "15ccf70f",
					"getFlightDetails(uint256)": "18535008",
					"owner()": "8da5cb5b",
					"ownerBalance()": "bedcf003",
					"withdrawBalance()": "5fd8c710"
				}
			},
			"storageLayout": {
				"storage": [
					{
						"astId": 3,
						"contract": "contracts/AirlineBookingSystem.sol:Airline",
						"label": "owner",
						"offset": 0,
						"slot": "0",
						"type": "t_address"
					},
					{
						"astId": 5,
						"contract": "contracts/AirlineBookingSystem.sol:Airline",
						"label": "ownerBalance",
						"offset": 0,
						"slot": "1",
						"type": "t_uint256"
					},
					{
						"astId": 19,
						"contract": "contracts/AirlineBookingSystem.sol:Airline",
						"label": "flights",
						"offset": 0,
						"slot": "2",
						"type": "t_mapping(t_uint256,t_struct(Flight)14_storage)"
					},
					{
						"astId": 21,
						"contract": "contracts/AirlineBookingSystem.sol:Airline",
						"label": "flightCount",
						"offset": 0,
						"slot": "3",
						"type": "t_uint256"
					}
				],
				"types": {
					"t_address": {
						"encoding": "inplace",
						"label": "address",
						"numberOfBytes": "20"
					},
					"t_mapping(t_uint256,t_struct(Flight)14_storage)": {
						"encoding": "mapping",
						"key": "t_uint256",
						"label": "mapping(uint256 => struct Airline.Flight)",
						"numberOfBytes": "32",
						"value": "t_struct(Flight)14_storage"
					},
					"t_string_storage": {
						"encoding": "bytes",
						"label": "string",
						"numberOfBytes": "32"
					},
					"t_struct(Flight)14_storage": {
						"encoding": "inplace",
						"label": "struct Airline.Flight",
						"members": [
							{
								"astId": 7,
								"contract": "contracts/AirlineBookingSystem.sol:Airline",
								"label": "destination",
								"offset": 0,
								"slot": "0",
								"type": "t_string_storage"
							},
							{
								"astId": 9,
								"contract": "contracts/AirlineBookingSystem.sol:Airline",
								"label": "price",
								"offset": 0,
								"slot": "1",
								"type": "t_uint256"
							},
							{
								"astId": 11,
								"contract": "contracts/AirlineBookingSystem.sol:Airline",
								"label": "totalSeats",
								"offset": 0,
								"slot": "2",
								"type": "t_uint256"
							},
							{
								"astId": 13,
								"contract": "contracts/AirlineBookingSystem.sol:Airline",
								"label": "bookedSeats",
								"offset": 0,
								"slot": "3",
								"type": "t_uint256"
							}
						],
						"numberOfBytes": "128"
					},
					"t_uint256": {
						"encoding": "inplace",
						"label": "uint256",
						"numberOfBytes": "32"
					}
				}
			},
			"userdoc": {
				"kind": "user",
				"methods": {},
				"version": 1
			}
		}
	}
}